{
  "contractName": "AssetContract",
  "abi": [
    {
      "inputs": [],
      "stateMutability": "nonpayable",
      "type": "constructor"
    },
    {
      "anonymous": false,
      "inputs": [
        {
          "indexed": true,
          "internalType": "address",
          "name": "owner",
          "type": "address"
        },
        {
          "indexed": true,
          "internalType": "address",
          "name": "approved",
          "type": "address"
        },
        {
          "indexed": true,
          "internalType": "uint256",
          "name": "tokenId",
          "type": "uint256"
        }
      ],
      "name": "Approval",
      "type": "event"
    },
    {
      "anonymous": false,
      "inputs": [
        {
          "indexed": true,
          "internalType": "address",
          "name": "owner",
          "type": "address"
        },
        {
          "indexed": true,
          "internalType": "address",
          "name": "operator",
          "type": "address"
        },
        {
          "indexed": false,
          "internalType": "bool",
          "name": "approved",
          "type": "bool"
        }
      ],
      "name": "ApprovalForAll",
      "type": "event"
    },
    {
      "anonymous": false,
      "inputs": [
        {
          "indexed": false,
          "internalType": "address",
          "name": "owner",
          "type": "address"
        },
        {
          "indexed": false,
          "internalType": "uint256",
          "name": "newAssetId",
          "type": "uint256"
        },
        {
          "indexed": false,
          "internalType": "string",
          "name": "metadataURI",
          "type": "string"
        },
        {
          "indexed": false,
          "internalType": "bool",
          "name": "currentlyBorrowed",
          "type": "bool"
        }
      ],
      "name": "NewAssetCreation",
      "type": "event"
    },
    {
      "anonymous": false,
      "inputs": [
        {
          "indexed": true,
          "internalType": "address",
          "name": "from",
          "type": "address"
        },
        {
          "indexed": true,
          "internalType": "address",
          "name": "to",
          "type": "address"
        },
        {
          "indexed": true,
          "internalType": "uint256",
          "name": "tokenId",
          "type": "uint256"
        }
      ],
      "name": "Transfer",
      "type": "event"
    },
    {
      "inputs": [
        {
          "internalType": "uint256",
          "name": "",
          "type": "uint256"
        }
      ],
      "name": "AssetIndexToApproved",
      "outputs": [
        {
          "internalType": "address",
          "name": "",
          "type": "address"
        }
      ],
      "stateMutability": "view",
      "type": "function",
      "constant": true
    },
    {
      "inputs": [
        {
          "internalType": "uint256",
          "name": "",
          "type": "uint256"
        }
      ],
      "name": "AssetIndextoOwner",
      "outputs": [
        {
          "internalType": "address",
          "name": "",
          "type": "address"
        }
      ],
      "stateMutability": "view",
      "type": "function",
      "constant": true
    },
    {
      "inputs": [
        {
          "internalType": "address",
          "name": "",
          "type": "address"
        },
        {
          "internalType": "address",
          "name": "",
          "type": "address"
        }
      ],
      "name": "_operatorApprovals",
      "outputs": [
        {
          "internalType": "bool",
          "name": "",
          "type": "bool"
        }
      ],
      "stateMutability": "view",
      "type": "function",
      "constant": true
    },
    {
      "inputs": [],
      "name": "dAppName",
      "outputs": [
        {
          "internalType": "string",
          "name": "",
          "type": "string"
        }
      ],
      "stateMutability": "view",
      "type": "function",
      "constant": true
    },
    {
      "inputs": [],
      "name": "globalTokenSymbol",
      "outputs": [
        {
          "internalType": "string",
          "name": "",
          "type": "string"
        }
      ],
      "stateMutability": "view",
      "type": "function",
      "constant": true
    },
    {
      "inputs": [
        {
          "internalType": "address",
          "name": "",
          "type": "address"
        },
        {
          "internalType": "address",
          "name": "",
          "type": "address"
        },
        {
          "internalType": "uint256",
          "name": "",
          "type": "uint256"
        },
        {
          "internalType": "bytes",
          "name": "",
          "type": "bytes"
        }
      ],
      "name": "onERC721Received",
      "outputs": [
        {
          "internalType": "bytes4",
          "name": "",
          "type": "bytes4"
        }
      ],
      "stateMutability": "pure",
      "type": "function",
      "constant": true
    },
    {
      "inputs": [],
      "name": "owner",
      "outputs": [
        {
          "internalType": "address",
          "name": "",
          "type": "address"
        }
      ],
      "stateMutability": "view",
      "type": "function",
      "constant": true
    },
    {
      "inputs": [
        {
          "internalType": "bytes4",
          "name": "_interfaceId",
          "type": "bytes4"
        }
      ],
      "name": "supportsInterface",
      "outputs": [
        {
          "internalType": "bool",
          "name": "",
          "type": "bool"
        }
      ],
      "stateMutability": "pure",
      "type": "function",
      "constant": true
    },
    {
      "inputs": [
        {
          "internalType": "address",
          "name": "owner",
          "type": "address"
        }
      ],
      "name": "balanceOf",
      "outputs": [
        {
          "internalType": "uint256",
          "name": "",
          "type": "uint256"
        }
      ],
      "stateMutability": "view",
      "type": "function",
      "constant": true
    },
    {
      "inputs": [
        {
          "internalType": "string",
          "name": "metadataURI",
          "type": "string"
        }
      ],
      "name": "createAsset",
      "outputs": [
        {
          "internalType": "uint256",
          "name": "",
          "type": "uint256"
        }
      ],
      "stateMutability": "nonpayable",
      "type": "function"
    },
    {
      "inputs": [],
      "name": "totalSupply",
      "outputs": [
        {
          "internalType": "uint256",
          "name": "",
          "type": "uint256"
        }
      ],
      "stateMutability": "view",
      "type": "function",
      "constant": true
    },
    {
      "inputs": [],
      "name": "name",
      "outputs": [
        {
          "internalType": "string",
          "name": "",
          "type": "string"
        }
      ],
      "stateMutability": "pure",
      "type": "function",
      "constant": true
    },
    {
      "inputs": [],
      "name": "symbol",
      "outputs": [
        {
          "internalType": "string",
          "name": "",
          "type": "string"
        }
      ],
      "stateMutability": "pure",
      "type": "function",
      "constant": true
    },
    {
      "inputs": [
        {
          "internalType": "uint256",
          "name": "_tokenId",
          "type": "uint256"
        }
      ],
      "name": "ownerOf",
      "outputs": [
        {
          "internalType": "address",
          "name": "",
          "type": "address"
        }
      ],
      "stateMutability": "view",
      "type": "function",
      "constant": true
    },
    {
      "inputs": [
        {
          "internalType": "uint256",
          "name": "_index",
          "type": "uint256"
        }
      ],
      "name": "getAssetInfo",
      "outputs": [
        {
          "internalType": "uint256",
          "name": "assetId",
          "type": "uint256"
        },
        {
          "internalType": "string",
          "name": "metadataURI",
          "type": "string"
        },
        {
          "internalType": "bool",
          "name": "currentlyBorrowed",
          "type": "bool"
        }
      ],
      "stateMutability": "view",
      "type": "function",
      "constant": true
    },
    {
      "inputs": [
        {
          "internalType": "address",
          "name": "to",
          "type": "address"
        },
        {
          "internalType": "uint256",
          "name": "tokenId",
          "type": "uint256"
        }
      ],
      "name": "transfer",
      "outputs": [],
      "stateMutability": "nonpayable",
      "type": "function"
    },
    {
      "inputs": [
        {
          "internalType": "address",
          "name": "_from",
          "type": "address"
        },
        {
          "internalType": "address",
          "name": "_to",
          "type": "address"
        },
        {
          "internalType": "uint256",
          "name": "_tokenId",
          "type": "uint256"
        }
      ],
      "name": "safeTransferFrom",
      "outputs": [],
      "stateMutability": "nonpayable",
      "type": "function"
    },
    {
      "inputs": [
        {
          "internalType": "address",
          "name": "_from",
          "type": "address"
        },
        {
          "internalType": "address",
          "name": "_to",
          "type": "address"
        },
        {
          "internalType": "uint256",
          "name": "_tokenId",
          "type": "uint256"
        },
        {
          "internalType": "bytes",
          "name": "data",
          "type": "bytes"
        }
      ],
      "name": "safeTransferFrom",
      "outputs": [],
      "stateMutability": "nonpayable",
      "type": "function"
    },
    {
      "inputs": [
        {
          "internalType": "address",
          "name": "_from",
          "type": "address"
        },
        {
          "internalType": "address",
          "name": "_to",
          "type": "address"
        },
        {
          "internalType": "uint256",
          "name": "_tokenId",
          "type": "uint256"
        }
      ],
      "name": "transferFrom",
      "outputs": [],
      "stateMutability": "nonpayable",
      "type": "function"
    },
    {
      "inputs": [
        {
          "internalType": "address",
          "name": "_approved",
          "type": "address"
        },
        {
          "internalType": "uint256",
          "name": "_tokenId",
          "type": "uint256"
        }
      ],
      "name": "approve",
      "outputs": [],
      "stateMutability": "nonpayable",
      "type": "function"
    },
    {
      "inputs": [
        {
          "internalType": "address",
          "name": "_operator",
          "type": "address"
        },
        {
          "internalType": "bool",
          "name": "_approved",
          "type": "bool"
        }
      ],
      "name": "setApprovalForAll",
      "outputs": [],
      "stateMutability": "nonpayable",
      "type": "function"
    },
    {
      "inputs": [
        {
          "internalType": "uint256",
          "name": "_tokenId",
          "type": "uint256"
        }
      ],
      "name": "getApproved",
      "outputs": [
        {
          "internalType": "address",
          "name": "",
          "type": "address"
        }
      ],
      "stateMutability": "view",
      "type": "function",
      "constant": true
    },
    {
      "inputs": [
        {
          "internalType": "address",
          "name": "_owner",
          "type": "address"
        },
        {
          "internalType": "address",
          "name": "_operator",
          "type": "address"
        }
      ],
      "name": "isApprovedForAll",
      "outputs": [
        {
          "internalType": "bool",
          "name": "",
          "type": "bool"
        }
      ],
      "stateMutability": "view",
      "type": "function",
      "constant": true
    }
  ],
  "bytecode": "0x608060405234801561001057600080fd5b50336000806101000a81548173ffffffffffffffffffffffffffffffffffffffff021916908373ffffffffffffffffffffffffffffffffffffffff160217905550336000806101000a81548173ffffffffffffffffffffffffffffffffffffffff021916908373ffffffffffffffffffffffffffffffffffffffff16021790555061241a806100a06000396000f3fe608060405234801561001057600080fd5b506004361061014d5760003560e01c806370a08231116100c3578063b88d4fde1161007c578063b88d4fde146103c4578063cec41052146103e0578063d42e2207146103fe578063e985e9c51461042e578063edc3bc3f1461045e578063f637d9501461048e5761014d565b806370a0823114610302578063850d7120146103325780638da5cb5b1461035057806395d89b411461036e578063a22cb4651461038c578063a9059cbb146103a85761014d565b806318160ddd1161011557806318160ddd1461021c57806323b872dd1461023a57806342842e0e14610256578063445d12171461027257806355b1f24e146102a25780636352211e146102d25761014d565b806301ffc9a71461015257806306fdde0314610182578063081812fc146101a0578063095ea7b3146101d0578063150b7a02146101ec575b600080fd5b61016c60048036038101906101679190611a79565b6104c0565b6040516101799190611eda565b60405180910390f35b61018a610560565b6040516101979190611f10565b60405180910390f35b6101ba60048036038101906101b59190611ae3565b61059d565b6040516101c79190611e73565b60405180910390f35b6101ea60048036038101906101e59190611a3d565b610621565b005b61020660048036038101906102019190611986565b610804565b6040516102139190611ef5565b60405180910390f35b610224610818565b6040516102319190612072565b60405180910390f35b610254600480360381019061024f9190611937565b610825565b005b610270600480360381019061026b9190611937565b61087f565b005b61028c60048036038101906102879190611ae3565b6108e9565b6040516102999190611e73565b60405180910390f35b6102bc60048036038101906102b79190611aa2565b61091c565b6040516102c99190612072565b60405180910390f35b6102ec60048036038101906102e79190611ae3565b610931565b6040516102f99190611e73565b60405180910390f35b61031c600480360381019061031791906118d2565b61096e565b6040516103299190612072565b60405180910390f35b61033a6109b7565b6040516103479190611f10565b60405180910390f35b6103586109f0565b6040516103659190611e73565b60405180910390f35b610376610a14565b6040516103839190611f10565b60405180910390f35b6103a660048036038101906103a19190611a01565b610a51565b005b6103c260048036038101906103bd9190611a3d565b610b8b565b005b6103de60048036038101906103d99190611986565b610cab565b005b6103e8610d07565b6040516103f59190611f10565b60405180910390f35b61041860048036038101906104139190611ae3565b610d40565b6040516104259190611e73565b60405180910390f35b610448600480360381019061044391906118fb565b610d73565b6040516104559190611eda565b60405180910390f35b610478600480360381019061047391906118fb565b610e07565b6040516104859190611eda565b60405180910390f35b6104a860048036038101906104a39190611ae3565b610e36565b6040516104b79392919061208d565b60405180910390f35b60006301ffc9a760e01b7bffffffffffffffffffffffffffffffffffffffffffffffffffffffff1916827bffffffffffffffffffffffffffffffffffffffffffffffffffffffff1916148061055957506380ac58cd60e01b7bffffffffffffffffffffffffffffffffffffffffffffffffffffffff1916827bffffffffffffffffffffffffffffffffffffffffffffffffffffffff1916145b9050919050565b60606040518060400160405280600e81526020017f5032504d61726b6574706c616365000000000000000000000000000000000000815250905090565b600060018054905082106105e6576040517f08c379a00000000000000000000000000000000000000000000000000000000081526004016105dd90612052565b60405180910390fd5b6004600083815260200190815260200160002060009054906101000a900473ffffffffffffffffffffffffffffffffffffffff169050919050565b3373ffffffffffffffffffffffffffffffffffffffff166002600083815260200190815260200160002060009054906101000a900473ffffffffffffffffffffffffffffffffffffffff1673ffffffffffffffffffffffffffffffffffffffff1614806106ec57503373ffffffffffffffffffffffffffffffffffffffff166004600083815260200190815260200160002060009054906101000a900473ffffffffffffffffffffffffffffffffffffffff1673ffffffffffffffffffffffffffffffffffffffff16145b806107b7575060011515600560006002600085815260200190815260200160002060009054906101000a900473ffffffffffffffffffffffffffffffffffffffff1673ffffffffffffffffffffffffffffffffffffffff1673ffffffffffffffffffffffffffffffffffffffff16815260200190815260200160002060003373ffffffffffffffffffffffffffffffffffffffff1673ffffffffffffffffffffffffffffffffffffffff16815260200190815260200160002060009054906101000a900460ff161515145b6107f6576040517f08c379a00000000000000000000000000000000000000000000000000000000081526004016107ed90612012565b60405180910390fd5b6108008282610f39565b5050565b600063150b7a0260e01b9050949350505050565b6000600180549050905090565b61083083838361101d565b61086f576040517f08c379a000000000000000000000000000000000000000000000000000000000815260040161086690611ff2565b60405180910390fd5b61087a8383836112b0565b505050565b61088a83838361101d565b6108c9576040517f08c379a00000000000000000000000000000000000000000000000000000000081526004016108c090611ff2565b60405180910390fd5b6108e483838360405180602001604052806000815250610cab565b505050565b60046020528060005260406000206000915054906101000a900473ffffffffffffffffffffffffffffffffffffffff1681565b600061092a82600033611410565b9050919050565b60006002600083815260200190815260200160002060009054906101000a900473ffffffffffffffffffffffffffffffffffffffff169050919050565b6000600360008373ffffffffffffffffffffffffffffffffffffffff1673ffffffffffffffffffffffffffffffffffffffff168152602001908152602001600020549050919050565b6040518060400160405280600e81526020017f5032504d61726b6574706c61636500000000000000000000000000000000000081525081565b60008054906101000a900473ffffffffffffffffffffffffffffffffffffffff1681565b60606040518060400160405280600681526020017f5032504d4b540000000000000000000000000000000000000000000000000000815250905090565b600180610a5c575060005b905080610a9e576040517f08c379a0000000000000000000000000000000000000000000000000000000008152600401610a9590611f72565b60405180910390fd5b3373ffffffffffffffffffffffffffffffffffffffff168273ffffffffffffffffffffffffffffffffffffffff161415610b0d576040517f08c379a0000000000000000000000000000000000000000000000000000000008152600401610b0490611fd2565b60405180910390fd5b600073ffffffffffffffffffffffffffffffffffffffff168273ffffffffffffffffffffffffffffffffffffffff161415610b7d576040517f08c379a0000000000000000000000000000000000000000000000000000000008152600401610b7490612032565b60405180910390fd5b610b8782826115b3565b5050565b600073ffffffffffffffffffffffffffffffffffffffff168273ffffffffffffffffffffffffffffffffffffffff161415610bfb576040517f08c379a0000000000000000000000000000000000000000000000000000000008152600401610bf290611f32565b60405180910390fd5b3373ffffffffffffffffffffffffffffffffffffffff166002600083815260200190815260200160002060009054906101000a900473ffffffffffffffffffffffffffffffffffffffff1673ffffffffffffffffffffffffffffffffffffffff1614610c9c576040517f08c379a0000000000000000000000000000000000000000000000000000000008152600401610c9390611f92565b60405180910390fd5b610ca73383836112b0565b5050565b610cb684848461101d565b610cf5576040517f08c379a0000000000000000000000000000000000000000000000000000000008152600401610cec90611ff2565b60405180910390fd5b610d01848484846116b0565b50505050565b6040518060400160405280600681526020017f5032504d4b54000000000000000000000000000000000000000000000000000081525081565b60026020528060005260406000206000915054906101000a900473ffffffffffffffffffffffffffffffffffffffff1681565b6000600560008473ffffffffffffffffffffffffffffffffffffffff1673ffffffffffffffffffffffffffffffffffffffff16815260200190815260200160002060008373ffffffffffffffffffffffffffffffffffffffff1673ffffffffffffffffffffffffffffffffffffffff16815260200190815260200160002060009054906101000a900460ff16905092915050565b60056020528160005260406000206020528060005260406000206000915091509054906101000a900460ff1681565b6000606060008060018581548110610e77577f4e487b7100000000000000000000000000000000000000000000000000000000600052603260045260246000fd5b9060005260206000209060030201905080600001549350806001018054610e9d906122b8565b80601f0160208091040260200160405190810160405280929190818152602001828054610ec9906122b8565b8015610f165780601f10610eeb57610100808354040283529160200191610f16565b820191906000526020600020905b815481529060010190602001808311610ef957829003601f168201915b505050505092508060020160009054906101000a900460ff169150509193909250565b816004600083815260200190815260200160002060006101000a81548173ffffffffffffffffffffffffffffffffffffffff021916908373ffffffffffffffffffffffffffffffffffffffff160217905550808273ffffffffffffffffffffffffffffffffffffffff166002600084815260200190815260200160002060009054906101000a900473ffffffffffffffffffffffffffffffffffffffff1673ffffffffffffffffffffffffffffffffffffffff167f8c5be1e5ebec7d5bd14f71427d1e84f3dd0314c0f7b2291e5b200ac8c7c3b92560405160405180910390a45050565b60003073ffffffffffffffffffffffffffffffffffffffff168473ffffffffffffffffffffffffffffffffffffffff16146112a557600073ffffffffffffffffffffffffffffffffffffffff168373ffffffffffffffffffffffffffffffffffffffff1614156110c2576040517f08c379a00000000000000000000000000000000000000000000000000000000081526004016110b990611fb2565b60405180910390fd5b6001805490508210611109576040517f08c379a000000000000000000000000000000000000000000000000000000000815260040161110090612052565b60405180910390fd5b3373ffffffffffffffffffffffffffffffffffffffff168473ffffffffffffffffffffffffffffffffffffffff1614806111a157503373ffffffffffffffffffffffffffffffffffffffff166004600084815260200190815260200160002060009054906101000a900473ffffffffffffffffffffffffffffffffffffffff1673ffffffffffffffffffffffffffffffffffffffff16145b806112655750600560006002600085815260200190815260200160002060009054906101000a900473ffffffffffffffffffffffffffffffffffffffff1673ffffffffffffffffffffffffffffffffffffffff1673ffffffffffffffffffffffffffffffffffffffff16815260200190815260200160002060003373ffffffffffffffffffffffffffffffffffffffff1673ffffffffffffffffffffffffffffffffffffffff16815260200190815260200160002060009054906101000a900460ff165b6112a4576040517f08c379a000000000000000000000000000000000000000000000000000000000815260040161129b90611f52565b60405180910390fd5b5b600190509392505050565b6001600360008573ffffffffffffffffffffffffffffffffffffffff1673ffffffffffffffffffffffffffffffffffffffff168152602001908152602001600020600082825461130091906121ce565b925050819055506001600360008473ffffffffffffffffffffffffffffffffffffffff1673ffffffffffffffffffffffffffffffffffffffff16815260200190815260200160002060008282546113579190612178565b92505081905550816002600083815260200190815260200160002060006101000a81548173ffffffffffffffffffffffffffffffffffffffff021916908373ffffffffffffffffffffffffffffffffffffffff160217905550808273ffffffffffffffffffffffffffffffffffffffff168473ffffffffffffffffffffffffffffffffffffffff167fddf252ad1be2c89b69c2b068fc378daa952ba7f163c4a11628f55a4df523b3ef60405160405180910390a4505050565b600080604051806060016040528060018054905081526020018681526020018515158152509050600181908060018154018082558091505060019003906000526020600020906003020160009091909190915060008201518160000155602082015181600101908051906020019061148992919061170b565b5060408201518160020160006101000a81548160ff02191690831515021790555050506000600180805490506114bf91906121ce565b9050836002600083815260200190815260200160002060006101000a81548173ffffffffffffffffffffffffffffffffffffffff021916908373ffffffffffffffffffffffffffffffffffffffff1602179055506001600360008673ffffffffffffffffffffffffffffffffffffffff1673ffffffffffffffffffffffffffffffffffffffff16815260200190815260200160002060008282546115639190612178565b925050819055507fe9a91a2b7f49bad0e7a8d1ac0ab081ff73bc069ddae67a5a06f20b431d9fef488482888860405161159f9493929190611e8e565b60405180910390a180925050509392505050565b80600560003373ffffffffffffffffffffffffffffffffffffffff1673ffffffffffffffffffffffffffffffffffffffff16815260200190815260200160002060008473ffffffffffffffffffffffffffffffffffffffff1673ffffffffffffffffffffffffffffffffffffffff16815260200190815260200160002060006101000a81548160ff0219169083151502179055508173ffffffffffffffffffffffffffffffffffffffff163373ffffffffffffffffffffffffffffffffffffffff167f17307eab39ab6107e8899845ad3d59bd9653f200f220920489ca2b5937696c31836040516116a49190611eda565b60405180910390a35050565b6116bb84848461101d565b6116fa576040517f08c379a00000000000000000000000000000000000000000000000000000000081526004016116f190611ff2565b60405180910390fd5b6117058484846112b0565b50505050565b828054611717906122b8565b90600052602060002090601f0160209004810192826117395760008555611780565b82601f1061175257805160ff1916838001178555611780565b82800160010185558215611780579182015b8281111561177f578251825591602001919060010190611764565b5b50905061178d9190611791565b5090565b5b808211156117aa576000816000905550600101611792565b5090565b60006117c16117bc846120fc565b6120cb565b9050828152602081018484840111156117d957600080fd5b6117e4848285612276565b509392505050565b60006117ff6117fa8461212c565b6120cb565b90508281526020810184848401111561181757600080fd5b611822848285612276565b509392505050565b60008135905061183981612388565b92915050565b60008135905061184e8161239f565b92915050565b600081359050611863816123b6565b92915050565b600082601f83011261187a57600080fd5b813561188a8482602086016117ae565b91505092915050565b600082601f8301126118a457600080fd5b81356118b48482602086016117ec565b91505092915050565b6000813590506118cc816123cd565b92915050565b6000602082840312156118e457600080fd5b60006118f28482850161182a565b91505092915050565b6000806040838503121561190e57600080fd5b600061191c8582860161182a565b925050602061192d8582860161182a565b9150509250929050565b60008060006060848603121561194c57600080fd5b600061195a8682870161182a565b935050602061196b8682870161182a565b925050604061197c868287016118bd565b9150509250925092565b6000806000806080858703121561199c57600080fd5b60006119aa8782880161182a565b94505060206119bb8782880161182a565b93505060406119cc878288016118bd565b925050606085013567ffffffffffffffff8111156119e957600080fd5b6119f587828801611869565b91505092959194509250565b60008060408385031215611a1457600080fd5b6000611a228582860161182a565b9250506020611a338582860161183f565b9150509250929050565b60008060408385031215611a5057600080fd5b6000611a5e8582860161182a565b9250506020611a6f858286016118bd565b9150509250929050565b600060208284031215611a8b57600080fd5b6000611a9984828501611854565b91505092915050565b600060208284031215611ab457600080fd5b600082013567ffffffffffffffff811115611ace57600080fd5b611ada84828501611893565b91505092915050565b600060208284031215611af557600080fd5b6000611b03848285016118bd565b91505092915050565b611b1581612202565b82525050565b611b2481612214565b82525050565b611b3381612220565b82525050565b6000611b448261215c565b611b4e8185612167565b9350611b5e818560208601612285565b611b6781612377565b840191505092915050565b6000611b7f601683612167565b91507f416464726573732043616e6e6f74206265204e554c4c000000000000000000006000830152602082019050919050565b6000611bbf603883612167565b91507f4d6573736167652e53656e646572206d75737420626520546f6b656e204f776e60008301527f65722c206f7220417070726f766564206279204f776e657200000000000000006020830152604082019050919050565b6000611c25601883612167565b91507f4d75737420456e7465722054727565206f722046616c736500000000000000006000830152602082019050919050565b6000611c65601483612167565b91507f53656e646572204d757374206265204f776e65720000000000000000000000006000830152602082019050919050565b6000611ca5601d83612167565b91507f43616e6e6f742053656e6420746f2061205a65726f20416464726573730000006000830152602082019050919050565b6000611ce5601783612167565b91507f43616e6e6f7420617070726f766520796f757273656c660000000000000000006000830152602082019050919050565b6000611d25603083612167565b91507f5472616e73666572206d7573742062652066726f6d206f776e6572206f72206160008301527f7070726f766564206279206f776e6572000000000000000000000000000000006020830152604082019050919050565b6000611d8b602283612167565b91507f4d6573736167652e53656e646572206d75737420626520546f6b656e204f776e60008301527f65720000000000000000000000000000000000000000000000000000000000006020830152604082019050919050565b6000611df1601d83612167565b91507f43616e6e6f7420417070726f76652061205a65726f20416464726573730000006000830152602082019050919050565b6000611e31601583612167565b91507f4d75737420626520612076616c696420417373657400000000000000000000006000830152602082019050919050565b611e6d8161226c565b82525050565b6000602082019050611e886000830184611b0c565b92915050565b6000608082019050611ea36000830187611b0c565b611eb06020830186611e64565b8181036040830152611ec28185611b39565b9050611ed16060830184611b1b565b95945050505050565b6000602082019050611eef6000830184611b1b565b92915050565b6000602082019050611f0a6000830184611b2a565b92915050565b60006020820190508181036000830152611f2a8184611b39565b905092915050565b60006020820190508181036000830152611f4b81611b72565b9050919050565b60006020820190508181036000830152611f6b81611bb2565b9050919050565b60006020820190508181036000830152611f8b81611c18565b9050919050565b60006020820190508181036000830152611fab81611c58565b9050919050565b60006020820190508181036000830152611fcb81611c98565b9050919050565b60006020820190508181036000830152611feb81611cd8565b9050919050565b6000602082019050818103600083015261200b81611d18565b9050919050565b6000602082019050818103600083015261202b81611d7e565b9050919050565b6000602082019050818103600083015261204b81611de4565b9050919050565b6000602082019050818103600083015261206b81611e24565b9050919050565b60006020820190506120876000830184611e64565b92915050565b60006060820190506120a26000830186611e64565b81810360208301526120b48185611b39565b90506120c36040830184611b1b565b949350505050565b6000604051905081810181811067ffffffffffffffff821117156120f2576120f1612348565b5b8060405250919050565b600067ffffffffffffffff82111561211757612116612348565b5b601f19601f8301169050602081019050919050565b600067ffffffffffffffff82111561214757612146612348565b5b601f19601f8301169050602081019050919050565b600081519050919050565b600082825260208201905092915050565b60006121838261226c565b915061218e8361226c565b9250827fffffffffffffffffffffffffffffffffffffffffffffffffffffffffffffffff038211156121c3576121c26122ea565b5b828201905092915050565b60006121d98261226c565b91506121e48361226c565b9250828210156121f7576121f66122ea565b5b828203905092915050565b600061220d8261224c565b9050919050565b60008115159050919050565b60007fffffffff0000000000000000000000000000000000000000000000000000000082169050919050565b600073ffffffffffffffffffffffffffffffffffffffff82169050919050565b6000819050919050565b82818337600083830152505050565b60005b838110156122a3578082015181840152602081019050612288565b838111156122b2576000848401525b50505050565b600060028204905060018216806122d057607f821691505b602082108114156122e4576122e3612319565b5b50919050565b7f4e487b7100000000000000000000000000000000000000000000000000000000600052601160045260246000fd5b7f4e487b7100000000000000000000000000000000000000000000000000000000600052602260045260246000fd5b7f4e487b7100000000000000000000000000000000000000000000000000000000600052604160045260246000fd5b6000601f19601f8301169050919050565b61239181612202565b811461239c57600080fd5b50565b6123a881612214565b81146123b357600080fd5b50565b6123bf81612220565b81146123ca57600080fd5b50565b6123d68161226c565b81146123e157600080fd5b5056fea264697066735822122046cc669c7b6e2f102c3a54f8454f9eaf833f722711e2490b1cde3fa2f44272b964736f6c63430008000033",
  "immutableReferences": {},
  "source": "//SPDX-License-Identifier: UNLICENSED\npragma solidity ^0.8.0;\n\nimport \"./IERC721.sol\";\nimport \"./IERC721Receiver.sol\";\nimport \"./ERC721Holder.sol\";\nimport \"./Ownable.sol\";\n\ncontract AssetContract is IERC721, Ownable, ERC721Holder{\n    \n    //Names of dApp and token symbol\n    string public constant dAppName = \"P2PMarketplace\";\n    string public constant globalTokenSymbol = \"P2PMKT\";\n\n    //Values used to complete ERC721 compatability check before safeTransfer functions\n    bytes4 internal constant IERC721ReturnValue = bytes4(keccak256(\"onERC721Received(address,address,uint256,bytes)\"));\n    bytes4 private constant _INTERFACE_ID_ERC721 = 0x80ac58cd;\n    bytes4 private constant _INTERFACE_ID_ERC165 = 0x01ffc9a7;\n\n    function supportsInterface(bytes4 _interfaceId) external pure returns(bool){\n        return (_interfaceId == _INTERFACE_ID_ERC165 || _interfaceId == _INTERFACE_ID_ERC721);\n    }\n\n    constructor() {\n        owner = msg.sender;\n    }\n    \n    //Structure that stores token information for each Asset\n    struct Asset {\n        uint256 assetId;\n        string metadataURI;\n        bool currentlyBorrowed;  \n    }\n    \n    Asset[] itemsForOffer;\n\n    //Mapping that links owner to Asset and Assets\n    mapping (uint256 => address) public AssetIndextoOwner;\n    mapping (address => uint256) AssetOwnershipCount;\n\n    /** \n    * Mapping to be ERC721 Compliant\n    */\n    mapping (uint256 => address) public AssetIndexToApproved;\n    //Double Mapping for Approve All Tokens Functions (MyAddress => OperatorAddress => True/False) \n    mapping (address => mapping (address => bool)) public  _operatorApprovals;\n\n    \n    event NewAssetCreation(address owner, uint256 newAssetId, string metadataURI, bool currentlyBorrowed);\n\n    function balanceOf(address owner) external override view returns (uint256){\n        return AssetOwnershipCount[owner];\n    }\n\n    /*\n     * @dev Creates new Asset Token.\n     *\n     * metadataURI is the value of real world Asset\n     */ \n    function createAsset(string memory metadataURI) public returns (uint256){\n\n        //Create new Asset, send it to msg.sender\n        return _createAsset(metadataURI, false, msg.sender);\n    }\n\n    /*\n     * @dev Returns the total number of tokens in circulation.\n     */\n    function totalSupply() external view override returns (uint256){\n        return itemsForOffer.length;\n    }\n\n    /*\n     * @dev Returns the name of the token.\n     */\n    function name() external pure override returns (string memory){\n        return dAppName;\n    }\n\n    /*\n     * @dev Returns the symbol of the token.\n     */\n    function symbol() external pure override returns (string memory){\n        return globalTokenSymbol;\n    }\n\n    /**\n     * @dev Returns the owner of the `tokenId` token.\n     *\n     * Requirements:\n     *\n     * - `tokenId` must exist.\n     */\n    function ownerOf(uint256 _tokenId) external view override returns (address){\n        return AssetIndextoOwner[_tokenId];\n    }\n    \n    //Get Asset Info Function\n    //Input Asset and get out all cat details\n    function getAssetInfo(uint256 _index) external view \n    returns (\n        uint256 assetId, \n        string memory metadataURI, \n        bool currentlyBorrowed)\n            {\n                Asset storage AssetInfo = itemsForOffer[_index];\n\n                assetId = AssetInfo.assetId;\n                metadataURI = string(AssetInfo.metadataURI);\n                currentlyBorrowed = bool(AssetInfo.currentlyBorrowed);\n            }\n\n     /* @dev Transfers `tokenId` token from `msg.sender` to `to`.\n     * Requirements:\n     * - `to` cannot be the zero address.\n     * - `to` can not be the contract address.\n     * - `tokenId` token must be owned by `msg.sender`.\n     * Emits a {Transfer} event.\n     */\n    function transfer(address to, uint256 tokenId) override external{\n        require(to != address(0x0),'Address Cannot be NULL');\n        require(AssetIndextoOwner[tokenId] == msg.sender, 'Sender Must be Owner');\n    \n        \n        _transfer(msg.sender, to, tokenId);\n    }\n\n    // Internal function which will be used by transfer to swap token ownership\n    function _transfer(address _from, address _to, uint256 _tokenId) internal {\n\n        AssetOwnershipCount[_from] -= 1;\n        AssetOwnershipCount[_to] += 1;\n        AssetIndextoOwner[_tokenId] = _to;\n\n        emit Transfer(_from, _to, _tokenId);\n    }\n\n\n// CREATE NEW Asset FUNCTION \n    function _createAsset(string memory _metadataURI, bool _currentlyBorrowed, address _owner) internal returns(uint256){\n        \n        Asset memory _Asset = Asset({\n            assetId: itemsForOffer.length,\n            metadataURI: string(_metadataURI),\n            currentlyBorrowed: bool(_currentlyBorrowed)\n        });\n\n        itemsForOffer.push(_Asset);\n\n        uint256 newAssetId = (itemsForOffer.length)-1;\n\n        AssetIndextoOwner[newAssetId] = _owner;\n        AssetOwnershipCount[_owner] += 1;\n\n        emit NewAssetCreation(_owner, newAssetId, _metadataURI, _currentlyBorrowed);\n\n        return newAssetId;\n    }\n\n    /** \n    * Safetransfer functions that check the address can recieve ERC721 tokens before sending\n    * Uses function _checkERC721Support to check for receivability\n    * Ensures the address can handle token but not that it is correct address\n    */\n    function safeTransferFrom(address _from, address _to, uint256 _tokenId, bytes memory data) override public{\n        require(_checkTransferParameters( _from,  _to, _tokenId), \"Transfer must be from owner or approved by owner\");\n        _safeTransfer(_from, _to, _tokenId, data);\n    \n    }\n\n    function safeTransferFrom(address _from, address _to, uint256 _tokenId) override external{\n       require(_checkTransferParameters( _from,  _to, _tokenId), \"Transfer must be from owner or approved by owner\");\n       safeTransferFrom(_from, _to, _tokenId, \"\");\n    }\n\n\n    function transferFrom(address _from, address _to, uint256 _tokenId) override external{\n        require(_checkTransferParameters( _from,  _to, _tokenId), \"Transfer must be from owner or approved by owner\");\n        _transfer(_from, _to, _tokenId);\n    }\n\n    function _safeTransfer(address _from, address _to, uint256 _tokenId, bytes memory _data) internal {\n        require(_checkTransferParameters( _from,  _to, _tokenId), \"Transfer must be from owner or approved by owner\");\n        _transfer(_from, _to, _tokenId);\n    }\n\n    /**\n    * Function to check that address is able to receive ERC721 token address\n    * Utilizes IERC721Receiver.sol to complete check vs IERC721ReturnValue\n     */\n    function _checkERC721Support(address _from, address _to, uint256 _tokenId, bytes memory _data) internal returns(bool){\n        if( !_isContract(_to) ){\n            return true;\n        }\n        \n        //Call onERC721Received at _to address\n        bytes4 returnData = IERC721Receiver(_to).onERC721Received(msg.sender, _from, _tokenId, _data);\n        \n        //Check that return value is equal to ERC721 token standards\n        return returnData == IERC721ReturnValue;\n    }\n\n    function _isContract(address _to) view internal returns(bool){\n            uint256 size;\n            assembly{\n                size := extcodesize(_to)\n            }\n            return size > 0;\n    }\n\n    /*\n     * @dev Checks Owner of Token, Address is not (0x0), and tokenId is valid.\n     * Returns true if they all are valid.\n     * Used in transfer functions to ensure that parameters are met.\n     */\n    function _checkTransferParameters(address _from, address _to, uint256 _tokenId) internal view returns(bool){\n        if(_from != address(this)){\n        require(_to != address (0x0), \"Cannot Send to a Zero Address\");\n        require((_tokenId < itemsForOffer.length), 'Must be a valid Asset');\n        require(_from == msg.sender || \n                AssetIndexToApproved[_tokenId] == msg.sender || \n                _operatorApprovals[AssetIndextoOwner[_tokenId]][msg.sender],\n                \"Message.Sender must be Token Owner, or Approved by Owner\");\n        }\n\n        return true;\n    }\n\n    /*\n     * @dev Checks the owner of a given token.\n     * Returns true if they are the owner.\n     * Used in transfer functions to ensure that msg.sender is owner of token \n     */\n    function _checkOwnership(address _toCheck, uint256 _tokenId) internal view returns(bool){\n        if(_toCheck != address(this)){\n        require(_toCheck == AssetIndextoOwner[_tokenId], \"Message.Sender must be Token Owner\");\n        }\n        return true;\n    }\n\n    /**\n    *\n    * Required Mapping to be ERC721 compliant\n    * Not used in this contract as design is structured different\n    *\n     */\n    function approve(address _approved, uint256 _tokenId) override external{\n        require(\n            AssetIndextoOwner[_tokenId] == msg.sender || \n            AssetIndexToApproved[_tokenId] == msg.sender || \n            _operatorApprovals[AssetIndextoOwner[_tokenId]][msg.sender] == true, \"Message.Sender must be Token Owner\");\n        \n        _approve(_approved, _tokenId);\n    }\n\n    function _approve(address _approved, uint256 _tokenId) internal{\n        \n        AssetIndexToApproved[_tokenId] = _approved;\n        \n        emit Approval(AssetIndextoOwner[_tokenId], _approved, _tokenId);\n    }\n\n    function setApprovalForAll(address _operator, bool _approved) override external{\n        require(_approved = true || false, \"Must Enter True or False\");\n        require(_operator != msg.sender, \"Cannot approve yourself\");\n        require(_operator != address (0x0), \"Cannot Approve a Zero Address\");\n        \n        _approvalForAll(_operator, _approved);\n    }\n\n    function _approvalForAll(address _operator, bool _approved) internal {\n        _operatorApprovals[msg.sender][_operator] = _approved;\n\n        emit ApprovalForAll(msg.sender, _operator, _approved);\n    }\n\n    function getApproved(uint256 _tokenId) external override view returns (address){\n        require((_tokenId < itemsForOffer.length), 'Must be a valid Asset');\n\n        return (AssetIndexToApproved[_tokenId]);\n    }\n\n    function isApprovedForAll(address _owner, address _operator) external override view returns (bool){\n        return _operatorApprovals[_owner][_operator];\n    }\n}    \n",
  "sourcePath": "/Users/Kaiju/Desktop/Courses/HackFS/HackFS_2021/contracts/AssetContract.sol",
  "compiler": {
    "name": "solc",
    "version": "0.8.0+commit.c7dfd78e.Emscripten.clang"
  },
  "schemaVersion": "3.4.1",
  "updatedAt": "2021-08-13T21:22:40.782Z",
  "networkType": "ethereum",
  "devdoc": {
    "kind": "dev",
    "methods": {
      "balanceOf(address)": {
        "details": "Returns the number of tokens in ``owner``'s account."
      },
      "getApproved(uint256)": {
        "details": "Throws if `_tokenId` is not a valid NFT.",
        "params": {
          "_tokenId": "The NFT to find the approved address for"
        },
        "returns": {
          "_0": "The approved address for this NFT, or the zero address if there is none"
        }
      },
      "isApprovedForAll(address,address)": {
        "params": {
          "_operator": "The address that acts on behalf of the owner",
          "_owner": "The address that owns the NFTs"
        },
        "returns": {
          "_0": "True if `_operator` is an approved operator for `_owner`, false otherwise"
        }
      },
      "onERC721Received(address,address,uint256,bytes)": {
        "details": "See {IERC721Receiver-onERC721Received}. Always returns `IERC721Receiver.onERC721Received.selector`."
      },
      "ownerOf(uint256)": {
        "details": "Returns the owner of the `tokenId` token. Requirements: - `tokenId` must exist."
      },
      "safeTransferFrom(address,address,uint256)": {
        "details": "This works identically to the other function with an extra data parameter,  except this function just sets data to \"\".",
        "params": {
          "_from": "The current owner of the NFT",
          "_to": "The new owner",
          "_tokenId": "The NFT to transfer"
        }
      },
      "setApprovalForAll(address,bool)": {
        "details": "Emits the ApprovalForAll event. The contract MUST allow  multiple operators per owner.",
        "params": {
          "_approved": "True if the operator is approved, false to revoke approval",
          "_operator": "Address to add to the set of authorized operators"
        }
      },
      "transferFrom(address,address,uint256)": {
        "details": "Throws unless `msg.sender` is the current owner, an authorized  operator, or the approved address for this NFT. Throws if `_from` is  not the current owner. Throws if `_to` is the zero address. Throws if  `_tokenId` is not a valid NFT.",
        "params": {
          "_from": "The current owner of the NFT",
          "_to": "The new owner",
          "_tokenId": "The NFT to transfer"
        }
      }
    },
    "version": 1
  },
  "userdoc": {
    "kind": "user",
    "methods": {
      "AssetIndexToApproved(uint256)": {
        "notice": "Mapping to be ERC721 Compliant"
      },
      "approve(address,uint256)": {
        "notice": "Required Mapping to be ERC721 compliant Not used in this contract as design is structured different"
      },
      "getApproved(uint256)": {
        "notice": "Get the approved address for a single NFT"
      },
      "isApprovedForAll(address,address)": {
        "notice": "Query if an address is an authorized operator for another address"
      },
      "safeTransferFrom(address,address,uint256)": {
        "notice": "Transfers the ownership of an NFT from one address to another address"
      },
      "safeTransferFrom(address,address,uint256,bytes)": {
        "notice": "Safetransfer functions that check the address can recieve ERC721 tokens before sending Uses function _checkERC721Support to check for receivability Ensures the address can handle token but not that it is correct address"
      },
      "setApprovalForAll(address,bool)": {
        "notice": "Enable or disable approval for a third party (\"operator\") to manage  all of `msg.sender`'s assets"
      },
      "transferFrom(address,address,uint256)": {
        "notice": "Transfer ownership of an NFT -- THE CALLER IS RESPONSIBLE  TO CONFIRM THAT `_to` IS CAPABLE OF RECEIVING NFTS OR ELSE  THEY MAY BE PERMANENTLY LOST"
      }
    },
    "version": 1
  }
}