{
  "contractName": "AssetMarketplace",
  "abi": [
    {
      "inputs": [],
      "payable": false,
      "stateMutability": "nonpayable",
      "type": "constructor"
    },
    {
      "anonymous": false,
      "inputs": [
        {
          "indexed": false,
          "internalType": "string",
          "name": "TxType",
          "type": "string"
        },
        {
          "indexed": false,
          "internalType": "address",
          "name": "owner",
          "type": "address"
        },
        {
          "indexed": false,
          "internalType": "uint256",
          "name": "tokenId",
          "type": "uint256"
        }
      ],
      "name": "MarketTransaction",
      "type": "event"
    },
    {
      "constant": true,
      "inputs": [],
      "name": "owner",
      "outputs": [
        {
          "internalType": "address",
          "name": "",
          "type": "address"
        }
      ],
      "payable": false,
      "stateMutability": "view",
      "type": "function"
    },
    {
      "constant": false,
      "inputs": [
        {
          "internalType": "address",
          "name": "_AssetContractAddress",
          "type": "address"
        }
      ],
      "name": "setAssetContract",
      "outputs": [],
      "payable": false,
      "stateMutability": "nonpayable",
      "type": "function"
    },
    {
      "constant": true,
      "inputs": [
        {
          "internalType": "uint256",
          "name": "_tokenId",
          "type": "uint256"
        }
      ],
      "name": "getOffer",
      "outputs": [
        {
          "internalType": "address",
          "name": "lender",
          "type": "address"
        },
        {
          "internalType": "uint256",
          "name": "dollarsPerPeriod",
          "type": "uint256"
        },
        {
          "internalType": "uint256",
          "name": "durationOfLend",
          "type": "uint256"
        },
        {
          "internalType": "uint256",
          "name": "index",
          "type": "uint256"
        },
        {
          "internalType": "uint256",
          "name": "tokenId",
          "type": "uint256"
        },
        {
          "internalType": "bool",
          "name": "activeOffering",
          "type": "bool"
        },
        {
          "internalType": "bool",
          "name": "activelyBorrowed",
          "type": "bool"
        }
      ],
      "payable": false,
      "stateMutability": "view",
      "type": "function"
    },
    {
      "constant": true,
      "inputs": [],
      "name": "getAllTokenOnOffer",
      "outputs": [
        {
          "internalType": "uint256[]",
          "name": "listOfOffers",
          "type": "uint256[]"
        }
      ],
      "payable": false,
      "stateMutability": "view",
      "type": "function"
    },
    {
      "constant": false,
      "inputs": [
        {
          "internalType": "uint256",
          "name": "_durationOfLend",
          "type": "uint256"
        },
        {
          "internalType": "uint256",
          "name": "_dollarsPerPeriod",
          "type": "uint256"
        },
        {
          "internalType": "uint256",
          "name": "_tokenId",
          "type": "uint256"
        }
      ],
      "name": "setOffer",
      "outputs": [],
      "payable": false,
      "stateMutability": "nonpayable",
      "type": "function"
    },
    {
      "constant": false,
      "inputs": [
        {
          "internalType": "uint256",
          "name": "_tokenId",
          "type": "uint256"
        }
      ],
      "name": "removeOffer",
      "outputs": [],
      "payable": false,
      "stateMutability": "nonpayable",
      "type": "function"
    },
    {
      "constant": false,
      "inputs": [
        {
          "internalType": "uint256",
          "name": "_tokenId",
          "type": "uint256"
        }
      ],
      "name": "lendAsset",
      "outputs": [],
      "payable": true,
      "stateMutability": "payable",
      "type": "function"
    },
    {
      "constant": false,
      "inputs": [
        {
          "internalType": "uint256",
          "name": "_tokenId",
          "type": "uint256"
        }
      ],
      "name": "returnAsset",
      "outputs": [],
      "payable": false,
      "stateMutability": "nonpayable",
      "type": "function"
    },
    {
      "constant": false,
      "inputs": [
        {
          "internalType": "uint256",
          "name": "amountToTransfer",
          "type": "uint256"
        }
      ],
      "name": "Withdraw",
      "outputs": [],
      "payable": false,
      "stateMutability": "nonpayable",
      "type": "function"
    }
  ],
  "bytecode": "0x608060405234801561001057600080fd5b50336000806101000a81548173ffffffffffffffffffffffffffffffffffffffff021916908373ffffffffffffffffffffffffffffffffffffffff160217905550336000806101000a81548173ffffffffffffffffffffffffffffffffffffffff021916908373ffffffffffffffffffffffffffffffffffffffff1602179055506119b8806100a06000396000f3fe6080604052600436106100865760003560e01c80635b6b431d116100595780635b6b431d146102065780635eca592b146102415780638da5cb5b146102ad5780638ee652501461030457806395a0f9c71461033f57610086565b80630a71a8c31461008b5780631760705f146100b95780634579268a1461010a5780635a525d83146101b7575b600080fd5b6100b7600480360360208110156100a157600080fd5b810190808035906020019092919050505061037a565b005b3480156100c557600080fd5b50610108600480360360208110156100dc57600080fd5b81019080803573ffffffffffffffffffffffffffffffffffffffff1690602001909291905050506107a0565b005b34801561011657600080fd5b506101436004803603602081101561012d57600080fd5b810190808035906020019092919050505061083d565b604051808873ffffffffffffffffffffffffffffffffffffffff1673ffffffffffffffffffffffffffffffffffffffff168152602001878152602001868152602001858152602001848152602001831515151581526020018215151515815260200197505050505050505060405180910390f35b3480156101c357600080fd5b50610204600480360360608110156101da57600080fd5b810190808035906020019092919080359060200190929190803590602001909291905050506109b8565b005b34801561021257600080fd5b5061023f6004803603602081101561022957600080fd5b810190808035906020019092919050505061100f565b005b34801561024d57600080fd5b506102566110b2565b6040518080602001828103825283818151815260200191508051906020019060200280838360005b8381101561029957808201518184015260208101905061027e565b505050509050019250505060405180910390f35b3480156102b957600080fd5b506102c26111cf565b604051808273ffffffffffffffffffffffffffffffffffffffff1673ffffffffffffffffffffffffffffffffffffffff16815260200191505060405180910390f35b34801561031057600080fd5b5061033d6004803603602081101561032757600080fd5b81019080803590602001909291905050506111f4565b005b34801561034b57600080fd5b506103786004803603602081101561036257600080fd5b8101908080359060200190929190505050611511565b005b600115156003600083815260200190815260200160002060050160009054906101000a900460ff16151514610417576040517f08c379a00000000000000000000000000000000000000000000000000000000081526004018080602001828103825260168152602001807f4173736574206973206e6f7420617661696c61626c650000000000000000000081525060200191505060405180910390fd5b600360008281526020019081526020016000206003015434116104a2576040517f08c379a00000000000000000000000000000000000000000000000000000000081526004018080602001828103825260158152602001807f4d6573736167652076616c756520746f6f206c6f77000000000000000000000081525060200191505060405180910390fd5b600015156003600083815260200190815260200160002060050160019054906101000a900460ff1615151461053f576040517f08c379a000000000000000000000000000000000000000000000000000000000815260040180806020018281038252601b8152602001807f41737365742069732063757272656e746c7920426f72726f776564000000000081525060200191505060405180910390fd5b60006004805490509050336005600083815260200190815260200160002060000160006101000a81548173ffffffffffffffffffffffffffffffffffffffff021916908373ffffffffffffffffffffffffffffffffffffffff16021790555034600560008381526020019081526020016000206001018190555060016005600083815260200190815260200160002060020160006101000a81548160ff021916908315150217905550600460056000838152602001908152602001600020908060018154018082558091505090600182039060005260206000209060030201600090919290919091506000820160009054906101000a900473ffffffffffffffffffffffffffffffffffffffff168160000160006101000a81548173ffffffffffffffffffffffffffffffffffffffff021916908373ffffffffffffffffffffffffffffffffffffffff160217905550600182015481600101556002820160009054906101000a900460ff168160020160006101000a81548160ff02191690831515021790555050505060016003600084815260200190815260200160002060050160016101000a81548160ff0219169083151502179055507fd99e4fad9ad6313b1feb588fa8e605e3a9873172f2024330c35dd2b4041a4386338360405180806020018473ffffffffffffffffffffffffffffffffffffffff1673ffffffffffffffffffffffffffffffffffffffff1681526020018381526020018281038252600a8152602001807f4173736574204c656e7400000000000000000000000000000000000000000000815250602001935050505060405180910390a15050565b6000809054906101000a900473ffffffffffffffffffffffffffffffffffffffff1673ffffffffffffffffffffffffffffffffffffffff163373ffffffffffffffffffffffffffffffffffffffff16146107f957600080fd5b80600160006101000a81548173ffffffffffffffffffffffffffffffffffffffff021916908373ffffffffffffffffffffffffffffffffffffffff16021790555050565b60008060008060008060006003600089815260200190815260200160002060050160009054906101000a900460ff166108c1576040517f08c379a00000000000000000000000000000000000000000000000000000000081526004018080602001828103825260218152602001806119636021913960400191505060405180910390fd5b6003600089815260200190815260200160002060000160009054906101000a900473ffffffffffffffffffffffffffffffffffffffff16600360008a815260200190815260200160002060030154600360008b815260200190815260200160002060020154600360008c815260200190815260200160002060010154600360008d815260200190815260200160002060040154600360008e815260200190815260200160002060050160009054906101000a900460ff16600360008f815260200190815260200160002060050160019054906101000a900460ff168696509650965096509650965096509650919395979092949650565b3373ffffffffffffffffffffffffffffffffffffffff16600160009054906101000a900473ffffffffffffffffffffffffffffffffffffffff1673ffffffffffffffffffffffffffffffffffffffff16636352211e836040518263ffffffff1660e01b81526004018082815260200191505060206040518083038186803b158015610a4257600080fd5b505afa158015610a56573d6000803e3d6000fd5b505050506040513d6020811015610a6c57600080fd5b810190808051906020019092919050505073ffffffffffffffffffffffffffffffffffffffff1614610ae9576040517f08c379a00000000000000000000000000000000000000000000000000000000081526004018080602001828103825260298152602001806118ca6029913960400191505060405180910390fd5b600115156003600083815260200190815260200160002060050160009054906101000a900460ff1615151415610b6a576040517f08c379a000000000000000000000000000000000000000000000000000000000815260040180806020018281038252602981526020018061193a6029913960400191505060405180910390fd5b600015156003600083815260200190815260200160002060050160009054906101000a900460ff16151514610dea57336003600083815260200190815260200160002060000160006101000a81548173ffffffffffffffffffffffffffffffffffffffff021916908373ffffffffffffffffffffffffffffffffffffffff160217905550826003600083815260200190815260200160002060020181905550816003600083815260200190815260200160002060030181905550600280549050600360008381526020019081526020016000206001018190555080600360008381526020019081526020016000206004018190555060006003600083815260200190815260200160002060050160006101000a81548160ff02191690831515021790555060006003600083815260200190815260200160002060050160016101000a81548160ff021916908315150217905550600260036000838152602001908152602001600020908060018154018082558091505090600182039060005260206000209060060201600090919290919091506000820160009054906101000a900473ffffffffffffffffffffffffffffffffffffffff168160000160006101000a81548173ffffffffffffffffffffffffffffffffffffffff021916908373ffffffffffffffffffffffffffffffffffffffff160217905550600182015481600101556002820154816002015560038201548160030155600482015481600401556005820160009054906101000a900460ff168160050160006101000a81548160ff0219169083151502179055506005820160019054906101000a900460ff168160050160016101000a81548160ff0219169083151502179055505050505b600160009054906101000a900473ffffffffffffffffffffffffffffffffffffffff1673ffffffffffffffffffffffffffffffffffffffff166342842e0e33600160009054906101000a900473ffffffffffffffffffffffffffffffffffffffff16846040518463ffffffff1660e01b8152600401808473ffffffffffffffffffffffffffffffffffffffff1673ffffffffffffffffffffffffffffffffffffffff1681526020018373ffffffffffffffffffffffffffffffffffffffff1673ffffffffffffffffffffffffffffffffffffffff1681526020018281526020019350505050600060405180830381600087803b158015610ee957600080fd5b505af1158015610efd573d6000803e3d6000fd5b5050505060016003600083815260200190815260200160002060050160006101000a81548160ff0219169083151502179055508260036000838152602001908152602001600020600201819055508160036000838152602001908152602001600020600301819055507fd99e4fad9ad6313b1feb588fa8e605e3a9873172f2024330c35dd2b4041a4386338260405180806020018473ffffffffffffffffffffffffffffffffffffffff1673ffffffffffffffffffffffffffffffffffffffff1681526020018381526020018281038252601b8152602001807f417373657420417661696c61626c6520666f72204c656e64696e670000000000815250602001935050505060405180910390a1505050565b6000809054906101000a900473ffffffffffffffffffffffffffffffffffffffff1673ffffffffffffffffffffffffffffffffffffffff163373ffffffffffffffffffffffffffffffffffffffff161461106857600080fd5b3373ffffffffffffffffffffffffffffffffffffffff166108fc829081150290604051600060405180830381858888f193505050501580156110ae573d6000803e3d6000fd5b5050565b606060006002805490509050606060008090505b828110156111c657600281815481106110db57fe5b906000526020600020906006020160050160009054906101000a900460ff1680156111355750600015156002828154811061111257fe5b906000526020600020906006020160050160019054906101000a900460ff161515145b156111b95760008251141561117d576002818154811061115157fe5b9060005260206000209060060201600401548260008151811061117057fe5b6020026020010181815250505b6002818154811061118a57fe5b906000526020600020906006020160040154826001845103815181106111ac57fe5b6020026020010181815250505b80806001019150506110c6565b50809250505090565b6000809054906101000a900473ffffffffffffffffffffffffffffffffffffffff1681565b3373ffffffffffffffffffffffffffffffffffffffff166005600083815260200190815260200160002060000160009054906101000a900473ffffffffffffffffffffffffffffffffffffffff1673ffffffffffffffffffffffffffffffffffffffff16146112ae576040517f08c379a00000000000000000000000000000000000000000000000000000000081526004018080602001828103825260258152602001806119156025913960400191505060405180910390fd5b600115156003600083815260200190815260200160002060050160019054906101000a900460ff1615151461134b576040517f08c379a000000000000000000000000000000000000000000000000000000000815260040180806020018281038252601f8152602001807f4173736574206973206e6f742063757272656e746c7920426f72726f7765640081525060200191505060405180910390fd5b600015156003600083815260200190815260200160002060050160019054906101000a9050505060016005600083815260200190815260200160002060020160006101000a81548160ff0219169083151502179055506003600082815260200190815260200160002060000160009054906101000a900473ffffffffffffffffffffffffffffffffffffffff1673ffffffffffffffffffffffffffffffffffffffff166108fc60036000848152602001908152602001600020600301549081150290604051600060405180830381858888f19350505050158015611433573d6000803e3d6000fd5b507fd99e4fad9ad6313b1feb588fa8e605e3a9873172f2024330c35dd2b4041a43866003600083815260200190815260200160002060000160009054906101000a900473ffffffffffffffffffffffffffffffffffffffff168260405180806020018473ffffffffffffffffffffffffffffffffffffffff1673ffffffffffffffffffffffffffffffffffffffff1681526020018381526020018281038252600a8152602001807f4c656e6420417373657400000000000000000000000000000000000000000000815250602001935050505060405180910390a150565b3373ffffffffffffffffffffffffffffffffffffffff166003600083815260200190815260200160002060000160009054906101000a900473ffffffffffffffffffffffffffffffffffffffff1673ffffffffffffffffffffffffffffffffffffffff16146115cb576040517f08c379a00000000000000000000000000000000000000000000000000000000081526004018080602001828103825260228152602001806118f36022913960400191505060405180910390fd5b600015156003600083815260200190815260200160002060050160019054906101000a900460ff16151514611668576040517f08c379a000000000000000000000000000000000000000000000000000000000815260040180806020018281038252601b8152602001807f41737365742069732063757272656e746c7920626f72726f776564000000000081525060200191505060405180910390fd5b60006002828154811061167757fe5b906000526020600020906006020160050160006101000a81548160ff021916908315150217905550600160009054906101000a900473ffffffffffffffffffffffffffffffffffffffff1673ffffffffffffffffffffffffffffffffffffffff166342842e0e600160009054906101000a900473ffffffffffffffffffffffffffffffffffffffff166003600085815260200190815260200160002060000160009054906101000a900473ffffffffffffffffffffffffffffffffffffffff16846040518463ffffffff1660e01b8152600401808473ffffffffffffffffffffffffffffffffffffffff1673ffffffffffffffffffffffffffffffffffffffff1681526020018373ffffffffffffffffffffffffffffffffffffffff1673ffffffffffffffffffffffffffffffffffffffff1681526020018281526020019350505050600060405180830381600087803b1580156117d457600080fd5b505af11580156117e8573d6000803e3d6000fd5b505050507fd99e4fad9ad6313b1feb588fa8e605e3a9873172f2024330c35dd2b4041a43866003600083815260200190815260200160002060000160009054906101000a900473ffffffffffffffffffffffffffffffffffffffff168260405180806020018473ffffffffffffffffffffffffffffffffffffffff1673ffffffffffffffffffffffffffffffffffffffff1681526020018381526020018281038252601a8152602001807f41737365742052656d6f7665642046726f6d204c656e64696e67000000000000815250602001935050505060405180910390a15056fe4f6e6c7920746865206f6e776e65722063616e206c697374206120417373657420666f722053616c654f6e6c7920746865204f776e65722063616e2052656d6f766520616e2041737365744f6e6c792074686520426f72726f7765722063616e2072657475726e20616e206f66666572417373657420616c72656164792068617320616e206163746976654f66666572696e67206f666665724e6f20616374697665206f66666572696e6720666f722074686174204173736574a265627a7a723158203a97dc8f7e29f717fee4ea7ba970c5ac9418f2b873e619665fbf71af4993eb3264736f6c634300050c0032",
  "source": "pragma solidity ^0.5.12;\n\nimport \"./AssetContract.sol\";\nimport \"./IP2PMarketplace.sol\";\nimport \"./Ownable.sol\";\n\n\n\ncontract AssetMarketplace is Ownable, IP2PMarketplace{\n    //Allows for function calls from the Asset Contract\n    AssetContract private _AssetContract;\n\n    //Mapping that stores the NFT information for an Asset\n    struct Offer {\n        address payable lender;\n        uint256 index;\n        uint256 durationOfLend;\n        uint256 dollarsPerPeriod;\n        uint256 tokenId;\n        bool activeOffering;\n        bool activelyBorrowed;\n    }\n\n    Offer[] offers;\n\n    mapping(uint256 => Offer) tokenIdToOffer;\n\n    //Mapping that stores a borrowed asset instance\n    struct borrowedAsset{\n        address payable Borrower;\n        uint256 PricePaid;\n        bool Active;\n    }\n\n    borrowedAsset[] BorrowedAssets;\n\n    mapping(uint256 => borrowedAsset) tokensBorrowed;\n\n    /**\n    * Set the current AssetContract address and initialize the instance of AssetContract.\n    * Requirement: Only the contract owner can call.\n     */\n    constructor() public{\n        owner = msg.sender;\n    }\n    \n    function setAssetContract(address _AssetContractAddress) external onlyOwner{\n        _AssetContract = AssetContract(_AssetContractAddress);\n    }\n\n    /**\n    * Get the details about a offer for _tokenId. Throws an error if there is no activeOffering offer for _tokenId.\n     */\n    function getOffer(uint256 _tokenId) external view returns ( \n        address lender, \n        uint256 dollarsPerPeriod, \n        uint256 durationOfLend, \n        uint256 index, \n        uint256 tokenId, \n        bool activeOffering,\n        bool activelyBorrowed){\n        require(tokenIdToOffer[_tokenId].activeOffering, \"No active offering for that Asset\");\n            return (\n                tokenIdToOffer[_tokenId].lender,\n                tokenIdToOffer[_tokenId].dollarsPerPeriod,\n                tokenIdToOffer[_tokenId].durationOfLend,\n                tokenIdToOffer[_tokenId].index,\n                tokenIdToOffer[_tokenId].tokenId,\n                tokenIdToOffer[_tokenId].activeOffering,\n                tokenIdToOffer[_tokenId].activelyBorrowed);\n        }\n\n    /**\n    * Get all tokenId's that are currently available for lend. \n    * Returns an empty array if none exist.\n     */\n    function getAllTokenOnOffer() external view  returns(uint256[] memory listOfOffers){\n        uint256 _length = offers.length;\n\n        uint256[] memory _offers;\n\n        for(uint i=0; i<_length; i++){\n            if(offers[i].activeOffering && offers[i].activelyBorrowed == false){\n                if(_offers.length == 0){\n                    _offers[0] = offers[i].tokenId;\n                }\n                _offers[(_offers.length-1)] = offers[i].tokenId;\n            }\n        }\n        return _offers;\n    }\n\n    /*\n    * Creates a new offer for _tokenId for the dollarsPerPeriod _dollarsPerPeriod.\n    * Transfers control of Asset to the Smart Contract\n    * Emits the MarketTransaction event with txType \"Asset Available for Lending\"\n    * If offer had been created in the past sets it back to active and updates duration and dollars\n    * Requirement: Only the owner of _tokenId can create an offer.\n    * Requirement: There can only be one activeOffering offer for a token at a time.\n    * Requirement: Transfer token before creating offer to prevent active offer without token transfer\n     */\n    function setOffer(uint256 _durationOfLend, uint256 _dollarsPerPeriod, uint256 _tokenId) external{\n        require(_AssetContract.ownerOf(_tokenId) == msg.sender, \"Only the onwner can list a Asset for Sale\");\n        require(tokenIdToOffer[_tokenId].activeOffering != true, \"Asset already has an activeOffering offer\");\n       \n        if(tokenIdToOffer[_tokenId].activeOffering != false){\n            \n            tokenIdToOffer[_tokenId].lender = msg.sender;\n            tokenIdToOffer[_tokenId].durationOfLend = _durationOfLend;\n            tokenIdToOffer[_tokenId].dollarsPerPeriod = _dollarsPerPeriod;\n            tokenIdToOffer[_tokenId].index = offers.length;\n            tokenIdToOffer[_tokenId].tokenId = _tokenId;\n            tokenIdToOffer[_tokenId].activeOffering = false;\n            tokenIdToOffer[_tokenId].activelyBorrowed = false;\n\n            offers.push(tokenIdToOffer[_tokenId]);\n        }\n\n        _AssetContract.safeTransferFrom(msg.sender, address(_AssetContract), _tokenId);\n        \n        tokenIdToOffer[_tokenId].activeOffering = true;\n        tokenIdToOffer[_tokenId].durationOfLend = _durationOfLend;\n        tokenIdToOffer[_tokenId].dollarsPerPeriod = _dollarsPerPeriod;\n       \n       emit MarketTransaction(\"Asset Available for Lending\", msg.sender, _tokenId);\n    } \n\n\n    /**\n    * Removes an existing offer by returning the asset to the Owner\n    * Emits the MarketTransaction event with txType \"Asset Removed From Lending\"\n    * Requirement: Only the lender of _tokenId can remove an offer.\n     */\n    function removeOffer(uint256 _tokenId) external{\n        require(tokenIdToOffer[_tokenId].lender == msg.sender, \"Only the Owner can Remove an Asset\");\n        require(tokenIdToOffer[_tokenId].activelyBorrowed == false, \"Asset is currently borrowed\");\n        \n        offers[_tokenId].activeOffering = false;\n        _AssetContract.safeTransferFrom(address(_AssetContract), tokenIdToOffer[_tokenId].lender, _tokenId);\n\n        emit MarketTransaction(\"Asset Removed From Lending\", tokenIdToOffer[_tokenId].lender, _tokenId);\n    }\n\n\n    /**\n    * Executes the lending of _tokenId.\n    * Sends the price to the contract.\n    * Emits the MarketTransaction event with txType \"Lent\".\n    * FEE MUST BE BUILT INTO THE FRONT END CODE\n    * Requirement: The msg.value must be greater then dollarsPerPeriod of _tokenId to account for price and fees\n    * Requirement: There must be an activeOffering offer for _tokenId\n     */\n    function lendAsset(uint256 _tokenId) external payable{\n        require(tokenIdToOffer[_tokenId].activeOffering == true, \"Asset is not available\");\n        require(msg.value > (tokenIdToOffer[_tokenId].dollarsPerPeriod), \"Message value too low\");\n        require(tokenIdToOffer[_tokenId].activelyBorrowed == false, \"Asset is currently Borrowed\");\n\n        uint256 borrowId = BorrowedAssets.length;\n\n        tokensBorrowed[borrowId].Borrower = msg.sender;\n\n        tokensBorrowed[borrowId].PricePaid = msg.value;\n        tokensBorrowed[borrowId].Active = true;\n\n        BorrowedAssets.push(tokensBorrowed[borrowId]);\n\n        tokenIdToOffer[_tokenId].activelyBorrowed = true;\n\n        emit MarketTransaction(\"Asset Lent\", msg.sender, _tokenId);\n    }\n\n    /**\n    * Returns an token to owner\n    * No funds sent as payment was already sent\n    * Require original lender to call this function as they own token\n     */\n    function returnAsset(uint256 _tokenId) external {\n        require(tokensBorrowed[_tokenId].Borrower == msg.sender, \"Only the Borrower can return an offer\");\n        require(tokenIdToOffer[_tokenId].activelyBorrowed == true, \"Asset is not currently Borrowed\");\n\n        tokenIdToOffer[_tokenId].activelyBorrowed == false;\n        tokensBorrowed[_tokenId].Active = true;\n\n        tokenIdToOffer[_tokenId].lender.transfer(tokenIdToOffer[_tokenId].dollarsPerPeriod);\n\n        emit MarketTransaction(\"Lend Asset\", tokenIdToOffer[_tokenId].lender, _tokenId);\n    }\n\n    function Withdraw(uint256 amountToTransfer) external onlyOwner{\n        msg.sender.transfer(amountToTransfer);\n    }\n}",
  "sourcePath": "/Users/Kaiju/Desktop/Courses/Hackathons/HackFS/contracts/P2PMarketplace.sol",
  "compiler": {
    "name": "solc",
    "version": "0.5.12+commit.7709ece9.Emscripten.clang"
  },
  "schemaVersion": "3.4.1",
  "updatedAt": "2021-07-27T02:56:54.643Z",
  "devdoc": {
    "methods": {}
  },
  "userdoc": {
    "methods": {
      "constructor": "Set the current AssetContract address and initialize the instance of AssetContract. Requirement: Only the contract owner can call.",
      "getAllTokenOnOffer()": {
        "notice": "Get all tokenId's that are currently available for lend.  Returns an empty array if none exist."
      },
      "getOffer(uint256)": {
        "notice": "Get the details about a offer for _tokenId. Throws an error if there is no activeOffering offer for _tokenId."
      },
      "lendAsset(uint256)": {
        "notice": "Executes the lending of _tokenId. Sends the price to the contract. Emits the MarketTransaction event with txType \"Lent\". FEE MUST BE BUILT INTO THE FRONT END CODE Requirement: The msg.value must be greater then dollarsPerPeriod of _tokenId to account for price and fees Requirement: There must be an activeOffering offer for _tokenId"
      },
      "removeOffer(uint256)": {
        "notice": "Removes an existing offer by returning the asset to the Owner Emits the MarketTransaction event with txType \"Asset Removed From Lending\" Requirement: Only the lender of _tokenId can remove an offer."
      },
      "returnAsset(uint256)": {
        "notice": "Returns an token to owner No funds sent as payment was already sent Require original lender to call this function as they own token"
      }
    }
  }
}