{
  "contractName": "AssetContract",
  "abi": [
    {
      "inputs": [],
      "stateMutability": "nonpayable",
      "type": "constructor"
    },
    {
      "anonymous": false,
      "inputs": [
        {
          "indexed": true,
          "internalType": "address",
          "name": "owner",
          "type": "address"
        },
        {
          "indexed": true,
          "internalType": "address",
          "name": "approved",
          "type": "address"
        },
        {
          "indexed": true,
          "internalType": "uint256",
          "name": "tokenId",
          "type": "uint256"
        }
      ],
      "name": "Approval",
      "type": "event"
    },
    {
      "anonymous": false,
      "inputs": [
        {
          "indexed": true,
          "internalType": "address",
          "name": "owner",
          "type": "address"
        },
        {
          "indexed": true,
          "internalType": "address",
          "name": "operator",
          "type": "address"
        },
        {
          "indexed": false,
          "internalType": "bool",
          "name": "approved",
          "type": "bool"
        }
      ],
      "name": "ApprovalForAll",
      "type": "event"
    },
    {
      "anonymous": false,
      "inputs": [
        {
          "indexed": false,
          "internalType": "address",
          "name": "owner",
          "type": "address"
        },
        {
          "indexed": false,
          "internalType": "uint256",
          "name": "newAssetId",
          "type": "uint256"
        },
        {
          "indexed": false,
          "internalType": "string",
          "name": "metadataURI",
          "type": "string"
        },
        {
          "indexed": false,
          "internalType": "bool",
          "name": "currentlyBorrowed",
          "type": "bool"
        }
      ],
      "name": "NewAssetCreation",
      "type": "event"
    },
    {
      "anonymous": false,
      "inputs": [
        {
          "indexed": true,
          "internalType": "address",
          "name": "from",
          "type": "address"
        },
        {
          "indexed": true,
          "internalType": "address",
          "name": "to",
          "type": "address"
        },
        {
          "indexed": true,
          "internalType": "uint256",
          "name": "tokenId",
          "type": "uint256"
        }
      ],
      "name": "Transfer",
      "type": "event"
    },
    {
      "inputs": [
        {
          "internalType": "uint256",
          "name": "",
          "type": "uint256"
        }
      ],
      "name": "AssetIndexToApproved",
      "outputs": [
        {
          "internalType": "address",
          "name": "",
          "type": "address"
        }
      ],
      "stateMutability": "view",
      "type": "function",
      "constant": true
    },
    {
      "inputs": [
        {
          "internalType": "uint256",
          "name": "",
          "type": "uint256"
        }
      ],
      "name": "AssetIndextoOwner",
      "outputs": [
        {
          "internalType": "address",
          "name": "",
          "type": "address"
        }
      ],
      "stateMutability": "view",
      "type": "function",
      "constant": true
    },
    {
      "inputs": [
        {
          "internalType": "address",
          "name": "",
          "type": "address"
        },
        {
          "internalType": "address",
          "name": "",
          "type": "address"
        }
      ],
      "name": "_operatorApprovals",
      "outputs": [
        {
          "internalType": "bool",
          "name": "",
          "type": "bool"
        }
      ],
      "stateMutability": "view",
      "type": "function",
      "constant": true
    },
    {
      "inputs": [],
      "name": "dAppName",
      "outputs": [
        {
          "internalType": "string",
          "name": "",
          "type": "string"
        }
      ],
      "stateMutability": "view",
      "type": "function",
      "constant": true
    },
    {
      "inputs": [],
      "name": "globalTokenSymbol",
      "outputs": [
        {
          "internalType": "string",
          "name": "",
          "type": "string"
        }
      ],
      "stateMutability": "view",
      "type": "function",
      "constant": true
    },
    {
      "inputs": [
        {
          "internalType": "address",
          "name": "",
          "type": "address"
        },
        {
          "internalType": "address",
          "name": "",
          "type": "address"
        },
        {
          "internalType": "uint256",
          "name": "",
          "type": "uint256"
        },
        {
          "internalType": "bytes",
          "name": "",
          "type": "bytes"
        }
      ],
      "name": "onERC721Received",
      "outputs": [
        {
          "internalType": "bytes4",
          "name": "",
          "type": "bytes4"
        }
      ],
      "stateMutability": "pure",
      "type": "function",
      "constant": true
    },
    {
      "inputs": [],
      "name": "owner",
      "outputs": [
        {
          "internalType": "address",
          "name": "",
          "type": "address"
        }
      ],
      "stateMutability": "view",
      "type": "function",
      "constant": true
    },
    {
      "inputs": [
        {
          "internalType": "bytes4",
          "name": "_interfaceId",
          "type": "bytes4"
        }
      ],
      "name": "supportsInterface",
      "outputs": [
        {
          "internalType": "bool",
          "name": "",
          "type": "bool"
        }
      ],
      "stateMutability": "pure",
      "type": "function",
      "constant": true
    },
    {
      "inputs": [
        {
          "internalType": "address",
          "name": "owner",
          "type": "address"
        }
      ],
      "name": "balanceOf",
      "outputs": [
        {
          "internalType": "uint256",
          "name": "",
          "type": "uint256"
        }
      ],
      "stateMutability": "view",
      "type": "function",
      "constant": true
    },
    {
      "inputs": [
        {
          "internalType": "string",
          "name": "metadataURI",
          "type": "string"
        }
      ],
      "name": "createAsset",
      "outputs": [
        {
          "internalType": "uint256",
          "name": "",
          "type": "uint256"
        }
      ],
      "stateMutability": "nonpayable",
      "type": "function"
    },
    {
      "inputs": [],
      "name": "totalSupply",
      "outputs": [
        {
          "internalType": "uint256",
          "name": "",
          "type": "uint256"
        }
      ],
      "stateMutability": "view",
      "type": "function",
      "constant": true
    },
    {
      "inputs": [],
      "name": "name",
      "outputs": [
        {
          "internalType": "string",
          "name": "",
          "type": "string"
        }
      ],
      "stateMutability": "view",
      "type": "function",
      "constant": true
    },
    {
      "inputs": [],
      "name": "symbol",
      "outputs": [
        {
          "internalType": "string",
          "name": "",
          "type": "string"
        }
      ],
      "stateMutability": "view",
      "type": "function",
      "constant": true
    },
    {
      "inputs": [
        {
          "internalType": "uint256",
          "name": "_tokenId",
          "type": "uint256"
        }
      ],
      "name": "ownerOf",
      "outputs": [
        {
          "internalType": "address",
          "name": "",
          "type": "address"
        }
      ],
      "stateMutability": "view",
      "type": "function",
      "constant": true
    },
    {
      "inputs": [
        {
          "internalType": "uint256",
          "name": "_index",
          "type": "uint256"
        }
      ],
      "name": "getAssetInfo",
      "outputs": [
        {
          "internalType": "uint256",
          "name": "assetId",
          "type": "uint256"
        },
        {
          "internalType": "string",
          "name": "metadataURI",
          "type": "string"
        },
        {
          "internalType": "bool",
          "name": "currentlyBorrowed",
          "type": "bool"
        }
      ],
      "stateMutability": "view",
      "type": "function",
      "constant": true
    },
    {
      "inputs": [
        {
          "internalType": "address",
          "name": "to",
          "type": "address"
        },
        {
          "internalType": "uint256",
          "name": "tokenId",
          "type": "uint256"
        }
      ],
      "name": "transfer",
      "outputs": [],
      "stateMutability": "nonpayable",
      "type": "function"
    },
    {
      "inputs": [
        {
          "internalType": "address",
          "name": "_from",
          "type": "address"
        },
        {
          "internalType": "address",
          "name": "_to",
          "type": "address"
        },
        {
          "internalType": "uint256",
          "name": "_tokenId",
          "type": "uint256"
        }
      ],
      "name": "safeTransferFrom",
      "outputs": [],
      "stateMutability": "nonpayable",
      "type": "function"
    },
    {
      "inputs": [
        {
          "internalType": "address",
          "name": "_from",
          "type": "address"
        },
        {
          "internalType": "address",
          "name": "_to",
          "type": "address"
        },
        {
          "internalType": "uint256",
          "name": "_tokenId",
          "type": "uint256"
        },
        {
          "internalType": "bytes",
          "name": "data",
          "type": "bytes"
        }
      ],
      "name": "safeTransferFrom",
      "outputs": [],
      "stateMutability": "nonpayable",
      "type": "function"
    },
    {
      "inputs": [
        {
          "internalType": "address",
          "name": "_from",
          "type": "address"
        },
        {
          "internalType": "address",
          "name": "_to",
          "type": "address"
        },
        {
          "internalType": "uint256",
          "name": "_tokenId",
          "type": "uint256"
        }
      ],
      "name": "transferFrom",
      "outputs": [],
      "stateMutability": "nonpayable",
      "type": "function"
    },
    {
      "inputs": [
        {
          "internalType": "address",
          "name": "_approved",
          "type": "address"
        },
        {
          "internalType": "uint256",
          "name": "_tokenId",
          "type": "uint256"
        }
      ],
      "name": "approve",
      "outputs": [],
      "stateMutability": "nonpayable",
      "type": "function"
    },
    {
      "inputs": [
        {
          "internalType": "address",
          "name": "_operator",
          "type": "address"
        },
        {
          "internalType": "bool",
          "name": "_approved",
          "type": "bool"
        }
      ],
      "name": "setApprovalForAll",
      "outputs": [],
      "stateMutability": "nonpayable",
      "type": "function"
    },
    {
      "inputs": [
        {
          "internalType": "uint256",
          "name": "_tokenId",
          "type": "uint256"
        }
      ],
      "name": "getApproved",
      "outputs": [
        {
          "internalType": "address",
          "name": "",
          "type": "address"
        }
      ],
      "stateMutability": "view",
      "type": "function",
      "constant": true
    },
    {
      "inputs": [
        {
          "internalType": "address",
          "name": "_owner",
          "type": "address"
        },
        {
          "internalType": "address",
          "name": "_operator",
          "type": "address"
        }
      ],
      "name": "isApprovedForAll",
      "outputs": [
        {
          "internalType": "bool",
          "name": "",
          "type": "bool"
        }
      ],
      "stateMutability": "view",
      "type": "function",
      "constant": true
    }
  ],
  "bytecode": "0x608060405234801561001057600080fd5b50336000806101000a81548173ffffffffffffffffffffffffffffffffffffffff021916908373ffffffffffffffffffffffffffffffffffffffff160217905550336000806101000a81548173ffffffffffffffffffffffffffffffffffffffff021916908373ffffffffffffffffffffffffffffffffffffffff1602179055506125ad806100a06000396000f3fe608060405234801561001057600080fd5b506004361061014d5760003560e01c806370a08231116100c3578063b88d4fde1161007c578063b88d4fde146103c4578063cec41052146103e0578063d42e2207146103fe578063e985e9c51461042e578063edc3bc3f1461045e578063f637d9501461048e5761014d565b806370a0823114610302578063850d7120146103325780638da5cb5b1461035057806395d89b411461036e578063a22cb4651461038c578063a9059cbb146103a85761014d565b806318160ddd1161011557806318160ddd1461021c57806323b872dd1461023a57806342842e0e14610256578063445d12171461027257806355b1f24e146102a25780636352211e146102d25761014d565b806301ffc9a71461015257806306fdde0314610182578063081812fc146101a0578063095ea7b3146101d0578063150b7a02146101ec575b600080fd5b61016c60048036038101906101679190611b25565b6104c0565b6040516101799190612034565b60405180910390f35b61018a610560565b604051610197919061206a565b60405180910390f35b6101ba60048036038101906101b59190611bb8565b61059d565b6040516101c79190611f81565b60405180910390f35b6101ea60048036038101906101e59190611ae9565b610621565b005b61020660048036038101906102019190611a32565b610804565b604051610213919061204f565b60405180910390f35b610224610818565b60405161023191906121cc565b60405180910390f35b610254600480360381019061024f91906119e3565b610825565b005b610270600480360381019061026b91906119e3565b61087f565b005b61028c60048036038101906102879190611bb8565b61089f565b6040516102999190611f81565b60405180910390f35b6102bc60048036038101906102b79190611b77565b6108d2565b6040516102c991906121cc565b60405180910390f35b6102ec60048036038101906102e79190611bb8565b6108e7565b6040516102f99190611f81565b60405180910390f35b61031c6004803603810190610317919061197e565b610924565b60405161032991906121cc565b60405180910390f35b61033a61096d565b604051610347919061206a565b60405180910390f35b6103586109a6565b6040516103659190611f81565b60405180910390f35b6103766109ca565b604051610383919061206a565b60405180910390f35b6103a660048036038101906103a19190611aad565b610a07565b005b6103c260048036038101906103bd9190611ae9565b610b41565b005b6103de60048036038101906103d99190611a32565b610c61565b005b6103e8610cbd565b6040516103f5919061206a565b60405180910390f35b61041860048036038101906104139190611bb8565b610cf6565b6040516104259190611f81565b60405180910390f35b610448600480360381019061044391906119a7565b610d29565b6040516104559190612034565b60405180910390f35b610478600480360381019061047391906119a7565b610dbd565b6040516104859190612034565b60405180910390f35b6104a860048036038101906104a39190611bb8565b610dec565b6040516104b7939291906121e7565b60405180910390f35b60006301ffc9a760e01b7bffffffffffffffffffffffffffffffffffffffffffffffffffffffff1916827bffffffffffffffffffffffffffffffffffffffffffffffffffffffff1916148061055957506380ac58cd60e01b7bffffffffffffffffffffffffffffffffffffffffffffffffffffffff1916827bffffffffffffffffffffffffffffffffffffffffffffffffffffffff1916145b9050919050565b60606040518060400160405280600e81526020017f5032504d61726b6574706c616365000000000000000000000000000000000000815250905090565b600060018054905082106105e6576040517f08c379a00000000000000000000000000000000000000000000000000000000081526004016105dd9061218c565b60405180910390fd5b6004600083815260200190815260200160002060009054906101000a900473ffffffffffffffffffffffffffffffffffffffff169050919050565b3373ffffffffffffffffffffffffffffffffffffffff166002600083815260200190815260200160002060009054906101000a900473ffffffffffffffffffffffffffffffffffffffff1673ffffffffffffffffffffffffffffffffffffffff1614806106ec57503373ffffffffffffffffffffffffffffffffffffffff166004600083815260200190815260200160002060009054906101000a900473ffffffffffffffffffffffffffffffffffffffff1673ffffffffffffffffffffffffffffffffffffffff16145b806107b7575060011515600560006002600085815260200190815260200160002060009054906101000a900473ffffffffffffffffffffffffffffffffffffffff1673ffffffffffffffffffffffffffffffffffffffff1673ffffffffffffffffffffffffffffffffffffffff16815260200190815260200160002060003373ffffffffffffffffffffffffffffffffffffffff1673ffffffffffffffffffffffffffffffffffffffff16815260200190815260200160002060009054906101000a900460ff161515145b6107f6576040517f08c379a00000000000000000000000000000000000000000000000000000000081526004016107ed9061214c565b60405180910390fd5b6108008282610eef565b5050565b600063150b7a0260e01b9050949350505050565b6000600180549050905090565b610830838383610fd3565b61086f576040517f08c379a0000000000000000000000000000000000000000000000000000000008152600401610866906120ac565b60405180910390fd5b61087a838383611266565b505050565b61089a83838360405180602001604052806000815250610c61565b505050565b60046020528060005260406000206000915054906101000a900473ffffffffffffffffffffffffffffffffffffffff1681565b60006108e082600033611416565b9050919050565b60006002600083815260200190815260200160002060009054906101000a900473ffffffffffffffffffffffffffffffffffffffff169050919050565b6000600360008373ffffffffffffffffffffffffffffffffffffffff1673ffffffffffffffffffffffffffffffffffffffff168152602001908152602001600020549050919050565b6040518060400160405280600e81526020017f5032504d61726b6574706c61636500000000000000000000000000000000000081525081565b60008054906101000a900473ffffffffffffffffffffffffffffffffffffffff1681565b60606040518060400160405280600681526020017f5032504d4b540000000000000000000000000000000000000000000000000000815250905090565b600180610a12575060005b905080610a54576040517f08c379a0000000000000000000000000000000000000000000000000000000008152600401610a4b906120cc565b60405180910390fd5b3373ffffffffffffffffffffffffffffffffffffffff168273ffffffffffffffffffffffffffffffffffffffff161415610ac3576040517f08c379a0000000000000000000000000000000000000000000000000000000008152600401610aba9061212c565b60405180910390fd5b600073ffffffffffffffffffffffffffffffffffffffff168273ffffffffffffffffffffffffffffffffffffffff161415610b33576040517f08c379a0000000000000000000000000000000000000000000000000000000008152600401610b2a9061216c565b60405180910390fd5b610b3d828261151c565b5050565b600073ffffffffffffffffffffffffffffffffffffffff168273ffffffffffffffffffffffffffffffffffffffff161415610bb1576040517f08c379a0000000000000000000000000000000000000000000000000000000008152600401610ba89061208c565b60405180910390fd5b3373ffffffffffffffffffffffffffffffffffffffff166002600083815260200190815260200160002060009054906101000a900473ffffffffffffffffffffffffffffffffffffffff1673ffffffffffffffffffffffffffffffffffffffff1614610c52576040517f08c379a0000000000000000000000000000000000000000000000000000000008152600401610c49906120ec565b60405180910390fd5b610c5d338383611266565b5050565b610c6c848484610fd3565b610cab576040517f08c379a0000000000000000000000000000000000000000000000000000000008152600401610ca2906120ac565b60405180910390fd5b610cb784848484611619565b50505050565b6040518060400160405280600681526020017f5032504d4b54000000000000000000000000000000000000000000000000000081525081565b60026020528060005260406000206000915054906101000a900473ffffffffffffffffffffffffffffffffffffffff1681565b6000600560008473ffffffffffffffffffffffffffffffffffffffff1673ffffffffffffffffffffffffffffffffffffffff16815260200190815260200160002060008373ffffffffffffffffffffffffffffffffffffffff1673ffffffffffffffffffffffffffffffffffffffff16815260200190815260200160002060009054906101000a900460ff16905092915050565b60056020528160005260406000206020528060005260406000206000915091509054906101000a900460ff1681565b6000606060008060018581548110610e2d577f4e487b7100000000000000000000000000000000000000000000000000000000600052603260045260246000fd5b9060005260206000209060030201905080600001549350806001018054610e5390612402565b80601f0160208091040260200160405190810160405280929190818152602001828054610e7f90612402565b8015610ecc5780601f10610ea157610100808354040283529160200191610ecc565b820191906000526020600020905b815481529060010190602001808311610eaf57829003601f168201915b505050505092508060020160009054906101000a900460ff169150509193909250565b816004600083815260200190815260200160002060006101000a81548173ffffffffffffffffffffffffffffffffffffffff021916908373ffffffffffffffffffffffffffffffffffffffff160217905550808273ffffffffffffffffffffffffffffffffffffffff166002600084815260200190815260200160002060009054906101000a900473ffffffffffffffffffffffffffffffffffffffff1673ffffffffffffffffffffffffffffffffffffffff167f8c5be1e5ebec7d5bd14f71427d1e84f3dd0314c0f7b2291e5b200ac8c7c3b92560405160405180910390a45050565b60003073ffffffffffffffffffffffffffffffffffffffff168473ffffffffffffffffffffffffffffffffffffffff161461125b57600073ffffffffffffffffffffffffffffffffffffffff168373ffffffffffffffffffffffffffffffffffffffff161415611078576040517f08c379a000000000000000000000000000000000000000000000000000000000815260040161106f9061210c565b60405180910390fd5b60018054905082106110bf576040517f08c379a00000000000000000000000000000000000000000000000000000000081526004016110b69061218c565b60405180910390fd5b3373ffffffffffffffffffffffffffffffffffffffff168473ffffffffffffffffffffffffffffffffffffffff16148061115757503373ffffffffffffffffffffffffffffffffffffffff166004600084815260200190815260200160002060009054906101000a900473ffffffffffffffffffffffffffffffffffffffff1673ffffffffffffffffffffffffffffffffffffffff16145b8061121b5750600560006002600085815260200190815260200160002060009054906101000a900473ffffffffffffffffffffffffffffffffffffffff1673ffffffffffffffffffffffffffffffffffffffff1673ffffffffffffffffffffffffffffffffffffffff16815260200190815260200160002060003373ffffffffffffffffffffffffffffffffffffffff1673ffffffffffffffffffffffffffffffffffffffff16815260200190815260200160002060009054906101000a900460ff165b61125a576040517f08c379a0000000000000000000000000000000000000000000000000000000008152600401611251906120ac565b60405180910390fd5b5b600190509392505050565b600360008373ffffffffffffffffffffffffffffffffffffffff1673ffffffffffffffffffffffffffffffffffffffff16815260200190815260200160002060008154809291906112b690612434565b91905055503073ffffffffffffffffffffffffffffffffffffffff168273ffffffffffffffffffffffffffffffffffffffff16141561130f576004600082815260200190815260200160002060009054906101000a9050505b600360008473ffffffffffffffffffffffffffffffffffffffff1673ffffffffffffffffffffffffffffffffffffffff168152602001908152602001600020600081548092919061135f906123d8565b9190505550816002600083815260200190815260200160002060006101000a81548173ffffffffffffffffffffffffffffffffffffffff021916908373ffffffffffffffffffffffffffffffffffffffff160217905550808273ffffffffffffffffffffffffffffffffffffffff168473ffffffffffffffffffffffffffffffffffffffff167fddf252ad1be2c89b69c2b068fc378daa952ba7f163c4a11628f55a4df523b3ef60405160405180910390a4505050565b600080604051806060016040528060018054905081526020018681526020018515158152509050600181908060018154018082558091505060019003906000526020600020906003020160009091909190915060008201518160000155602082015181600101908051906020019061148f9291906117a2565b5060408201518160020160006101000a81548160ff02191690831515021790555050506000600180805490506114c591906122ee565b90506114d360008583611266565b7fe9a91a2b7f49bad0e7a8d1ac0ab081ff73bc069ddae67a5a06f20b431d9fef48848288886040516115089493929190611fe8565b60405180910390a180925050509392505050565b80600560003373ffffffffffffffffffffffffffffffffffffffff1673ffffffffffffffffffffffffffffffffffffffff16815260200190815260200160002060008473ffffffffffffffffffffffffffffffffffffffff1673ffffffffffffffffffffffffffffffffffffffff16815260200190815260200160002060006101000a81548160ff0219169083151502179055508173ffffffffffffffffffffffffffffffffffffffff163373ffffffffffffffffffffffffffffffffffffffff167f17307eab39ab6107e8899845ad3d59bd9653f200f220920489ca2b5937696c318360405161160d9190612034565b60405180910390a35050565b61162584848484611675565b611664576040517f08c379a000000000000000000000000000000000000000000000000000000000815260040161165b906121ac565b60405180910390fd5b61166f848484611266565b50505050565b60006116808461178f565b61168d5760019050611787565b60008473ffffffffffffffffffffffffffffffffffffffff1663150b7a02338887876040518563ffffffff1660e01b81526004016116ce9493929190611f9c565b602060405180830381600087803b1580156116e857600080fd5b505af11580156116fc573d6000803e3d6000fd5b505050506040513d601f19601f820116820180604052508101906117209190611b4e565b90507f150b7a023d4804d13e8c85fb27262cb750cf6ba9f9dd3bb30d90f482ceeb4b1f7bffffffffffffffffffffffffffffffffffffffffffffffffffffffff1916817bffffffffffffffffffffffffffffffffffffffffffffffffffffffff1916149150505b949350505050565b600080823b905060008111915050919050565b8280546117ae90612402565b90600052602060002090601f0160209004810192826117d05760008555611817565b82601f106117e957805160ff1916838001178555611817565b82800160010185558215611817579182015b828111156118165782518255916020019190600101906117fb565b5b5090506118249190611828565b5090565b5b80821115611841576000816000905550600101611829565b5090565b600061185861185384612256565b612225565b90508281526020810184848401111561187057600080fd5b61187b848285612396565b509392505050565b600061189661189184612286565b612225565b9050828152602081018484840111156118ae57600080fd5b6118b9848285612396565b509392505050565b6000813590506118d08161251b565b92915050565b6000813590506118e581612532565b92915050565b6000813590506118fa81612549565b92915050565b60008151905061190f81612549565b92915050565b600082601f83011261192657600080fd5b8135611936848260208601611845565b91505092915050565b600082601f83011261195057600080fd5b8135611960848260208601611883565b91505092915050565b60008135905061197881612560565b92915050565b60006020828403121561199057600080fd5b600061199e848285016118c1565b91505092915050565b600080604083850312156119ba57600080fd5b60006119c8858286016118c1565b92505060206119d9858286016118c1565b9150509250929050565b6000806000606084860312156119f857600080fd5b6000611a06868287016118c1565b9350506020611a17868287016118c1565b9250506040611a2886828701611969565b9150509250925092565b60008060008060808587031215611a4857600080fd5b6000611a56878288016118c1565b9450506020611a67878288016118c1565b9350506040611a7887828801611969565b925050606085013567ffffffffffffffff811115611a9557600080fd5b611aa187828801611915565b91505092959194509250565b60008060408385031215611ac057600080fd5b6000611ace858286016118c1565b9250506020611adf858286016118d6565b9150509250929050565b60008060408385031215611afc57600080fd5b6000611b0a858286016118c1565b9250506020611b1b85828601611969565b9150509250929050565b600060208284031215611b3757600080fd5b6000611b45848285016118eb565b91505092915050565b600060208284031215611b6057600080fd5b6000611b6e84828501611900565b91505092915050565b600060208284031215611b8957600080fd5b600082013567ffffffffffffffff811115611ba357600080fd5b611baf8482850161193f565b91505092915050565b600060208284031215611bca57600080fd5b6000611bd884828501611969565b91505092915050565b611bea81612322565b82525050565b611bf981612334565b82525050565b611c0881612340565b82525050565b6000611c19826122b6565b611c2381856122cc565b9350611c338185602086016123a5565b611c3c8161250a565b840191505092915050565b6000611c52826122c1565b611c5c81856122dd565b9350611c6c8185602086016123a5565b611c758161250a565b840191505092915050565b6000611c8d6016836122dd565b91507f416464726573732043616e6e6f74206265204e554c4c000000000000000000006000830152602082019050919050565b6000611ccd6038836122dd565b91507f4d6573736167652e53656e646572206d75737420626520546f6b656e204f776e60008301527f65722c206f7220417070726f766564206279204f776e657200000000000000006020830152604082019050919050565b6000611d336018836122dd565b91507f4d75737420456e7465722054727565206f722046616c736500000000000000006000830152602082019050919050565b6000611d736014836122dd565b91507f53656e646572204d757374206265204f776e65720000000000000000000000006000830152602082019050919050565b6000611db3601d836122dd565b91507f43616e6e6f742053656e6420746f2061205a65726f20416464726573730000006000830152602082019050919050565b6000611df36017836122dd565b91507f43616e6e6f7420617070726f766520796f757273656c660000000000000000006000830152602082019050919050565b6000611e336022836122dd565b91507f4d6573736167652e53656e646572206d75737420626520546f6b656e204f776e60008301527f65720000000000000000000000000000000000000000000000000000000000006020830152604082019050919050565b6000611e99601d836122dd565b91507f43616e6e6f7420417070726f76652061205a65726f20416464726573730000006000830152602082019050919050565b6000611ed96015836122dd565b91507f4d75737420626520612076616c696420417373657400000000000000000000006000830152602082019050919050565b6000611f19602d836122dd565b91507f546f2041646472657373204d7573742062652043617061626c65206f6620526560008301527f63656976696e6720546f6b656e000000000000000000000000000000000000006020830152604082019050919050565b611f7b8161238c565b82525050565b6000602082019050611f966000830184611be1565b92915050565b6000608082019050611fb16000830187611be1565b611fbe6020830186611be1565b611fcb6040830185611f72565b8181036060830152611fdd8184611c0e565b905095945050505050565b6000608082019050611ffd6000830187611be1565b61200a6020830186611f72565b818103604083015261201c8185611c47565b905061202b6060830184611bf0565b95945050505050565b60006020820190506120496000830184611bf0565b92915050565b60006020820190506120646000830184611bff565b92915050565b600060208201905081810360008301526120848184611c47565b905092915050565b600060208201905081810360008301526120a581611c80565b9050919050565b600060208201905081810360008301526120c581611cc0565b9050919050565b600060208201905081810360008301526120e581611d26565b9050919050565b6000602082019050818103600083015261210581611d66565b9050919050565b6000602082019050818103600083015261212581611da6565b9050919050565b6000602082019050818103600083015261214581611de6565b9050919050565b6000602082019050818103600083015261216581611e26565b9050919050565b6000602082019050818103600083015261218581611e8c565b9050919050565b600060208201905081810360008301526121a581611ecc565b9050919050565b600060208201905081810360008301526121c581611f0c565b9050919050565b60006020820190506121e16000830184611f72565b92915050565b60006060820190506121fc6000830186611f72565b818103602083015261220e8185611c47565b905061221d6040830184611bf0565b949350505050565b6000604051905081810181811067ffffffffffffffff8211171561224c5761224b6124db565b5b8060405250919050565b600067ffffffffffffffff821115612271576122706124db565b5b601f19601f8301169050602081019050919050565b600067ffffffffffffffff8211156122a1576122a06124db565b5b601f19601f8301169050602081019050919050565b600081519050919050565b600081519050919050565b600082825260208201905092915050565b600082825260208201905092915050565b60006122f98261238c565b91506123048361238c565b9250828210156123175761231661247d565b5b828203905092915050565b600061232d8261236c565b9050919050565b60008115159050919050565b60007fffffffff0000000000000000000000000000000000000000000000000000000082169050919050565b600073ffffffffffffffffffffffffffffffffffffffff82169050919050565b6000819050919050565b82818337600083830152505050565b60005b838110156123c35780820151818401526020810190506123a8565b838111156123d2576000848401525b50505050565b60006123e38261238c565b915060008214156123f7576123f661247d565b5b600182039050919050565b6000600282049050600182168061241a57607f821691505b6020821081141561242e5761242d6124ac565b5b50919050565b600061243f8261238c565b91507fffffffffffffffffffffffffffffffffffffffffffffffffffffffffffffffff8214156124725761247161247d565b5b600182019050919050565b7f4e487b7100000000000000000000000000000000000000000000000000000000600052601160045260246000fd5b7f4e487b7100000000000000000000000000000000000000000000000000000000600052602260045260246000fd5b7f4e487b7100000000000000000000000000000000000000000000000000000000600052604160045260246000fd5b6000601f19601f8301169050919050565b61252481612322565b811461252f57600080fd5b50565b61253b81612334565b811461254657600080fd5b50565b61255281612340565b811461255d57600080fd5b50565b6125698161238c565b811461257457600080fd5b5056fea2646970667358221220be40afa306d234afdeca004cbdba9a971799c80f272e4a1e16a751109f4e7e0464736f6c63430008000033",
  "immutableReferences": {},
  "source": "//SPDX-License-Identifier: UNLICENSED\npragma solidity ^0.8.0;\n\nimport \"./IERC721.sol\";\nimport \"./IERC721Receiver.sol\";\nimport \"./ERC721Holder.sol\";\nimport \"./Ownable.sol\";\n\ncontract AssetContract is IERC721, Ownable, ERC721Holder{\n    \n    //Names of dApp and token symbol\n    string public constant dAppName = \"P2PMarketplace\";\n    string public constant globalTokenSymbol = \"P2PMKT\";\n\n    //Values used to complete ERC721 compatability check before safeTransfer functions\n    bytes4 internal constant IERC721ReturnValue = bytes4(keccak256(\"onERC721Received(address,address,uint256,bytes)\"));\n    bytes4 private constant _INTERFACE_ID_ERC721 = 0x80ac58cd;\n    bytes4 private constant _INTERFACE_ID_ERC165 = 0x01ffc9a7;\n\n    function supportsInterface(bytes4 _interfaceId) external pure returns(bool){\n        return (_interfaceId == _INTERFACE_ID_ERC165 || _interfaceId == _INTERFACE_ID_ERC721);\n    }\n\n    constructor() public{\n        owner = msg.sender;\n    }\n    \n    //Structure that stores token information for each Asset\n    struct Asset {\n        uint256 assetId;\n        string metadataURI;\n        bool currentlyBorrowed;  \n    }\n    \n    Asset[] itemsForOffer;\n\n    //Mapping that links owner to Asset and Assets\n    mapping (uint256 => address) public AssetIndextoOwner;\n    mapping (address => uint256) AssetOwnershipCount;\n\n    /** \n    * Mapping to be ERC721 Compliant\n    */\n    mapping (uint256 => address) public AssetIndexToApproved;\n    //Double Mapping for Approve All Tokens Functions (MyAddress => OperatorAddress => True/False) \n    mapping (address => mapping (address => bool)) public  _operatorApprovals;\n\n    \n    event NewAssetCreation(address owner, uint256 newAssetId, string metadataURI, bool currentlyBorrowed);\n\n    function balanceOf(address owner) external override view returns (uint256){\n        return AssetOwnershipCount[owner];\n    }\n\n    /*\n     * @dev Creates new Asset Token.\n     *\n     * metadataURI is the value of real world Asset\n     */ \n    function createAsset(string memory metadataURI) public returns (uint256){\n\n        //Create new Asset, send it to msg.sender\n        return _createAsset(metadataURI, false, msg.sender);\n    }\n\n    /*\n     * @dev Returns the total number of tokens in circulation.\n     */\n    function totalSupply() external view override returns (uint256){\n        return itemsForOffer.length;\n    }\n\n    /*\n     * @dev Returns the name of the token.\n     */\n    function name() external view override returns (string memory){\n        return dAppName;\n    }\n\n    /*\n     * @dev Returns the symbol of the token.\n     */\n    function symbol() external view override returns (string memory){\n        return globalTokenSymbol;\n    }\n\n    /**\n     * @dev Returns the owner of the `tokenId` token.\n     *\n     * Requirements:\n     *\n     * - `tokenId` must exist.\n     */\n    function ownerOf(uint256 _tokenId) external view override returns (address){\n        return AssetIndextoOwner[_tokenId];\n    }\n    \n    //Get Asset Info Function\n    //Input Asset and get out all cat details\n    function getAssetInfo(uint256 _index) external view \n    returns (\n        uint256 assetId, \n        string memory metadataURI, \n        bool currentlyBorrowed)\n            {\n                Asset storage AssetInfo = itemsForOffer[_index];\n\n                assetId = AssetInfo.assetId;\n                metadataURI = string(AssetInfo.metadataURI);\n                currentlyBorrowed = bool(AssetInfo.currentlyBorrowed);\n            }\n\n     /* @dev Transfers `tokenId` token from `msg.sender` to `to`.\n     * Requirements:\n     * - `to` cannot be the zero address.\n     * - `to` can not be the contract address.\n     * - `tokenId` token must be owned by `msg.sender`.\n     * Emits a {Transfer} event.\n     */\n    function transfer(address to, uint256 tokenId) override external{\n        require(to != address(0x0),'Address Cannot be NULL');\n        require(AssetIndextoOwner[tokenId] == msg.sender, 'Sender Must be Owner');\n    \n        \n        _transfer(msg.sender, to, tokenId);\n    }\n\n    // Internal function which will be used by transfer to swap token ownership\n    function _transfer(address _from, address _to, uint256 _tokenId) internal {\n        AssetOwnershipCount[_to] ++;\n        if (_to == address(this)){\n            AssetIndexToApproved[_tokenId];\n        }\n        \n        AssetOwnershipCount[_from] --;\n        AssetIndextoOwner[_tokenId] = _to;\n\n        emit Transfer(_from, _to, _tokenId);\n    }\n\n\n// CREATE NEW Asset FUNCTION \n    function _createAsset(string memory _metadataURI, bool _currentlyBorrowed, address _owner) internal returns(uint256){\n        \n        Asset memory _Asset = Asset({\n            assetId: itemsForOffer.length,\n            metadataURI: string(_metadataURI),\n            currentlyBorrowed: bool(_currentlyBorrowed)\n        });\n\n        itemsForOffer.push(_Asset);\n\n        uint256 newAssetId = (itemsForOffer.length)-1;\n\n        _transfer(address(0x0), _owner, newAssetId);\n\n        emit NewAssetCreation(_owner, newAssetId, _metadataURI, _currentlyBorrowed);\n\n        return newAssetId;\n    }\n\n    /** \n    * Safetransfer functions that check the address can recieve ERC721 tokens before sending\n    * Uses function _checkERC721Support to check for receivability\n    * Ensures the address can handle token but not that it is correct address\n    */\n    function safeTransferFrom(address _from, address _to, uint256 _tokenId, bytes memory data) override public{\n        require( _checkTransferParameters(_from, _to, _tokenId) , \"Message.Sender must be Token Owner, or Approved by Owner\");\n        _safeTransfer(_from, _to, _tokenId, data);\n    \n    }\n\n    function safeTransferFrom(address _from, address _to, uint256 _tokenId) override external{\n        safeTransferFrom(_from, _to, _tokenId, \"\");\n    }\n\n\n    function transferFrom(address _from, address _to, uint256 _tokenId) override external{\n        require( _checkTransferParameters(_from, _to, _tokenId) , \"Message.Sender must be Token Owner, or Approved by Owner\");\n        _transfer(_from, _to, _tokenId);\n    }\n\n    function _safeTransfer(address _from, address _to, uint256 _tokenId, bytes memory _data) internal {\n        require(_checkERC721Support(_from, _to, _tokenId, _data), \"To Address Must be Capable of Receiving Token\");\n        _transfer(_from, _to, _tokenId);\n    }\n\n    /**\n    * Function to check that address is able to receive ERC721 token address\n    * Utilizes IERC721Receiver.sol to complete check vs IERC721ReturnValue\n     */\n    function _checkERC721Support(address _from, address _to, uint256 _tokenId, bytes memory _data) internal returns(bool){\n        if( !_isContract(_to) ){\n            return true;\n        }\n        \n        //Call onERC721Received at _to address\n        bytes4 returnData = IERC721Receiver(_to).onERC721Received(msg.sender, _from, _tokenId, _data);\n        \n        //Check that return value is equal to ERC721 token standards\n        return returnData == IERC721ReturnValue;\n    }\n\n    function _isContract(address _to) view internal returns(bool){\n            uint256 size;\n            assembly{\n                size := extcodesize(_to)\n            }\n            return size > 0;\n    }\n\n    /*\n     * @dev Checks Owner of Token, Address is not (0x0), and tokenId is valid.\n     * Returns true if they all are valid.\n     * Used in transfer functions to ensure that parameters are met.\n     */\n    function _checkTransferParameters(address _from, address _to, uint256 _tokenId) internal view returns(bool){\n        if(_from != address(this)){\n        require(_to != address (0x0), \"Cannot Send to a Zero Address\");\n        require((_tokenId < itemsForOffer.length), 'Must be a valid Asset');\n        require(_from == msg.sender || \n                AssetIndexToApproved[_tokenId] == msg.sender || \n                _operatorApprovals[AssetIndextoOwner[_tokenId]][msg.sender],\n                \"Message.Sender must be Token Owner, or Approved by Owner\");\n        }\n\n        return true;\n    }\n\n    /*\n     * @dev Checks the owner of a given token.\n     * Returns true if they are the owner.\n     * Used in transfer functions to ensure that msg.sender is owner of token \n     */\n    function _checkOwnership(address _toCheck, uint256 _tokenId) internal view returns(bool){\n        if(_toCheck != address(this)){\n        require(_toCheck == AssetIndextoOwner[_tokenId], \"Message.Sender must be Token Owner\");\n        }\n        return true;\n    }\n\n    /**\n    *\n    * Required Mapping to be ERC721 compliant\n    * Not used in this contract as design is structured different\n    *\n     */\n    function approve(address _approved, uint256 _tokenId) override external{\n        require(\n            AssetIndextoOwner[_tokenId] == msg.sender || \n            AssetIndexToApproved[_tokenId] == msg.sender || \n            _operatorApprovals[AssetIndextoOwner[_tokenId]][msg.sender] == true, \"Message.Sender must be Token Owner\");\n        \n        _approve(_approved, _tokenId);\n    }\n\n    function _approve(address _approved, uint256 _tokenId) internal{\n        \n        AssetIndexToApproved[_tokenId] = _approved;\n        \n        emit Approval(AssetIndextoOwner[_tokenId], _approved, _tokenId);\n    }\n\n    function setApprovalForAll(address _operator, bool _approved) override external{\n        require(_approved = true || false, \"Must Enter True or False\");\n        require(_operator != msg.sender, \"Cannot approve yourself\");\n        require(_operator != address (0x0), \"Cannot Approve a Zero Address\");\n        \n        _approvalForAll(_operator, _approved);\n    }\n\n    function _approvalForAll(address _operator, bool _approved) internal {\n        _operatorApprovals[msg.sender][_operator] = _approved;\n\n        emit ApprovalForAll(msg.sender, _operator, _approved);\n    }\n\n    function getApproved(uint256 _tokenId) external override view returns (address){\n        require((_tokenId < itemsForOffer.length), 'Must be a valid Asset');\n\n        return (AssetIndexToApproved[_tokenId]);\n    }\n\n    function isApprovedForAll(address _owner, address _operator) external override view returns (bool){\n        return _operatorApprovals[_owner][_operator];\n    }\n}    ",
  "sourcePath": "/Users/ray/Desktop/HackFS_2021/contracts/AssetContract.sol",
  "compiler": {
    "name": "solc",
    "version": "0.8.0+commit.c7dfd78e.Emscripten.clang"
  },
  "schemaVersion": "3.4.2",
  "updatedAt": "2021-08-11T22:57:09.729Z",
  "networkType": "ethereum",
  "devdoc": {
    "kind": "dev",
    "methods": {
      "balanceOf(address)": {
        "details": "Returns the number of tokens in ``owner``'s account."
      },
      "getApproved(uint256)": {
        "details": "Throws if `_tokenId` is not a valid NFT.",
        "params": {
          "_tokenId": "The NFT to find the approved address for"
        },
        "returns": {
          "_0": "The approved address for this NFT, or the zero address if there is none"
        }
      },
      "isApprovedForAll(address,address)": {
        "params": {
          "_operator": "The address that acts on behalf of the owner",
          "_owner": "The address that owns the NFTs"
        },
        "returns": {
          "_0": "True if `_operator` is an approved operator for `_owner`, false otherwise"
        }
      },
      "onERC721Received(address,address,uint256,bytes)": {
        "details": "See {IERC721Receiver-onERC721Received}. Always returns `IERC721Receiver.onERC721Received.selector`."
      },
      "ownerOf(uint256)": {
        "details": "Returns the owner of the `tokenId` token. Requirements: - `tokenId` must exist."
      },
      "safeTransferFrom(address,address,uint256)": {
        "details": "This works identically to the other function with an extra data parameter,  except this function just sets data to \"\".",
        "params": {
          "_from": "The current owner of the NFT",
          "_to": "The new owner",
          "_tokenId": "The NFT to transfer"
        }
      },
      "setApprovalForAll(address,bool)": {
        "details": "Emits the ApprovalForAll event. The contract MUST allow  multiple operators per owner.",
        "params": {
          "_approved": "True if the operator is approved, false to revoke approval",
          "_operator": "Address to add to the set of authorized operators"
        }
      },
      "transferFrom(address,address,uint256)": {
        "details": "Throws unless `msg.sender` is the current owner, an authorized  operator, or the approved address for this NFT. Throws if `_from` is  not the current owner. Throws if `_to` is the zero address. Throws if  `_tokenId` is not a valid NFT.",
        "params": {
          "_from": "The current owner of the NFT",
          "_to": "The new owner",
          "_tokenId": "The NFT to transfer"
        }
      }
    },
    "version": 1
  },
  "userdoc": {
    "kind": "user",
    "methods": {
      "AssetIndexToApproved(uint256)": {
        "notice": "Mapping to be ERC721 Compliant"
      },
      "approve(address,uint256)": {
        "notice": "Required Mapping to be ERC721 compliant Not used in this contract as design is structured different"
      },
      "getApproved(uint256)": {
        "notice": "Get the approved address for a single NFT"
      },
      "isApprovedForAll(address,address)": {
        "notice": "Query if an address is an authorized operator for another address"
      },
      "safeTransferFrom(address,address,uint256)": {
        "notice": "Transfers the ownership of an NFT from one address to another address"
      },
      "safeTransferFrom(address,address,uint256,bytes)": {
        "notice": "Safetransfer functions that check the address can recieve ERC721 tokens before sending Uses function _checkERC721Support to check for receivability Ensures the address can handle token but not that it is correct address"
      },
      "setApprovalForAll(address,bool)": {
        "notice": "Enable or disable approval for a third party (\"operator\") to manage  all of `msg.sender`'s assets"
      },
      "transferFrom(address,address,uint256)": {
        "notice": "Transfer ownership of an NFT -- THE CALLER IS RESPONSIBLE  TO CONFIRM THAT `_to` IS CAPABLE OF RECEIVING NFTS OR ELSE  THEY MAY BE PERMANENTLY LOST"
      }
    },
    "version": 1
  }
}