{
  "contractName": "AssetContract",
  "abi": [
    {
      "inputs": [],
      "payable": false,
      "stateMutability": "nonpayable",
      "type": "constructor"
    },
    {
      "anonymous": false,
      "inputs": [
        {
          "indexed": true,
          "internalType": "address",
          "name": "owner",
          "type": "address"
        },
        {
          "indexed": true,
          "internalType": "address",
          "name": "approved",
          "type": "address"
        },
        {
          "indexed": true,
          "internalType": "uint256",
          "name": "tokenId",
          "type": "uint256"
        }
      ],
      "name": "Approval",
      "type": "event"
    },
    {
      "anonymous": false,
      "inputs": [
        {
          "indexed": true,
          "internalType": "address",
          "name": "owner",
          "type": "address"
        },
        {
          "indexed": true,
          "internalType": "address",
          "name": "operator",
          "type": "address"
        },
        {
          "indexed": false,
          "internalType": "bool",
          "name": "approved",
          "type": "bool"
        }
      ],
      "name": "ApprovalForAll",
      "type": "event"
    },
    {
      "anonymous": false,
      "inputs": [
        {
          "indexed": false,
          "internalType": "address",
          "name": "owner",
          "type": "address"
        },
        {
          "indexed": false,
          "internalType": "uint256",
          "name": "newAssetId",
          "type": "uint256"
        },
        {
          "indexed": false,
          "internalType": "uint256",
          "name": "assetValue",
          "type": "uint256"
        },
        {
          "indexed": false,
          "internalType": "bool",
          "name": "currentlyBorrowed",
          "type": "bool"
        }
      ],
      "name": "NewAssetCreation",
      "type": "event"
    },
    {
      "anonymous": false,
      "inputs": [
        {
          "indexed": true,
          "internalType": "address",
          "name": "from",
          "type": "address"
        },
        {
          "indexed": true,
          "internalType": "address",
          "name": "to",
          "type": "address"
        },
        {
          "indexed": true,
          "internalType": "uint256",
          "name": "tokenId",
          "type": "uint256"
        }
      ],
      "name": "Transfer",
      "type": "event"
    },
    {
      "constant": true,
      "inputs": [
        {
          "internalType": "uint256",
          "name": "",
          "type": "uint256"
        }
      ],
      "name": "AssetIndexToApproved",
      "outputs": [
        {
          "internalType": "address",
          "name": "",
          "type": "address"
        }
      ],
      "payable": false,
      "stateMutability": "view",
      "type": "function"
    },
    {
      "constant": true,
      "inputs": [
        {
          "internalType": "uint256",
          "name": "",
          "type": "uint256"
        }
      ],
      "name": "AssetIndextoOwner",
      "outputs": [
        {
          "internalType": "address",
          "name": "",
          "type": "address"
        }
      ],
      "payable": false,
      "stateMutability": "view",
      "type": "function"
    },
    {
      "constant": true,
      "inputs": [
        {
          "internalType": "address",
          "name": "",
          "type": "address"
        },
        {
          "internalType": "address",
          "name": "",
          "type": "address"
        }
      ],
      "name": "_operatorApprovals",
      "outputs": [
        {
          "internalType": "bool",
          "name": "",
          "type": "bool"
        }
      ],
      "payable": false,
      "stateMutability": "view",
      "type": "function"
    },
    {
      "constant": true,
      "inputs": [],
      "name": "dAppName",
      "outputs": [
        {
          "internalType": "string",
          "name": "",
          "type": "string"
        }
      ],
      "payable": false,
      "stateMutability": "view",
      "type": "function"
    },
    {
      "constant": true,
      "inputs": [],
      "name": "globalTokenSymbol",
      "outputs": [
        {
          "internalType": "string",
          "name": "",
          "type": "string"
        }
      ],
      "payable": false,
      "stateMutability": "view",
      "type": "function"
    },
    {
      "constant": false,
      "inputs": [
        {
          "internalType": "address",
          "name": "",
          "type": "address"
        },
        {
          "internalType": "address",
          "name": "",
          "type": "address"
        },
        {
          "internalType": "uint256",
          "name": "",
          "type": "uint256"
        },
        {
          "internalType": "bytes",
          "name": "",
          "type": "bytes"
        }
      ],
      "name": "onERC721Received",
      "outputs": [
        {
          "internalType": "bytes4",
          "name": "",
          "type": "bytes4"
        }
      ],
      "payable": false,
      "stateMutability": "nonpayable",
      "type": "function"
    },
    {
      "constant": true,
      "inputs": [],
      "name": "owner",
      "outputs": [
        {
          "internalType": "address",
          "name": "",
          "type": "address"
        }
      ],
      "payable": false,
      "stateMutability": "view",
      "type": "function"
    },
    {
      "constant": true,
      "inputs": [
        {
          "internalType": "bytes4",
          "name": "_interfaceId",
          "type": "bytes4"
        }
      ],
      "name": "supportsInterface",
      "outputs": [
        {
          "internalType": "bool",
          "name": "",
          "type": "bool"
        }
      ],
      "payable": false,
      "stateMutability": "pure",
      "type": "function"
    },
    {
      "constant": true,
      "inputs": [
        {
          "internalType": "address",
          "name": "owner",
          "type": "address"
        }
      ],
      "name": "balanceOf",
      "outputs": [
        {
          "internalType": "uint256",
          "name": "",
          "type": "uint256"
        }
      ],
      "payable": false,
      "stateMutability": "view",
      "type": "function"
    },
    {
      "constant": false,
      "inputs": [
        {
          "internalType": "uint256",
          "name": "assetValue",
          "type": "uint256"
        }
      ],
      "name": "createAsset",
      "outputs": [
        {
          "internalType": "uint256",
          "name": "",
          "type": "uint256"
        }
      ],
      "payable": false,
      "stateMutability": "nonpayable",
      "type": "function"
    },
    {
      "constant": true,
      "inputs": [],
      "name": "totalSupply",
      "outputs": [
        {
          "internalType": "uint256",
          "name": "",
          "type": "uint256"
        }
      ],
      "payable": false,
      "stateMutability": "view",
      "type": "function"
    },
    {
      "constant": true,
      "inputs": [],
      "name": "name",
      "outputs": [
        {
          "internalType": "string",
          "name": "",
          "type": "string"
        }
      ],
      "payable": false,
      "stateMutability": "view",
      "type": "function"
    },
    {
      "constant": true,
      "inputs": [],
      "name": "symbol",
      "outputs": [
        {
          "internalType": "string",
          "name": "",
          "type": "string"
        }
      ],
      "payable": false,
      "stateMutability": "view",
      "type": "function"
    },
    {
      "constant": true,
      "inputs": [
        {
          "internalType": "uint256",
          "name": "_tokenId",
          "type": "uint256"
        }
      ],
      "name": "ownerOf",
      "outputs": [
        {
          "internalType": "address",
          "name": "",
          "type": "address"
        }
      ],
      "payable": false,
      "stateMutability": "view",
      "type": "function"
    },
    {
      "constant": true,
      "inputs": [
        {
          "internalType": "uint256",
          "name": "_index",
          "type": "uint256"
        }
      ],
      "name": "getAssetInfo",
      "outputs": [
        {
          "internalType": "uint256",
          "name": "assetId",
          "type": "uint256"
        },
        {
          "internalType": "uint256",
          "name": "assetValue",
          "type": "uint256"
        },
        {
          "internalType": "bool",
          "name": "currentlyBorrowed",
          "type": "bool"
        }
      ],
      "payable": false,
      "stateMutability": "view",
      "type": "function"
    },
    {
      "constant": false,
      "inputs": [
        {
          "internalType": "address",
          "name": "to",
          "type": "address"
        },
        {
          "internalType": "uint256",
          "name": "tokenId",
          "type": "uint256"
        }
      ],
      "name": "transfer",
      "outputs": [],
      "payable": false,
      "stateMutability": "nonpayable",
      "type": "function"
    },
    {
      "constant": false,
      "inputs": [
        {
          "internalType": "address",
          "name": "_from",
          "type": "address"
        },
        {
          "internalType": "address",
          "name": "_to",
          "type": "address"
        },
        {
          "internalType": "uint256",
          "name": "_tokenId",
          "type": "uint256"
        }
      ],
      "name": "safeTransferFrom",
      "outputs": [],
      "payable": false,
      "stateMutability": "nonpayable",
      "type": "function"
    },
    {
      "constant": false,
      "inputs": [
        {
          "internalType": "address",
          "name": "_from",
          "type": "address"
        },
        {
          "internalType": "address",
          "name": "_to",
          "type": "address"
        },
        {
          "internalType": "uint256",
          "name": "_tokenId",
          "type": "uint256"
        },
        {
          "internalType": "bytes",
          "name": "data",
          "type": "bytes"
        }
      ],
      "name": "safeTransferFrom",
      "outputs": [],
      "payable": false,
      "stateMutability": "nonpayable",
      "type": "function"
    },
    {
      "constant": false,
      "inputs": [
        {
          "internalType": "address",
          "name": "_from",
          "type": "address"
        },
        {
          "internalType": "address",
          "name": "_to",
          "type": "address"
        },
        {
          "internalType": "uint256",
          "name": "_tokenId",
          "type": "uint256"
        }
      ],
      "name": "transferFrom",
      "outputs": [],
      "payable": false,
      "stateMutability": "nonpayable",
      "type": "function"
    },
    {
      "constant": false,
      "inputs": [
        {
          "internalType": "address",
          "name": "_approved",
          "type": "address"
        },
        {
          "internalType": "uint256",
          "name": "_tokenId",
          "type": "uint256"
        }
      ],
      "name": "approve",
      "outputs": [],
      "payable": false,
      "stateMutability": "nonpayable",
      "type": "function"
    },
    {
      "constant": false,
      "inputs": [
        {
          "internalType": "address",
          "name": "_operator",
          "type": "address"
        },
        {
          "internalType": "bool",
          "name": "_approved",
          "type": "bool"
        }
      ],
      "name": "setApprovalForAll",
      "outputs": [],
      "payable": false,
      "stateMutability": "nonpayable",
      "type": "function"
    },
    {
      "constant": true,
      "inputs": [
        {
          "internalType": "uint256",
          "name": "_tokenId",
          "type": "uint256"
        }
      ],
      "name": "getApproved",
      "outputs": [
        {
          "internalType": "address",
          "name": "",
          "type": "address"
        }
      ],
      "payable": false,
      "stateMutability": "view",
      "type": "function"
    },
    {
      "constant": true,
      "inputs": [
        {
          "internalType": "address",
          "name": "_owner",
          "type": "address"
        },
        {
          "internalType": "address",
          "name": "_operator",
          "type": "address"
        }
      ],
      "name": "isApprovedForAll",
      "outputs": [
        {
          "internalType": "bool",
          "name": "",
          "type": "bool"
        }
      ],
      "payable": false,
      "stateMutability": "view",
      "type": "function"
    }
  ],
  "bytecode": "0x608060405234801561001057600080fd5b50336000806101000a81548173ffffffffffffffffffffffffffffffffffffffff021916908373ffffffffffffffffffffffffffffffffffffffff160217905550336000806101000a81548173ffffffffffffffffffffffffffffffffffffffff021916908373ffffffffffffffffffffffffffffffffffffffff160217905550612221806100a06000396000f3fe608060405234801561001057600080fd5b506004361061014d5760003560e01c8063850d7120116100c3578063b88d4fde1161007c578063b88d4fde146108ab578063cec41052146109b0578063d42e220714610a33578063e985e9c514610aa1578063edc3bc3f14610b1d578063f637d95014610b995761014d565b8063850d71201461067b5780638da5cb5b146106fe57806395d89b4114610748578063a22cb465146107cb578063a872d3b61461081b578063a9059cbb1461085d5761014d565b806318160ddd1161011557806318160ddd1461044d57806323b872dd1461046b57806342842e0e146104d9578063445d1217146105475780636352211e146105b557806370a08231146106235761014d565b806301ffc9a71461015257806306fdde03146101b7578063081812fc1461023a578063095ea7b3146102a8578063150b7a02146102f6575b600080fd5b61019d6004803603602081101561016857600080fd5b8101908080357bffffffffffffffffffffffffffffffffffffffffffffffffffffffff19169060200190929190505050610bed565b604051808215151515815260200191505060405180910390f35b6101bf610c8d565b6040518080602001828103825283818151815260200191508051906020019080838360005b838110156101ff5780820151818401526020810190506101e4565b50505050905090810190601f16801561022c5780820380516001836020036101000a031916815260200191505b509250505060405180910390f35b6102666004803603602081101561025057600080fd5b8101908080359060200190929190505050610cca565b604051808273ffffffffffffffffffffffffffffffffffffffff1673ffffffffffffffffffffffffffffffffffffffff16815260200191505060405180910390f35b6102f4600480360360408110156102be57600080fd5b81019080803573ffffffffffffffffffffffffffffffffffffffff16906020019092919080359060200190929190505050610d81565b005b6103f96004803603608081101561030c57600080fd5b81019080803573ffffffffffffffffffffffffffffffffffffffff169060200190929190803573ffffffffffffffffffffffffffffffffffffffff169060200190929190803590602001909291908035906020019064010000000081111561037357600080fd5b82018360208201111561038557600080fd5b803590602001918460018302840111640100000000831117156103a757600080fd5b91908080601f016020809104026020016040519081016040528093929190818152602001838380828437600081840152601f19601f820116905080830192505050505050509192919290505050610f7a565b60405180827bffffffffffffffffffffffffffffffffffffffffffffffffffffffff19167bffffffffffffffffffffffffffffffffffffffffffffffffffffffff1916815260200191505060405180910390f35b610455610f8e565b6040518082815260200191505060405180910390f35b6104d76004803603606081101561048157600080fd5b81019080803573ffffffffffffffffffffffffffffffffffffffff169060200190929190803573ffffffffffffffffffffffffffffffffffffffff16906020019092919080359060200190929190505050610f9b565b005b610545600480360360608110156104ef57600080fd5b81019080803573ffffffffffffffffffffffffffffffffffffffff169060200190929190803573ffffffffffffffffffffffffffffffffffffffff1690602001909291908035906020019092919050505061100b565b005b6105736004803603602081101561055d57600080fd5b810190808035906020019092919050505061102b565b604051808273ffffffffffffffffffffffffffffffffffffffff1673ffffffffffffffffffffffffffffffffffffffff16815260200191505060405180910390f35b6105e1600480360360208110156105cb57600080fd5b810190808035906020019092919050505061105e565b604051808273ffffffffffffffffffffffffffffffffffffffff1673ffffffffffffffffffffffffffffffffffffffff16815260200191505060405180910390f35b6106656004803603602081101561063957600080fd5b81019080803573ffffffffffffffffffffffffffffffffffffffff16906020019092919050505061109b565b6040518082815260200191505060405180910390f35b6106836110e4565b6040518080602001828103825283818151815260200191508051906020019080838360005b838110156106c35780820151818401526020810190506106a8565b50505050905090810190601f1680156106f05780820380516001836020036101000a031916815260200191505b509250505060405180910390f35b61070661111d565b604051808273ffffffffffffffffffffffffffffffffffffffff1673ffffffffffffffffffffffffffffffffffffffff16815260200191505060405180910390f35b610750611142565b6040518080602001828103825283818151815260200191508051906020019080838360005b83811015610790578082015181840152602081019050610775565b50505050905090810190601f1680156107bd5780820380516001836020036101000a031916815260200191505b509250505060405180910390f35b610819600480360360408110156107e157600080fd5b81019080803573ffffffffffffffffffffffffffffffffffffffff16906020019092919080351515906020019092919050505061117f565b005b6108476004803603602081101561083157600080fd5b8101908080359060200190929190505050611352565b6040518082815260200191505060405180910390f35b6108a96004803603604081101561087357600080fd5b81019080803573ffffffffffffffffffffffffffffffffffffffff16906020019092919080359060200190929190505050611367565b005b6109ae600480360360808110156108c157600080fd5b81019080803573ffffffffffffffffffffffffffffffffffffffff169060200190929190803573ffffffffffffffffffffffffffffffffffffffff169060200190929190803590602001909291908035906020019064010000000081111561092857600080fd5b82018360208201111561093a57600080fd5b8035906020019184600183028401116401000000008311171561095c57600080fd5b91908080601f016020809104026020016040519081016040528093929190818152602001838380828437600081840152601f19601f8201169050808301925050505050505091929192905050506114ed565b005b6109b861155f565b6040518080602001828103825283818151815260200191508051906020019080838360005b838110156109f85780820151818401526020810190506109dd565b50505050905090810190601f168015610a255780820380516001836020036101000a031916815260200191505b509250505060405180910390f35b610a5f60048036036020811015610a4957600080fd5b8101908080359060200190929190505050611598565b604051808273ffffffffffffffffffffffffffffffffffffffff1673ffffffffffffffffffffffffffffffffffffffff16815260200191505060405180910390f35b610b0360048036036040811015610ab757600080fd5b81019080803573ffffffffffffffffffffffffffffffffffffffff169060200190929190803573ffffffffffffffffffffffffffffffffffffffff1690602001909291905050506115cb565b604051808215151515815260200191505060405180910390f35b610b7f60048036036040811015610b3357600080fd5b81019080803573ffffffffffffffffffffffffffffffffffffffff169060200190929190803573ffffffffffffffffffffffffffffffffffffffff16906020019092919050505061165f565b604051808215151515815260200191505060405180910390f35b610bc560048036036020811015610baf57600080fd5b810190808035906020019092919050505061168e565b6040518084815260200183815260200182151515158152602001935050505060405180910390f35b60006301ffc9a760e01b7bffffffffffffffffffffffffffffffffffffffffffffffffffffffff1916827bffffffffffffffffffffffffffffffffffffffffffffffffffffffff19161480610c8657506380ac58cd60e01b7bffffffffffffffffffffffffffffffffffffffffffffffffffffffff1916827bffffffffffffffffffffffffffffffffffffffffffffffffffffffff1916145b9050919050565b60606040518060400160405280600e81526020017f5032504d61726b6574706c616365000000000000000000000000000000000000815250905090565b60006001805490508210610d46576040517f08c379a00000000000000000000000000000000000000000000000000000000081526004018080602001828103825260158152602001807f4d75737420626520612076616c6964204173736574000000000000000000000081525060200191505060405180910390fd5b6004600083815260200190815260200160002060009054906101000a900473ffffffffffffffffffffffffffffffffffffffff169050919050565b3373ffffffffffffffffffffffffffffffffffffffff166002600083815260200190815260200160002060009054906101000a900473ffffffffffffffffffffffffffffffffffffffff1673ffffffffffffffffffffffffffffffffffffffff161480610e4c57503373ffffffffffffffffffffffffffffffffffffffff166004600083815260200190815260200160002060009054906101000a900473ffffffffffffffffffffffffffffffffffffffff1673ffffffffffffffffffffffffffffffffffffffff16145b80610f17575060011515600560006002600085815260200190815260200160002060009054906101000a900473ffffffffffffffffffffffffffffffffffffffff1673ffffffffffffffffffffffffffffffffffffffff1673ffffffffffffffffffffffffffffffffffffffff16815260200190815260200160002060003373ffffffffffffffffffffffffffffffffffffffff1673ffffffffffffffffffffffffffffffffffffffff16815260200190815260200160002060009054906101000a900460ff161515145b610f6c576040517f08c379a000000000000000000000000000000000000000000000000000000000815260040180806020018281038252602281526020018061219e6022913960400191505060405180910390fd5b610f7682826116db565b5050565b600063150b7a0260e01b9050949350505050565b6000600180549050905090565b610fa68383836117bf565b610ffb576040517f08c379a00000000000000000000000000000000000000000000000000000000081526004018080602001828103825260388152602001806121666038913960400191505060405180910390fd5b611006838383611ace565b505050565b611026838383604051806020016040528060008152506114ed565b505050565b60046020528060005260406000206000915054906101000a900473ffffffffffffffffffffffffffffffffffffffff1681565b60006002600083815260200190815260200160002060009054906101000a900473ffffffffffffffffffffffffffffffffffffffff169050919050565b6000600360008373ffffffffffffffffffffffffffffffffffffffff1673ffffffffffffffffffffffffffffffffffffffff168152602001908152602001600020549050919050565b6040518060400160405280600e81526020017f5032504d61726b6574706c61636500000000000000000000000000000000000081525081565b6000809054906101000a900473ffffffffffffffffffffffffffffffffffffffff1681565b60606040518060400160405280600681526020017f5032504d4b540000000000000000000000000000000000000000000000000000815250905090565b60018061118a575060005b9050806111ff576040517f08c379a00000000000000000000000000000000000000000000000000000000081526004018080602001828103825260188152602001807f4d75737420456e7465722054727565206f722046616c7365000000000000000081525060200191505060405180910390fd5b3373ffffffffffffffffffffffffffffffffffffffff168273ffffffffffffffffffffffffffffffffffffffff1614156112a1576040517f08c379a00000000000000000000000000000000000000000000000000000000081526004018080602001828103825260178152602001807f43616e6e6f7420617070726f766520796f757273656c6600000000000000000081525060200191505060405180910390fd5b600073ffffffffffffffffffffffffffffffffffffffff168273ffffffffffffffffffffffffffffffffffffffff161415611344576040517f08c379a000000000000000000000000000000000000000000000000000000000815260040180806020018281038252601d8152602001807f43616e6e6f7420417070726f76652061205a65726f204164647265737300000081525060200191505060405180910390fd5b61134e8282611c73565b5050565b600061136082600033611d74565b9050919050565b600073ffffffffffffffffffffffffffffffffffffffff168273ffffffffffffffffffffffffffffffffffffffff16141561140a576040517f08c379a00000000000000000000000000000000000000000000000000000000081526004018080602001828103825260168152602001807f416464726573732043616e6e6f74206265204e554c4c0000000000000000000081525060200191505060405180910390fd5b3373ffffffffffffffffffffffffffffffffffffffff166002600083815260200190815260200160002060009054906101000a900473ffffffffffffffffffffffffffffffffffffffff1673ffffffffffffffffffffffffffffffffffffffff16146114de576040517f08c379a00000000000000000000000000000000000000000000000000000000081526004018080602001828103825260148152602001807f53656e646572204d757374206265204f776e657200000000000000000000000081525060200191505060405180910390fd5b6114e9338383611ace565b5050565b6114f88484846117bf565b61154d576040517f08c379a00000000000000000000000000000000000000000000000000000000081526004018080602001828103825260388152602001806121666038913960400191505060405180910390fd5b61155984848484611eaa565b50505050565b6040518060400160405280600681526020017f5032504d4b54000000000000000000000000000000000000000000000000000081525081565b60026020528060005260406000206000915054906101000a900473ffffffffffffffffffffffffffffffffffffffff1681565b6000600560008473ffffffffffffffffffffffffffffffffffffffff1673ffffffffffffffffffffffffffffffffffffffff16815260200190815260200160002060008373ffffffffffffffffffffffffffffffffffffffff1673ffffffffffffffffffffffffffffffffffffffff16815260200190815260200160002060009054906101000a900460ff16905092915050565b60056020528160005260406000206020528060005260406000206000915091509054906101000a900460ff1681565b600080600080600185815481106116a157fe5b9060005260206000209060030201905080600001549350806001015492508060020160009054906101000a900460ff169150509193909250565b816004600083815260200190815260200160002060006101000a81548173ffffffffffffffffffffffffffffffffffffffff021916908373ffffffffffffffffffffffffffffffffffffffff160217905550808273ffffffffffffffffffffffffffffffffffffffff166002600084815260200190815260200160002060009054906101000a900473ffffffffffffffffffffffffffffffffffffffff1673ffffffffffffffffffffffffffffffffffffffff167f8c5be1e5ebec7d5bd14f71427d1e84f3dd0314c0f7b2291e5b200ac8c7c3b92560405160405180910390a45050565b60003073ffffffffffffffffffffffffffffffffffffffff168473ffffffffffffffffffffffffffffffffffffffff1614611ac357600073ffffffffffffffffffffffffffffffffffffffff168373ffffffffffffffffffffffffffffffffffffffff161415611897576040517f08c379a000000000000000000000000000000000000000000000000000000000815260040180806020018281038252601d8152602001807f43616e6e6f742053656e6420746f2061205a65726f204164647265737300000081525060200191505060405180910390fd5b6001805490508210611911576040517f08c379a00000000000000000000000000000000000000000000000000000000081526004018080602001828103825260158152602001807f4d75737420626520612076616c6964204173736574000000000000000000000081525060200191505060405180910390fd5b3373ffffffffffffffffffffffffffffffffffffffff168473ffffffffffffffffffffffffffffffffffffffff1614806119a957503373ffffffffffffffffffffffffffffffffffffffff166004600084815260200190815260200160002060009054906101000a900473ffffffffffffffffffffffffffffffffffffffff1673ffffffffffffffffffffffffffffffffffffffff16145b80611a6d5750600560006002600085815260200190815260200160002060009054906101000a900473ffffffffffffffffffffffffffffffffffffffff1673ffffffffffffffffffffffffffffffffffffffff1673ffffffffffffffffffffffffffffffffffffffff16815260200190815260200160002060003373ffffffffffffffffffffffffffffffffffffffff1673ffffffffffffffffffffffffffffffffffffffff16815260200190815260200160002060009054906101000a900460ff165b611ac2576040517f08c379a00000000000000000000000000000000000000000000000000000000081526004018080602001828103825260388152602001806121666038913960400191505060405180910390fd5b5b600190509392505050565b600360008373ffffffffffffffffffffffffffffffffffffffff1673ffffffffffffffffffffffffffffffffffffffff168152602001908152602001600020600081548092919060010191905055503073ffffffffffffffffffffffffffffffffffffffff168273ffffffffffffffffffffffffffffffffffffffff161415611b71576004600082815260200190815260200160002060009054906101000a9050505b600360008473ffffffffffffffffffffffffffffffffffffffff1673ffffffffffffffffffffffffffffffffffffffff1681526020019081526020016000206000815480929190600190039190505550816002600083815260200190815260200160002060006101000a81548173ffffffffffffffffffffffffffffffffffffffff021916908373ffffffffffffffffffffffffffffffffffffffff160217905550808273ffffffffffffffffffffffffffffffffffffffff168473ffffffffffffffffffffffffffffffffffffffff167fddf252ad1be2c89b69c2b068fc378daa952ba7f163c4a11628f55a4df523b3ef60405160405180910390a4505050565b80600560003373ffffffffffffffffffffffffffffffffffffffff1673ffffffffffffffffffffffffffffffffffffffff16815260200190815260200160002060008473ffffffffffffffffffffffffffffffffffffffff1673ffffffffffffffffffffffffffffffffffffffff16815260200190815260200160002060006101000a81548160ff0219169083151502179055508173ffffffffffffffffffffffffffffffffffffffff163373ffffffffffffffffffffffffffffffffffffffff167f17307eab39ab6107e8899845ad3d59bd9653f200f220920489ca2b5937696c3183604051808215151515815260200191505060405180910390a35050565b6000611d7e612113565b60405180606001604052806001805490508152602001868152602001851515815250905060018190806001815401808255809150509060018203906000526020600020906003020160009091929091909150600082015181600001556020820151816001015560408201518160020160006101000a81548160ff021916908315150217905550505050600060018080549050039050611e1f60008583611ace565b7fcb5c6524076627c283d68f8fae8d18113afbf58507fa976e13c46ec1859423eb84828888604051808573ffffffffffffffffffffffffffffffffffffffff1673ffffffffffffffffffffffffffffffffffffffff1681526020018481526020018381526020018215151515815260200194505050505060405180910390a180925050509392505050565b611eb684848484611f1c565b611f0b576040517f08c379a000000000000000000000000000000000000000000000000000000000815260040180806020018281038252602d8152602001806121c0602d913960400191505060405180910390fd5b611f16848484611ace565b50505050565b6000611f2784612100565b611f3457600190506120f8565b60008473ffffffffffffffffffffffffffffffffffffffff1663150b7a02338887876040518563ffffffff1660e01b8152600401808573ffffffffffffffffffffffffffffffffffffffff1673ffffffffffffffffffffffffffffffffffffffff1681526020018473ffffffffffffffffffffffffffffffffffffffff1673ffffffffffffffffffffffffffffffffffffffff16815260200183815260200180602001828103825283818151815260200191508051906020019080838360005b8381101561200f578082015181840152602081019050611ff4565b50505050905090810190601f16801561203c5780820380516001836020036101000a031916815260200191505b5095505050505050602060405180830381600087803b15801561205e57600080fd5b505af1158015612072573d6000803e3d6000fd5b505050506040513d602081101561208857600080fd5b810190808051906020019092919050505090506040518080612137602f9139602f01905060405180910390207bffffffffffffffffffffffffffffffffffffffffffffffffffffffff1916817bffffffffffffffffffffffffffffffffffffffffffffffffffffffff1916149150505b949350505050565b600080823b905060008111915050919050565b60405180606001604052806000815260200160008152602001600015158152509056fe6f6e455243373231526563656976656428616464726573732c616464726573732c75696e743235362c6279746573294d6573736167652e53656e646572206d75737420626520546f6b656e204f776e65722c206f7220417070726f766564206279204f776e65724d6573736167652e53656e646572206d75737420626520546f6b656e204f776e6572546f2041646472657373204d7573742062652043617061626c65206f6620526563656976696e6720546f6b656ea265627a7a723158207baa610606650da8dd1c9a88501d279b6b9a92d15b7205be0df9bcec6bac23aa64736f6c634300050c0032",
  "source": "pragma solidity ^0.5.12;\nimport \"./IERC721.sol\";\nimport \"./IERC721Receiver.sol\";\nimport \"./ERC721Holder.sol\";\nimport \"./Ownable.sol\";\n\ncontract AssetContract is IERC721, Ownable, ERC721Holder{\n    \n    //Names of dApp and token symbol\n    string public constant dAppName = \"P2PMarketplace\";\n    string public constant globalTokenSymbol = \"P2PMKT\";\n\n    //Values used to complete ERC721 compatability check before safeTransfer functions\n    bytes4 internal constant IERC721ReturnValue = bytes4(keccak256(\"onERC721Received(address,address,uint256,bytes)\"));\n    bytes4 private constant _INTERFACE_ID_ERC721 = 0x80ac58cd;\n    bytes4 private constant _INTERFACE_ID_ERC165 = 0x01ffc9a7;\n\n    function supportsInterface(bytes4 _interfaceId) external pure returns(bool){\n        return (_interfaceId == _INTERFACE_ID_ERC165 || _interfaceId == _INTERFACE_ID_ERC721);\n    }\n\n    constructor() public{\n        owner = msg.sender;\n    }\n    \n    //Structure that stores token information for each Asset\n    struct Asset {\n        uint256 assetId;\n        uint256 assetValue;\n        bool currentlyBorrowed;  \n    }\n    \n    Asset[] itemsForOffer;\n\n    //Mapping that links owner to Asset and Assets\n    mapping (uint256 => address) public AssetIndextoOwner;\n    mapping (address => uint256) AssetOwnershipCount;\n\n    /** \n    * Mapping to be ERC721 Compliant\n    */\n    mapping (uint256 => address) public AssetIndexToApproved;\n    //Double Mapping for Approve All Tokens Functions (MyAddress => OperatorAddress => True/False) \n    mapping (address => mapping (address => bool)) public  _operatorApprovals;\n\n    \n    event NewAssetCreation(address owner, uint256 newAssetId, uint256 assetValue, bool currentlyBorrowed);\n\n    function balanceOf(address owner) external view returns (uint256){\n        return AssetOwnershipCount[owner];\n    }\n\n    /*\n     * @dev Creates new Asset Token.\n     *\n     * assetValue is the value of real world Asset\n     */ \n    function createAsset(uint256 assetValue) public returns (uint256){\n\n        //Create new Asset, send it to msg.sender\n        return _createAsset(assetValue, false, msg.sender);\n    }\n\n    /*\n     * @dev Returns the total number of tokens in circulation.\n     */\n    function totalSupply() external view returns (uint256){\n        return itemsForOffer.length;\n    }\n\n    /*\n     * @dev Returns the name of the token.\n     */\n    function name() external view returns (string memory){\n        return dAppName;\n    }\n\n    /*\n     * @dev Returns the symbol of the token.\n     */\n    function symbol() external view returns (string memory){\n        return globalTokenSymbol;\n    }\n\n    /**\n     * @dev Returns the owner of the `tokenId` token.\n     *\n     * Requirements:\n     *\n     * - `tokenId` must exist.\n     */\n    function ownerOf(uint256 _tokenId) external view returns (address){\n        return AssetIndextoOwner[_tokenId];\n    }\n    \n    //Get Asset Info Function\n    //Input Asset and get out all cat details\n    function getAssetInfo(uint256 _index) external view \n    returns (\n        uint256 assetId, \n        uint256 assetValue, \n        bool currentlyBorrowed)\n            {\n                Asset storage AssetInfo = itemsForOffer[_index];\n\n                assetId = AssetInfo.assetId;\n                assetValue = uint256(AssetInfo.assetValue);\n                currentlyBorrowed = bool(AssetInfo.currentlyBorrowed);\n            }\n\n     /* @dev Transfers `tokenId` token from `msg.sender` to `to`.\n     * Requirements:\n     * - `to` cannot be the zero address.\n     * - `to` can not be the contract address.\n     * - `tokenId` token must be owned by `msg.sender`.\n     * Emits a {Transfer} event.\n     */\n    function transfer(address to, uint256 tokenId) external{\n        require(to != address(0x0),'Address Cannot be NULL');\n        require(AssetIndextoOwner[tokenId] == msg.sender, 'Sender Must be Owner');\n    \n        \n        _transfer(msg.sender, to, tokenId);\n    }\n\n    // Internal function which will be used by transfer to swap token ownership\n    function _transfer(address _from, address _to, uint256 _tokenId) internal {\n        AssetOwnershipCount[_to] ++;\n        if (_to == address(this)){\n            AssetIndexToApproved[_tokenId];\n        }\n        \n        AssetOwnershipCount[_from] --;\n        AssetIndextoOwner[_tokenId] = _to;\n\n        emit Transfer(_from, _to, _tokenId);\n    }\n\n\n// CREATE NEW Asset FUNCTION \n    function _createAsset(uint256 _assetValue, bool _currentlyBorrowed, address _owner) internal returns(uint256){\n        \n        Asset memory _Asset = Asset({\n            assetId: itemsForOffer.length,\n            assetValue: uint256(_assetValue),\n            currentlyBorrowed: bool(_currentlyBorrowed)\n        });\n\n        itemsForOffer.push(_Asset);\n\n        uint256 newAssetId = (itemsForOffer.length)-1;\n\n        _transfer(address(0x0), _owner, newAssetId);\n\n        emit NewAssetCreation(_owner, newAssetId, _assetValue, _currentlyBorrowed);\n\n        return newAssetId;\n    }\n\n    /** \n    * Safetransfer functions that check the address can recieve ERC721 tokens before sending\n    * Uses function _checkERC721Support to check for receivability\n    * Ensures the address can handle token but not that it is correct address\n    */\n    function safeTransferFrom(address _from, address _to, uint256 _tokenId, bytes memory data) public{\n        require( _checkTransferParameters(_from, _to, _tokenId) , \"Message.Sender must be Token Owner, or Approved by Owner\");\n        _safeTransfer(_from, _to, _tokenId, data);\n    \n    }\n\n    function safeTransferFrom(address _from, address _to, uint256 _tokenId) external{\n        safeTransferFrom(_from, _to, _tokenId, \"\");\n    }\n\n\n    function transferFrom(address _from, address _to, uint256 _tokenId) external{\n        require( _checkTransferParameters(_from, _to, _tokenId) , \"Message.Sender must be Token Owner, or Approved by Owner\");\n        _transfer(_from, _to, _tokenId);\n    }\n\n    function _safeTransfer(address _from, address _to, uint256 _tokenId, bytes memory _data) internal {\n        require(_checkERC721Support(_from, _to, _tokenId, _data), \"To Address Must be Capable of Receiving Token\");\n        _transfer(_from, _to, _tokenId);\n    }\n\n    /**\n    * Function to check that address is able to receive ERC721 token address\n    * Utilizes IERC721Receiver.sol to complete check vs IERC721ReturnValue\n     */\n    function _checkERC721Support(address _from, address _to, uint256 _tokenId, bytes memory _data) internal returns(bool){\n        if( !_isContract(_to) ){\n            return true;\n        }\n        \n        //Call onERC721Received at _to address\n        bytes4 returnData = IERC721Receiver(_to).onERC721Received(msg.sender, _from, _tokenId, _data);\n        \n        //Check that return value is equal to ERC721 token standards\n        return returnData == IERC721ReturnValue;\n    }\n\n    function _isContract(address _to) view internal returns(bool){\n            uint256 size;\n            assembly{\n                size := extcodesize(_to)\n            }\n            return size > 0;\n    }\n\n    /*\n     * @dev Checks Owner of Token, Address is not (0x0), and tokenId is valid.\n     * Returns true if they all are valid.\n     * Used in transfer functions to ensure that parameters are met.\n     */\n    function _checkTransferParameters(address _from, address _to, uint256 _tokenId) internal view returns(bool){\n        if(_from != address(this)){\n        require(_to != address (0x0), \"Cannot Send to a Zero Address\");\n        require((_tokenId < itemsForOffer.length), 'Must be a valid Asset');\n        require(_from == msg.sender || \n                AssetIndexToApproved[_tokenId] == msg.sender || \n                _operatorApprovals[AssetIndextoOwner[_tokenId]][msg.sender],\n                \"Message.Sender must be Token Owner, or Approved by Owner\");\n        }\n\n        return true;\n    }\n\n    /*\n     * @dev Checks the owner of a given token.\n     * Returns true if they are the owner.\n     * Used in transfer functions to ensure that msg.sender is owner of token \n     */\n    function _checkOwnership(address _toCheck, uint256 _tokenId) internal view returns(bool){\n        if(_toCheck != address(this)){\n        require(_toCheck == AssetIndextoOwner[_tokenId], \"Message.Sender must be Token Owner\");\n        }\n        return true;\n    }\n\n    /**\n    *\n    * Required Mapping to be ERC721 compliant\n    * Not used in this contract as design is structured different\n    *\n     */\n    function approve(address _approved, uint256 _tokenId) external{\n        require(\n            AssetIndextoOwner[_tokenId] == msg.sender || \n            AssetIndexToApproved[_tokenId] == msg.sender || \n            _operatorApprovals[AssetIndextoOwner[_tokenId]][msg.sender] == true, \"Message.Sender must be Token Owner\");\n        \n        _approve(_approved, _tokenId);\n    }\n\n    function _approve(address _approved, uint256 _tokenId) internal{\n        \n        AssetIndexToApproved[_tokenId] = _approved;\n        \n        emit Approval(AssetIndextoOwner[_tokenId], _approved, _tokenId);\n    }\n\n    function setApprovalForAll(address _operator, bool _approved) external{\n        require(_approved = true || false, \"Must Enter True or False\");\n        require(_operator != msg.sender, \"Cannot approve yourself\");\n        require(_operator != address (0x0), \"Cannot Approve a Zero Address\");\n        \n        _approvalForAll(_operator, _approved);\n    }\n\n    function _approvalForAll(address _operator, bool _approved) internal {\n        _operatorApprovals[msg.sender][_operator] = _approved;\n\n        emit ApprovalForAll(msg.sender, _operator, _approved);\n    }\n\n    function getApproved(uint256 _tokenId) external view returns (address){\n        require((_tokenId < itemsForOffer.length), 'Must be a valid Asset');\n\n        return (AssetIndexToApproved[_tokenId]);\n    }\n\n    function isApprovedForAll(address _owner, address _operator) external view returns (bool){\n        return _operatorApprovals[_owner][_operator];\n    }\n}    ",
  "sourcePath": "/Users/Kaiju/Desktop/Courses/Hackathons/HackFS/contracts/AssetContract.sol",
  "compiler": {
    "name": "solc",
    "version": "0.5.12+commit.7709ece9.Emscripten.clang"
  },
  "schemaVersion": "3.4.1",
  "updatedAt": "2021-07-27T16:29:33.082Z",
  "devdoc": {
    "methods": {
      "onERC721Received(address,address,uint256,bytes)": {
        "details": "See {IERC721Receiver-onERC721Received}.     * Always returns `IERC721Receiver.onERC721Received.selector`."
      },
      "ownerOf(uint256)": {
        "details": "Returns the owner of the `tokenId` token.     * Requirements:     * - `tokenId` must exist."
      }
    }
  },
  "userdoc": {
    "methods": {
      "approve(address,uint256)": {
        "notice": "* Required Mapping to be ERC721 compliant Not used in this contract as design is structured different     "
      },
      "safeTransferFrom(address,address,uint256,bytes)": {
        "notice": "Safetransfer functions that check the address can recieve ERC721 tokens before sending Uses function _checkERC721Support to check for receivability Ensures the address can handle token but not that it is correct address"
      }
    }
  }
}