{
  "contractName": "P2PContract",
  "abi": [
    {
      "anonymous": false,
      "inputs": [
        {
          "indexed": true,
          "internalType": "address",
          "name": "owner",
          "type": "address"
        },
        {
          "indexed": true,
          "internalType": "address",
          "name": "approved",
          "type": "address"
        },
        {
          "indexed": true,
          "internalType": "uint256",
          "name": "tokenId",
          "type": "uint256"
        }
      ],
      "name": "Approval",
      "type": "event"
    },
    {
      "anonymous": false,
      "inputs": [
        {
          "indexed": true,
          "internalType": "address",
          "name": "owner",
          "type": "address"
        },
        {
          "indexed": true,
          "internalType": "address",
          "name": "operator",
          "type": "address"
        },
        {
          "indexed": false,
          "internalType": "bool",
          "name": "approved",
          "type": "bool"
        }
      ],
      "name": "ApprovalForAll",
      "type": "event"
    },
    {
      "anonymous": false,
      "inputs": [
        {
          "indexed": false,
          "internalType": "address",
          "name": "owner",
          "type": "address"
        },
        {
          "indexed": false,
          "internalType": "uint256",
          "name": "kittenId",
          "type": "uint256"
        },
        {
          "indexed": false,
          "internalType": "uint256",
          "name": "momId",
          "type": "uint256"
        },
        {
          "indexed": false,
          "internalType": "uint256",
          "name": "dadId",
          "type": "uint256"
        },
        {
          "indexed": false,
          "internalType": "uint256",
          "name": "genes",
          "type": "uint256"
        }
      ],
      "name": "Birth",
      "type": "event"
    },
    {
      "anonymous": false,
      "inputs": [
        {
          "indexed": true,
          "internalType": "address",
          "name": "from",
          "type": "address"
        },
        {
          "indexed": true,
          "internalType": "address",
          "name": "to",
          "type": "address"
        },
        {
          "indexed": true,
          "internalType": "uint256",
          "name": "tokenId",
          "type": "uint256"
        }
      ],
      "name": "Transfer",
      "type": "event"
    },
    {
      "constant": true,
      "inputs": [
        {
          "internalType": "uint256",
          "name": "",
          "type": "uint256"
        }
      ],
      "name": "P2PIndexToApproved",
      "outputs": [
        {
          "internalType": "address",
          "name": "",
          "type": "address"
        }
      ],
      "payable": false,
      "stateMutability": "view",
      "type": "function"
    },
    {
      "constant": true,
      "inputs": [
        {
          "internalType": "uint256",
          "name": "",
          "type": "uint256"
        }
      ],
      "name": "P2PIndextoOwner",
      "outputs": [
        {
          "internalType": "address",
          "name": "",
          "type": "address"
        }
      ],
      "payable": false,
      "stateMutability": "view",
      "type": "function"
    },
    {
      "constant": true,
      "inputs": [
        {
          "internalType": "address",
          "name": "",
          "type": "address"
        },
        {
          "internalType": "address",
          "name": "",
          "type": "address"
        }
      ],
      "name": "_operatorApprovals",
      "outputs": [
        {
          "internalType": "bool",
          "name": "",
          "type": "bool"
        }
      ],
      "payable": false,
      "stateMutability": "view",
      "type": "function"
    },
    {
      "constant": true,
      "inputs": [],
      "name": "dAppName",
      "outputs": [
        {
          "internalType": "string",
          "name": "",
          "type": "string"
        }
      ],
      "payable": false,
      "stateMutability": "view",
      "type": "function"
    },
    {
      "constant": true,
      "inputs": [],
      "name": "gen0_P2PCounter",
      "outputs": [
        {
          "internalType": "uint256",
          "name": "",
          "type": "uint256"
        }
      ],
      "payable": false,
      "stateMutability": "view",
      "type": "function"
    },
    {
      "constant": true,
      "inputs": [],
      "name": "gen0_P2PLimit",
      "outputs": [
        {
          "internalType": "uint256",
          "name": "",
          "type": "uint256"
        }
      ],
      "payable": false,
      "stateMutability": "view",
      "type": "function"
    },
    {
      "constant": true,
      "inputs": [],
      "name": "globalTokenSymbol",
      "outputs": [
        {
          "internalType": "string",
          "name": "",
          "type": "string"
        }
      ],
      "payable": false,
      "stateMutability": "view",
      "type": "function"
    },
    {
      "constant": true,
      "inputs": [],
      "name": "owner",
      "outputs": [
        {
          "internalType": "address",
          "name": "",
          "type": "address"
        }
      ],
      "payable": false,
      "stateMutability": "view",
      "type": "function"
    },
    {
      "constant": true,
      "inputs": [
        {
          "internalType": "bytes4",
          "name": "_interfaceId",
          "type": "bytes4"
        }
      ],
      "name": "supportsInterface",
      "outputs": [
        {
          "internalType": "bool",
          "name": "",
          "type": "bool"
        }
      ],
      "payable": false,
      "stateMutability": "pure",
      "type": "function"
    },
    {
      "constant": true,
      "inputs": [
        {
          "internalType": "address",
          "name": "owner",
          "type": "address"
        }
      ],
      "name": "balanceOf",
      "outputs": [
        {
          "internalType": "uint256",
          "name": "",
          "type": "uint256"
        }
      ],
      "payable": false,
      "stateMutability": "view",
      "type": "function"
    },
    {
      "constant": true,
      "inputs": [],
      "name": "totalSupply",
      "outputs": [
        {
          "internalType": "uint256",
          "name": "",
          "type": "uint256"
        }
      ],
      "payable": false,
      "stateMutability": "view",
      "type": "function"
    },
    {
      "constant": true,
      "inputs": [],
      "name": "name",
      "outputs": [
        {
          "internalType": "string",
          "name": "",
          "type": "string"
        }
      ],
      "payable": false,
      "stateMutability": "view",
      "type": "function"
    },
    {
      "constant": true,
      "inputs": [],
      "name": "symbol",
      "outputs": [
        {
          "internalType": "string",
          "name": "",
          "type": "string"
        }
      ],
      "payable": false,
      "stateMutability": "view",
      "type": "function"
    },
    {
      "constant": true,
      "inputs": [
        {
          "internalType": "uint256",
          "name": "_tokenId",
          "type": "uint256"
        }
      ],
      "name": "ownerOf",
      "outputs": [
        {
          "internalType": "address",
          "name": "",
          "type": "address"
        }
      ],
      "payable": false,
      "stateMutability": "view",
      "type": "function"
    },
    {
      "constant": false,
      "inputs": [
        {
          "internalType": "address",
          "name": "to",
          "type": "address"
        },
        {
          "internalType": "uint256",
          "name": "tokenId",
          "type": "uint256"
        }
      ],
      "name": "transfer",
      "outputs": [],
      "payable": false,
      "stateMutability": "nonpayable",
      "type": "function"
    },
    {
      "constant": false,
      "inputs": [
        {
          "internalType": "uint256",
          "name": "_genes",
          "type": "uint256"
        }
      ],
      "name": "createP2PGen0",
      "outputs": [
        {
          "internalType": "uint256",
          "name": "",
          "type": "uint256"
        }
      ],
      "payable": false,
      "stateMutability": "nonpayable",
      "type": "function"
    },
    {
      "constant": true,
      "inputs": [
        {
          "internalType": "uint256",
          "name": "P2P_index",
          "type": "uint256"
        }
      ],
      "name": "getP2PInfo",
      "outputs": [
        {
          "internalType": "uint256",
          "name": "genes",
          "type": "uint256"
        },
        {
          "internalType": "uint256",
          "name": "birthTime",
          "type": "uint256"
        },
        {
          "internalType": "uint256",
          "name": "momId",
          "type": "uint256"
        },
        {
          "internalType": "uint256",
          "name": "dadId",
          "type": "uint256"
        },
        {
          "internalType": "uint256",
          "name": "generation",
          "type": "uint256"
        }
      ],
      "payable": false,
      "stateMutability": "view",
      "type": "function"
    },
    {
      "constant": false,
      "inputs": [
        {
          "internalType": "address",
          "name": "_approved",
          "type": "address"
        },
        {
          "internalType": "uint256",
          "name": "_tokenId",
          "type": "uint256"
        }
      ],
      "name": "approve",
      "outputs": [],
      "payable": false,
      "stateMutability": "nonpayable",
      "type": "function"
    },
    {
      "constant": false,
      "inputs": [
        {
          "internalType": "address",
          "name": "_operator",
          "type": "address"
        },
        {
          "internalType": "bool",
          "name": "_approved",
          "type": "bool"
        }
      ],
      "name": "setApprovalForAll",
      "outputs": [],
      "payable": false,
      "stateMutability": "nonpayable",
      "type": "function"
    },
    {
      "constant": true,
      "inputs": [
        {
          "internalType": "uint256",
          "name": "_tokenId",
          "type": "uint256"
        }
      ],
      "name": "getApproved",
      "outputs": [
        {
          "internalType": "address",
          "name": "",
          "type": "address"
        }
      ],
      "payable": false,
      "stateMutability": "view",
      "type": "function"
    },
    {
      "constant": true,
      "inputs": [
        {
          "internalType": "address",
          "name": "_owner",
          "type": "address"
        },
        {
          "internalType": "address",
          "name": "_operator",
          "type": "address"
        }
      ],
      "name": "isApprovedForAll",
      "outputs": [
        {
          "internalType": "bool",
          "name": "",
          "type": "bool"
        }
      ],
      "payable": false,
      "stateMutability": "view",
      "type": "function"
    },
    {
      "constant": false,
      "inputs": [
        {
          "internalType": "address",
          "name": "_from",
          "type": "address"
        },
        {
          "internalType": "address",
          "name": "_to",
          "type": "address"
        },
        {
          "internalType": "uint256",
          "name": "_tokenId",
          "type": "uint256"
        }
      ],
      "name": "safeTransferFrom",
      "outputs": [],
      "payable": false,
      "stateMutability": "nonpayable",
      "type": "function"
    },
    {
      "constant": false,
      "inputs": [
        {
          "internalType": "address",
          "name": "_from",
          "type": "address"
        },
        {
          "internalType": "address",
          "name": "_to",
          "type": "address"
        },
        {
          "internalType": "uint256",
          "name": "_tokenId",
          "type": "uint256"
        },
        {
          "internalType": "bytes",
          "name": "data",
          "type": "bytes"
        }
      ],
      "name": "safeTransferFrom",
      "outputs": [],
      "payable": false,
      "stateMutability": "nonpayable",
      "type": "function"
    },
    {
      "constant": false,
      "inputs": [
        {
          "internalType": "address",
          "name": "_from",
          "type": "address"
        },
        {
          "internalType": "address",
          "name": "_to",
          "type": "address"
        },
        {
          "internalType": "uint256",
          "name": "_tokenId",
          "type": "uint256"
        }
      ],
      "name": "transferFrom",
      "outputs": [],
      "payable": false,
      "stateMutability": "nonpayable",
      "type": "function"
    }
  ],
  "bytecode": "0x6080604052336000806101000a81548173ffffffffffffffffffffffffffffffffffffffff021916908373ffffffffffffffffffffffffffffffffffffffff160217905550612489806100536000396000f3fe608060405234801561001057600080fd5b50600436106101585760003560e01c806382afefb3116100c3578063a22cb4651161007c578063a22cb465146107c9578063a9059cbb14610819578063b88d4fde14610867578063cec410521461096c578063e985e9c5146109ef578063edc3bc3f14610a6b57610158565b806382afefb31461058f578063850d7120146105fd5780638da5cb5b1461068057806390e214cf146106ca57806395d89b41146106e85780639f7eaaff1461076b57610158565b80632668141311610115578063266814131461038d57806342842e0e146103cf578063521974491461043d5780636352211e1461045b57806370a08231146104c9578063715bb7131461052157610158565b806301ffc9a71461015d57806306fdde03146101c2578063081812fc14610245578063095ea7b3146102b357806318160ddd1461030157806323b872dd1461031f575b600080fd5b6101a86004803603602081101561017357600080fd5b8101908080357bffffffffffffffffffffffffffffffffffffffffffffffffffffffff19169060200190929190505050610ae7565b604051808215151515815260200191505060405180910390f35b6101ca610b87565b6040518080602001828103825283818151815260200191508051906020019080838360005b8381101561020a5780820151818401526020810190506101ef565b50505050905090810190601f1680156102375780820380516001836020036101000a031916815260200191505b509250505060405180910390f35b6102716004803603602081101561025b57600080fd5b8101908080359060200190929190505050610bc4565b604051808273ffffffffffffffffffffffffffffffffffffffff1673ffffffffffffffffffffffffffffffffffffffff16815260200191505060405180910390f35b6102ff600480360360408110156102c957600080fd5b81019080803573ffffffffffffffffffffffffffffffffffffffff16906020019092919080359060200190929190505050610c7b565b005b610309610e74565b6040518082815260200191505060405180910390f35b61038b6004803603606081101561033557600080fd5b81019080803573ffffffffffffffffffffffffffffffffffffffff169060200190929190803573ffffffffffffffffffffffffffffffffffffffff16906020019092919080359060200190929190505050610e81565b005b6103b9600480360360208110156103a357600080fd5b8101908080359060200190929190505050610ef1565b6040518082815260200191505060405180910390f35b61043b600480360360608110156103e557600080fd5b81019080803573ffffffffffffffffffffffffffffffffffffffff169060200190929190803573ffffffffffffffffffffffffffffffffffffffff16906020019092919080359060200190929190505050610fcf565b005b610445610fef565b6040518082815260200191505060405180910390f35b6104876004803603602081101561047157600080fd5b8101908080359060200190929190505050610ff4565b604051808273ffffffffffffffffffffffffffffffffffffffff1673ffffffffffffffffffffffffffffffffffffffff16815260200191505060405180910390f35b61050b600480360360208110156104df57600080fd5b81019080803573ffffffffffffffffffffffffffffffffffffffff169060200190929190505050611031565b6040518082815260200191505060405180910390f35b61054d6004803603602081101561053757600080fd5b810190808035906020019092919050505061107a565b604051808273ffffffffffffffffffffffffffffffffffffffff1673ffffffffffffffffffffffffffffffffffffffff16815260200191505060405180910390f35b6105bb600480360360208110156105a557600080fd5b81019080803590602001909291905050506110ad565b604051808273ffffffffffffffffffffffffffffffffffffffff1673ffffffffffffffffffffffffffffffffffffffff16815260200191505060405180910390f35b6106056110e0565b6040518080602001828103825283818151815260200191508051906020019080838360005b8381101561064557808201518184015260208101905061062a565b50505050905090810190601f1680156106725780820380516001836020036101000a031916815260200191505b509250505060405180910390f35b610688611119565b604051808273ffffffffffffffffffffffffffffffffffffffff1673ffffffffffffffffffffffffffffffffffffffff16815260200191505060405180910390f35b6106d261113e565b6040518082815260200191505060405180910390f35b6106f0611144565b6040518080602001828103825283818151815260200191508051906020019080838360005b83811015610730578082015181840152602081019050610715565b50505050905090810190601f16801561075d5780820380516001836020036101000a031916815260200191505b509250505060405180910390f35b6107976004803603602081101561078157600080fd5b8101908080359060200190929190505050611181565b604051808681526020018581526020018481526020018381526020018281526020019550505050505060405180910390f35b610817600480360360408110156107df57600080fd5b81019080803573ffffffffffffffffffffffffffffffffffffffff169060200190929190803515159060200190929190505050611230565b005b6108656004803603604081101561082f57600080fd5b81019080803573ffffffffffffffffffffffffffffffffffffffff16906020019092919080359060200190929190505050611403565b005b61096a6004803603608081101561087d57600080fd5b81019080803573ffffffffffffffffffffffffffffffffffffffff169060200190929190803573ffffffffffffffffffffffffffffffffffffffff16906020019092919080359060200190929190803590602001906401000000008111156108e457600080fd5b8201836020820111156108f657600080fd5b8035906020019184600183028401116401000000008311171561091857600080fd5b91908080601f016020809104026020016040519081016040528093929190818152602001838380828437600081840152601f19601f82011690508083019250505050505050919291929050505061160e565b005b610974611680565b6040518080602001828103825283818151815260200191508051906020019080838360005b838110156109b4578082015181840152602081019050610999565b50505050905090810190601f1680156109e15780820380516001836020036101000a031916815260200191505b509250505060405180910390f35b610a5160048036036040811015610a0557600080fd5b81019080803573ffffffffffffffffffffffffffffffffffffffff169060200190929190803573ffffffffffffffffffffffffffffffffffffffff1690602001909291905050506116b9565b604051808215151515815260200191505060405180910390f35b610acd60048036036040811015610a8157600080fd5b81019080803573ffffffffffffffffffffffffffffffffffffffff169060200190929190803573ffffffffffffffffffffffffffffffffffffffff16906020019092919050505061174d565b604051808215151515815260200191505060405180910390f35b60006301ffc9a760e01b7bffffffffffffffffffffffffffffffffffffffffffffffffffffffff1916827bffffffffffffffffffffffffffffffffffffffffffffffffffffffff19161480610b8057506380ac58cd60e01b7bffffffffffffffffffffffffffffffffffffffffffffffffffffffff1916827bffffffffffffffffffffffffffffffffffffffffffffffffffffffff1916145b9050919050565b60606040518060400160405280600e81526020017f5032504d61726b6574706c616365000000000000000000000000000000000000815250905090565b60006002805490508210610c40576040517f08c379a00000000000000000000000000000000000000000000000000000000081526004018080602001828103825260138152602001807f4d75737420626520612076616c6964205032500000000000000000000000000081525060200191505060405180910390fd5b6005600083815260200190815260200160002060009054906101000a900473ffffffffffffffffffffffffffffffffffffffff169050919050565b3373ffffffffffffffffffffffffffffffffffffffff166003600083815260200190815260200160002060009054906101000a900473ffffffffffffffffffffffffffffffffffffffff1673ffffffffffffffffffffffffffffffffffffffff161480610d4657503373ffffffffffffffffffffffffffffffffffffffff166005600083815260200190815260200160002060009054906101000a900473ffffffffffffffffffffffffffffffffffffffff1673ffffffffffffffffffffffffffffffffffffffff16145b80610e11575060011515600660006003600085815260200190815260200160002060009054906101000a900473ffffffffffffffffffffffffffffffffffffffff1673ffffffffffffffffffffffffffffffffffffffff1673ffffffffffffffffffffffffffffffffffffffff16815260200190815260200160002060003373ffffffffffffffffffffffffffffffffffffffff1673ffffffffffffffffffffffffffffffffffffffff16815260200190815260200160002060009054906101000a900460ff161515145b610e66576040517f08c379a00000000000000000000000000000000000000000000000000000000081526004018080602001828103825260228152602001806124066022913960400191505060405180910390fd5b610e70828261177c565b5050565b6000600280549050905090565b610e8c838383611860565b610ee1576040517f08c379a00000000000000000000000000000000000000000000000000000000081526004018080602001828103825260388152602001806123ac6038913960400191505060405180910390fd5b610eec838383611c0f565b505050565b60008060009054906101000a900473ffffffffffffffffffffffffffffffffffffffff1673ffffffffffffffffffffffffffffffffffffffff163373ffffffffffffffffffffffffffffffffffffffff1614610f4c57600080fd5b600a60015410610fa7576040517f08c379a00000000000000000000000000000000000000000000000000000000081526004018080602001828103825260228152602001806123e46022913960400191505060405180910390fd5b600160008154809291906001019190505550610fc860008060008533611dcb565b9050919050565b610fea8383836040518060200160405280600081525061160e565b505050565b600a81565b60006003600083815260200190815260200160002060009054906101000a900473ffffffffffffffffffffffffffffffffffffffff169050919050565b6000600460008373ffffffffffffffffffffffffffffffffffffffff1673ffffffffffffffffffffffffffffffffffffffff168152602001908152602001600020549050919050565b60056020528060005260406000206000915054906101000a900473ffffffffffffffffffffffffffffffffffffffff1681565b60036020528060005260406000206000915054906101000a900473ffffffffffffffffffffffffffffffffffffffff1681565b6040518060400160405280600e81526020017f5032504d61726b6574706c61636500000000000000000000000000000000000081525081565b6000809054906101000a900473ffffffffffffffffffffffffffffffffffffffff1681565b60015481565b60606040518060400160405280600481526020017f434b545900000000000000000000000000000000000000000000000000000000815250905090565b6000806000806000806002878154811061119757fe5b90600052602060002090600202019050806000015495508060010160009054906101000a900467ffffffffffffffff1667ffffffffffffffff1694508060010160089054906101000a900463ffffffff1663ffffffff16935080600101600c9054906101000a900463ffffffff1663ffffffff1692508060010160109054906101000a900461ffff1661ffff1691505091939590929450565b60018061123b575060005b9050806112b0576040517f08c379a00000000000000000000000000000000000000000000000000000000081526004018080602001828103825260188152602001807f4d75737420456e7465722054727565206f722046616c7365000000000000000081525060200191505060405180910390fd5b3373ffffffffffffffffffffffffffffffffffffffff168273ffffffffffffffffffffffffffffffffffffffff161415611352576040517f08c379a00000000000000000000000000000000000000000000000000000000081526004018080602001828103825260178152602001807f43616e6e6f7420617070726f766520796f757273656c6600000000000000000081525060200191505060405180910390fd5b600073ffffffffffffffffffffffffffffffffffffffff168273ffffffffffffffffffffffffffffffffffffffff1614156113f5576040517f08c379a000000000000000000000000000000000000000000000000000000000815260040180806020018281038252601d8152602001807f43616e6e6f7420417070726f76652061205a65726f204164647265737300000081525060200191505060405180910390fd5b6113ff8282611f9d565b5050565b600073ffffffffffffffffffffffffffffffffffffffff168273ffffffffffffffffffffffffffffffffffffffff1614156114a6576040517f08c379a00000000000000000000000000000000000000000000000000000000081526004018080602001828103825260168152602001807f416464726573732043616e6e6f74206265204e554c4c0000000000000000000081525060200191505060405180910390fd5b3073ffffffffffffffffffffffffffffffffffffffff168273ffffffffffffffffffffffffffffffffffffffff16141561152b576040517f08c379a00000000000000000000000000000000000000000000000000000000081526004018080602001828103825260268152602001806123576026913960400191505060405180910390fd5b3373ffffffffffffffffffffffffffffffffffffffff166003600083815260200190815260200160002060009054906101000a900473ffffffffffffffffffffffffffffffffffffffff1673ffffffffffffffffffffffffffffffffffffffff16146115ff576040517f08c379a00000000000000000000000000000000000000000000000000000000081526004018080602001828103825260148152602001807f53656e646572204d757374206265204f776e657200000000000000000000000081525060200191505060405180910390fd5b61160a338383611c0f565b5050565b611619848484611860565b61166e576040517f08c379a00000000000000000000000000000000000000000000000000000000081526004018080602001828103825260388152602001806123ac6038913960400191505060405180910390fd5b61167a8484848461209e565b50505050565b6040518060400160405280600481526020017f434b54590000000000000000000000000000000000000000000000000000000081525081565b6000600660008473ffffffffffffffffffffffffffffffffffffffff1673ffffffffffffffffffffffffffffffffffffffff16815260200190815260200160002060008373ffffffffffffffffffffffffffffffffffffffff1673ffffffffffffffffffffffffffffffffffffffff16815260200190815260200160002060009054906101000a900460ff16905092915050565b60066020528160005260406000206020528060005260406000206000915091509054906101000a900460ff1681565b816005600083815260200190815260200160002060006101000a81548173ffffffffffffffffffffffffffffffffffffffff021916908373ffffffffffffffffffffffffffffffffffffffff160217905550808273ffffffffffffffffffffffffffffffffffffffff166003600084815260200190815260200160002060009054906101000a900473ffffffffffffffffffffffffffffffffffffffff1673ffffffffffffffffffffffffffffffffffffffff167f8c5be1e5ebec7d5bd14f71427d1e84f3dd0314c0f7b2291e5b200ac8c7c3b92560405160405180910390a45050565b60003373ffffffffffffffffffffffffffffffffffffffff168473ffffffffffffffffffffffffffffffffffffffff1614806118fa57503373ffffffffffffffffffffffffffffffffffffffff166005600084815260200190815260200160002060009054906101000a900473ffffffffffffffffffffffffffffffffffffffff1673ffffffffffffffffffffffffffffffffffffffff16145b806119be5750600660006003600085815260200190815260200160002060009054906101000a900473ffffffffffffffffffffffffffffffffffffffff1673ffffffffffffffffffffffffffffffffffffffff1673ffffffffffffffffffffffffffffffffffffffff16815260200190815260200160002060003373ffffffffffffffffffffffffffffffffffffffff1673ffffffffffffffffffffffffffffffffffffffff16815260200190815260200160002060009054906101000a900460ff165b611a13576040517f08c379a00000000000000000000000000000000000000000000000000000000081526004018080602001828103825260388152602001806123ac6038913960400191505060405180910390fd5b8373ffffffffffffffffffffffffffffffffffffffff166003600084815260200190815260200160002060009054906101000a900473ffffffffffffffffffffffffffffffffffffffff1673ffffffffffffffffffffffffffffffffffffffff1614611ae7576040517f08c379a000000000000000000000000000000000000000000000000000000000815260040180806020018281038252601e8152602001807f46726f6d2041646472657373206d75737420626520503250204f776e6572000081525060200191505060405180910390fd5b600073ffffffffffffffffffffffffffffffffffffffff168373ffffffffffffffffffffffffffffffffffffffff161415611b8a576040517f08c379a000000000000000000000000000000000000000000000000000000000815260040180806020018281038252601d8152602001807f43616e6e6f742053656e6420746f2061205a65726f204164647265737300000081525060200191505060405180910390fd5b6002805490508210611c04576040517f08c379a00000000000000000000000000000000000000000000000000000000081526004018080602001828103825260138152602001807f4d75737420626520612076616c6964205032500000000000000000000000000081525060200191505060405180910390fd5b600190509392505050565b600460008373ffffffffffffffffffffffffffffffffffffffff1673ffffffffffffffffffffffffffffffffffffffff16815260200190815260200160002060008154809291906001019190505550600073ffffffffffffffffffffffffffffffffffffffff168373ffffffffffffffffffffffffffffffffffffffff1614611d1957600460008473ffffffffffffffffffffffffffffffffffffffff1673ffffffffffffffffffffffffffffffffffffffff16815260200190815260200160002060008154809291906001900391905055506005600082815260200190815260200160002060006101000a81549073ffffffffffffffffffffffffffffffffffffffff02191690555b816003600083815260200190815260200160002060006101000a81548173ffffffffffffffffffffffffffffffffffffffff021916908373ffffffffffffffffffffffffffffffffffffffff160217905550808273ffffffffffffffffffffffffffffffffffffffff168473ffffffffffffffffffffffffffffffffffffffff167fddf252ad1be2c89b69c2b068fc378daa952ba7f163c4a11628f55a4df523b3ef60405160405180910390a4505050565b6000611dd561230d565b6040518060a001604052808581526020014267ffffffffffffffff1681526020018863ffffffff1681526020018763ffffffff1681526020018661ffff168152509050600281908060018154018082558091505090600182039060005260206000209060020201600090919290919091506000820151816000015560208201518160010160006101000a81548167ffffffffffffffff021916908367ffffffffffffffff16021790555060408201518160010160086101000a81548163ffffffff021916908363ffffffff160217905550606082015181600101600c6101000a81548163ffffffff021916908363ffffffff16021790555060808201518160010160106101000a81548161ffff021916908361ffff16021790555050505060006001600280549050039050611f0c60008583611c0f565b7f0a5311bd2a6608f08a180df2ee7c5946819a649b204b554bb8e39825b2c50ad584828a8a89604051808673ffffffffffffffffffffffffffffffffffffffff1673ffffffffffffffffffffffffffffffffffffffff1681526020018581526020018481526020018381526020018281526020019550505050505060405180910390a1809250505095945050505050565b80600660003373ffffffffffffffffffffffffffffffffffffffff1673ffffffffffffffffffffffffffffffffffffffff16815260200190815260200160002060008473ffffffffffffffffffffffffffffffffffffffff1673ffffffffffffffffffffffffffffffffffffffff16815260200190815260200160002060006101000a81548160ff0219169083151502179055508173ffffffffffffffffffffffffffffffffffffffff163373ffffffffffffffffffffffffffffffffffffffff167f17307eab39ab6107e8899845ad3d59bd9653f200f220920489ca2b5937696c3183604051808215151515815260200191505060405180910390a35050565b6120a9848484611c0f565b6120b584848484612110565b61210a576040517f08c379a000000000000000000000000000000000000000000000000000000000815260040180806020018281038252602d815260200180612428602d913960400191505060405180910390fd5b50505050565b600061211b846122f4565b61212857600190506122ec565b60008473ffffffffffffffffffffffffffffffffffffffff1663150b7a02338887876040518563ffffffff1660e01b8152600401808573ffffffffffffffffffffffffffffffffffffffff1673ffffffffffffffffffffffffffffffffffffffff1681526020018473ffffffffffffffffffffffffffffffffffffffff1673ffffffffffffffffffffffffffffffffffffffff16815260200183815260200180602001828103825283818151815260200191508051906020019080838360005b838110156122035780820151818401526020810190506121e8565b50505050905090810190601f1680156122305780820380516001836020036101000a031916815260200191505b5095505050505050602060405180830381600087803b15801561225257600080fd5b505af1158015612266573d6000803e3d6000fd5b505050506040513d602081101561227c57600080fd5b81019080805190602001909291905050509050604051808061237d602f9139602f01905060405180910390207bffffffffffffffffffffffffffffffffffffffffffffffffffffffff1916817bffffffffffffffffffffffffffffffffffffffffffffffffffffffff1916149150505b949350505050565b600080823b905060008163ffffffff1611915050919050565b6040518060a0016040528060008152602001600067ffffffffffffffff168152602001600063ffffffff168152602001600063ffffffff168152602001600061ffff168152509056fe416464726573732043616e6e6f74206265204f726967696e6174696f6e20436f6e74726163746f6e455243373231526563656976656428616464726573732c616464726573732c75696e743235362c6279746573294d6573736167652e53656e646572206d75737420626520546f6b656e204f776e65722c206f7220417070726f766564206279204f776e65724e6f206d6f72652047656e30206974656d73466f724f6666657220416c6c6f7765644d6573736167652e53656e646572206d75737420626520546f6b656e204f776e6572546f2041646472657373204d7573742062652043617061626c65206f6620526563656976696e6720546f6b656ea265627a7a723158205d3ee55fac02720d9007e1d7ee85628e3cd713eb3a5c837e45ff8085dc44ea5c64736f6c634300050c0032",
  "source": "pragma solidity ^0.5.12;\nimport \"./IERC721.sol\";\nimport \"./IERC721Receiver.sol\";\nimport \"./Ownable.sol\";\n\ncontract P2PContract is IERC721, Ownable{\n    \n    string public constant dAppName = \"P2PMarketplace\";\n    string public constant globalTokenSymbol = \"CKTY\";\n    uint256 public constant gen0_P2PLimit = 10;\n\n    bytes4 internal constant IERC721ReturnValue = bytes4(keccak256(\"onERC721Received(address,address,uint256,bytes)\"));\n\n    bytes4 private constant _INTERFACE_ID_ERC721 = 0x80ac58cd;\n\n    bytes4 private constant _INTERFACE_ID_ERC165 = 0x01ffc9a7;\n\n    uint256 public gen0_P2PCounter;\n\n    function supportsInterface(bytes4 _interfaceId) external pure returns(bool){\n        return (_interfaceId == _INTERFACE_ID_ERC165 || _interfaceId == _INTERFACE_ID_ERC721);\n    }\n\n    struct P2P {\n        uint256 genes;\n        uint64 birthTime;\n        uint32 momId;\n        uint32 dadId;\n        uint16 generation;  \n    }\n    \n    P2P[] itemsForOffer;\n\n    mapping (uint256 => address) public P2PIndextoOwner;\n    mapping (address => uint256) P2POwnershipCount;\n    mapping (uint256 => address) public P2PIndexToApproved;\n\n    //Double Mapping for Approve All Tokens Functions (MyAddress => OperatorAddress => True/False) \n    mapping (address => mapping (address => bool)) public  _operatorApprovals;\n\n\n    event Birth(address owner, uint256 kittenId, uint256 momId, uint256 dadId, uint256 genes);\n\n    function balanceOf(address owner) external view returns (uint256){\n        return P2POwnershipCount[owner];\n    }\n\n    /*\n     * @dev Returns the total number of tokens in circulation.\n     */\n    function totalSupply() external view returns (uint256){\n        return itemsForOffer.length;\n    }\n\n    /*\n     * @dev Returns the name of the token.\n     */\n    function name() external view returns (string memory){\n        return dAppName;\n    }\n\n    /*\n     * @dev Returns the symbol of the token.\n     */\n    function symbol() external view returns (string memory){\n        return globalTokenSymbol;\n    }\n\n    /**\n     * @dev Returns the owner of the `tokenId` token.\n     *\n     * Requirements:\n     *\n     * - `tokenId` must exist.\n     */\n    function ownerOf(uint256 _tokenId) external view returns (address){\n        return P2PIndextoOwner[_tokenId];\n    }\n\n\n     /* @dev Transfers `tokenId` token from `msg.sender` to `to`.\n     * Requirements:\n     * - `to` cannot be the zero address.\n     * - `to` can not be the contract address.\n     * - `tokenId` token must be owned by `msg.sender`.\n     * Emits a {Transfer} event.\n     */\n    function transfer(address to, uint256 tokenId) external{\n        require(to != address(0x0),'Address Cannot be NULL');\n        require(to != address(this),'Address Cannot be Origination Contract');\n        require(P2PIndextoOwner[tokenId] == msg.sender, 'Sender Must be Owner');\n        \n        _transfer(msg.sender, to, tokenId);\n    }\n\n// Internal function which will be used by transfer to swap token ownership\n    function _transfer(address _from, address _to, uint256 _tokenId) internal {\n        P2POwnershipCount[_to] ++;\n        // check to see if gen0 kat\n        if (_from != address(0x0)){\n            P2POwnershipCount[_from] --;\n            delete P2PIndexToApproved[_tokenId];\n        }\n        \n        P2PIndextoOwner[_tokenId] = _to;\n\n        emit Transfer(_from, _to, _tokenId);\n    }\n\n\n// CREATE/BREED NEW CAT FUNCTION \n    function _createP2P(uint256 _momId, uint256 _dadId, uint256 _generation, uint256 _genes, address _owner) internal returns(uint256){\n        \n        P2P memory _P2P = P2P({\n            genes: _genes,\n            birthTime: uint64(now),\n            momId: uint32(_momId),\n            dadId: uint32(_dadId),\n            generation: uint16(_generation)\n        });\n\n        itemsForOffer.push(_P2P);\n\n        uint256 newKittenId = (itemsForOffer.length)-1;\n\n        _transfer(address(0x0), _owner, newKittenId);\n\n        emit Birth(_owner, newKittenId, _momId, _dadId, _genes);\n\n        return newKittenId;\n    }\n\n\n// CREATE GENERATION 0 KAT WITH NO PARENTS\n// OnlyOwner to prevent every user from generating Gen 0 and flooding market\n    function createP2PGen0(uint256 _genes) public onlyOwner returns (uint256) {\n        require(gen0_P2PCounter < gen0_P2PLimit, \"No more Gen0 itemsForOffer Allowed\");\n\n        gen0_P2PCounter++;\n\n        return _createP2P((0x0), (0x0), 0, _genes, msg.sender);\n    }\n\n//Get P2P Info Function\n//Input P2P and get out all cat details\n    function getP2PInfo(uint256 P2P_index) external view \n    returns (\n        uint256 genes, \n        uint256 birthTime, \n        uint256 momId, \n        uint256 dadId, \n        uint256 generation)\n            {\n                P2P storage P2PInfo = itemsForOffer[P2P_index];\n\n                genes = P2PInfo.genes;\n                birthTime = uint256(P2PInfo.birthTime); \n                momId = uint256(P2PInfo.momId); \n                dadId = uint256(P2PInfo.dadId);\n                generation = uint256(P2PInfo.generation);\n            }\n\n    function approve(address _approved, uint256 _tokenId) external{\n        require(\n            P2PIndextoOwner[_tokenId] == msg.sender || \n            P2PIndexToApproved[_tokenId] == msg.sender || \n            _operatorApprovals[P2PIndextoOwner[_tokenId]][msg.sender] == true, \"Message.Sender must be Token Owner\");\n        \n        _approve(_approved, _tokenId);\n    }\n\n    function _approve(address _approved, uint256 _tokenId) internal{\n        \n        P2PIndexToApproved[_tokenId] = _approved;\n        \n        emit Approval(P2PIndextoOwner[_tokenId], _approved, _tokenId);\n    }\n\n    function setApprovalForAll(address _operator, bool _approved) external{\n        require(_approved = true || false, \"Must Enter True or False\");\n        require(_operator != msg.sender, \"Cannot approve yourself\");\n        require(_operator != address (0x0), \"Cannot Approve a Zero Address\");\n        \n        _approvalForAll(_operator, _approved);\n    }\n\n    function _approvalForAll(address _operator, bool _approved) internal {\n        _operatorApprovals[msg.sender][_operator] = _approved;\n\n        emit ApprovalForAll(msg.sender, _operator, _approved);\n    }\n\n    function getApproved(uint256 _tokenId) external view returns (address){\n        require((_tokenId < itemsForOffer.length), 'Must be a valid P2P');\n\n        return (P2PIndexToApproved[_tokenId]);\n    }\n\n    function isApprovedForAll(address _owner, address _operator) external view returns (bool){\n        return _operatorApprovals[_owner][_operator];\n    }\n\n    function safeTransferFrom(address _from, address _to, uint256 _tokenId, bytes memory data) public{\n        require( _checkTransferParameters(_from, _to, _tokenId) , \"Message.Sender must be Token Owner, or Approved by Owner\");\n        _safeTransfer(_from, _to, _tokenId, data);\n    \n    }\n\n    function safeTransferFrom(address _from, address _to, uint256 _tokenId) external{\n        safeTransferFrom(_from, _to, _tokenId, \"\");\n    }\n\n\n    function transferFrom(address _from, address _to, uint256 _tokenId) external{\n        require( _checkTransferParameters(_from, _to, _tokenId) , \"Message.Sender must be Token Owner, or Approved by Owner\");\n        _transfer(_from, _to, _tokenId);\n    }\n\n    function _safeTransfer(address _from, address _to, uint256 _tokenId, bytes memory _data) internal {\n        _transfer(_from, _to, _tokenId);\n        require(_checkERC721Support(_from, _to, _tokenId, _data), \"To Address Must be Capable of Receiving Token\");\n    }\n\n    function _checkERC721Support(address _from, address _to, uint256 _tokenId, bytes memory _data) internal returns(bool){\n        if( !_isContract(_to) ){\n            return true;\n        }\n        \n        //Call onERC721Received at _to address\n        bytes4 returnData = IERC721Receiver(_to).onERC721Received(msg.sender, _from, _tokenId, _data);\n        \n        //Check that return value is equal to ERC721 token standards\n        return returnData == IERC721ReturnValue;\n    }\n\n    function _isContract(address _to) view internal returns(bool){\n            uint32 size;\n            assembly{\n                size := extcodesize(_to)\n            }\n            return size > 0;\n    }\n\n    function _checkTransferParameters(address _from, address _to, uint256 _tokenId) internal view returns(bool){\n        require(_from == msg.sender || P2PIndexToApproved[_tokenId] == msg.sender || _operatorApprovals[P2PIndextoOwner[_tokenId]][msg.sender], \"Message.Sender must be Token Owner, or Approved by Owner\");\n        require(P2PIndextoOwner[_tokenId] == _from, \"From Address must be P2P Owner\");\n        require(_to != address (0x0), \"Cannot Send to a Zero Address\");\n        require((_tokenId < itemsForOffer.length), 'Must be a valid P2P');\n\n        return true;\n    }\n\n    function _checkOwnership(address _toCheck, uint256 _tokenId) internal view returns(bool){\n        require(_toCheck == P2PIndextoOwner[_tokenId], \"Message.Sender must be Token Owner, or Approved by Owner\");\n        return true;\n    }\n}    ",
  "sourcePath": "/Users/Kaiju/Desktop/Courses/Hackathons/HackFS/contracts/P2PContract.sol",
  "compiler": {
    "name": "solc",
    "version": "0.5.12+commit.7709ece9.Emscripten.clang"
  },
  "schemaVersion": "3.4.1",
  "updatedAt": "2021-07-25T20:02:21.332Z",
  "devdoc": {
    "methods": {
      "ownerOf(uint256)": {
        "details": "Returns the owner of the `tokenId` token.     * Requirements:     * - `tokenId` must exist."
      }
    }
  },
  "userdoc": {
    "methods": {}
  }
}