{
  "contractName": "P2PMarketplace",
  "abi": [
    {
      "inputs": [],
      "stateMutability": "nonpayable",
      "type": "constructor"
    },
    {
      "anonymous": false,
      "inputs": [
        {
          "indexed": false,
          "internalType": "string",
          "name": "TxType",
          "type": "string"
        },
        {
          "indexed": false,
          "internalType": "address",
          "name": "owner",
          "type": "address"
        },
        {
          "indexed": false,
          "internalType": "uint256",
          "name": "tokenId",
          "type": "uint256"
        }
      ],
      "name": "MarketTransaction",
      "type": "event"
    },
    {
      "inputs": [],
      "name": "owner",
      "outputs": [
        {
          "internalType": "address",
          "name": "",
          "type": "address"
        }
      ],
      "stateMutability": "view",
      "type": "function",
      "constant": true
    },
    {
      "inputs": [
        {
          "internalType": "address",
          "name": "_AssetContractAddress",
          "type": "address"
        }
      ],
      "name": "setAssetContract",
      "outputs": [],
      "stateMutability": "nonpayable",
      "type": "function"
    },
    {
      "inputs": [
        {
          "internalType": "uint256",
          "name": "_tokenId",
          "type": "uint256"
        }
      ],
      "name": "getOffer",
      "outputs": [
        {
          "internalType": "address",
          "name": "lender",
          "type": "address"
        },
        {
          "internalType": "uint256",
          "name": "dollarsPerPeriod",
          "type": "uint256"
        },
        {
          "internalType": "uint256",
          "name": "durationOfLend",
          "type": "uint256"
        },
        {
          "internalType": "uint256",
          "name": "tokenId",
          "type": "uint256"
        },
        {
          "internalType": "bool",
          "name": "activeOffering",
          "type": "bool"
        },
        {
          "internalType": "bool",
          "name": "activelyBorrowed",
          "type": "bool"
        }
      ],
      "stateMutability": "view",
      "type": "function",
      "constant": true
    },
    {
      "inputs": [],
      "name": "getAllTokenOnOffer",
      "outputs": [
        {
          "internalType": "uint256[]",
          "name": "listOfOffers",
          "type": "uint256[]"
        }
      ],
      "stateMutability": "view",
      "type": "function",
      "constant": true
    },
    {
      "inputs": [
        {
          "internalType": "uint256",
          "name": "_durationOfLend",
          "type": "uint256"
        },
        {
          "internalType": "uint256",
          "name": "_dollarsPerPeriod",
          "type": "uint256"
        },
        {
          "internalType": "uint256",
          "name": "_tokenId",
          "type": "uint256"
        }
      ],
      "name": "setOffer",
      "outputs": [],
      "stateMutability": "nonpayable",
      "type": "function"
    },
    {
      "inputs": [
        {
          "internalType": "uint256",
          "name": "_tokenId",
          "type": "uint256"
        }
      ],
      "name": "removeOffer",
      "outputs": [],
      "stateMutability": "nonpayable",
      "type": "function"
    },
    {
      "inputs": [
        {
          "internalType": "uint256",
          "name": "_tokenId",
          "type": "uint256"
        }
      ],
      "name": "lendAsset",
      "outputs": [],
      "stateMutability": "payable",
      "type": "function",
      "payable": true
    },
    {
      "inputs": [
        {
          "internalType": "uint256",
          "name": "_tokenId",
          "type": "uint256"
        }
      ],
      "name": "returnAsset",
      "outputs": [],
      "stateMutability": "nonpayable",
      "type": "function"
    },
    {
      "inputs": [
        {
          "internalType": "uint256",
          "name": "amountToTransfer",
          "type": "uint256"
        }
      ],
      "name": "Withdraw",
      "outputs": [],
      "stateMutability": "nonpayable",
      "type": "function"
    },
    {
      "inputs": [],
      "name": "contractBalance",
      "outputs": [
        {
          "internalType": "uint256",
          "name": "",
          "type": "uint256"
        }
      ],
      "stateMutability": "view",
      "type": "function",
      "constant": true
    }
  ],
  "bytecode": "0x608060405234801561001057600080fd5b50336000806101000a81548173ffffffffffffffffffffffffffffffffffffffff021916908373ffffffffffffffffffffffffffffffffffffffff160217905550336000806101000a81548173ffffffffffffffffffffffffffffffffffffffff021916908373ffffffffffffffffffffffffffffffffffffffff160217905550611fa6806100a06000396000f3fe6080604052600436106100915760003560e01c80635eca592b116100595780635eca592b1461016f5780638b7afe2e1461019a5780638da5cb5b146101c55780638ee65250146101f057806395a0f9c71461021957610091565b80630a71a8c3146100965780631760705f146100b25780634579268a146100db5780635a525d831461011d5780635b6b431d14610146575b600080fd5b6100b060048036038101906100ab9190611552565b610242565b005b3480156100be57600080fd5b506100d960048036038101906100d49190611500565b610561565b005b3480156100e757600080fd5b5061010260048036038101906100fd9190611552565b6105fd565b60405161011496959493929190611a86565b60405180910390f35b34801561012957600080fd5b50610144600480360381019061013f919061157b565b610742565b005b34801561015257600080fd5b5061016d60048036038101906101689190611552565b610c3e565b005b34801561017b57600080fd5b50610184610ce0565b6040516101919190611ae7565b60405180910390f35b3480156101a657600080fd5b506101af610f17565b6040516101bc9190611cf9565b60405180910390f35b3480156101d157600080fd5b506101da610f1f565b6040516101e791906119fd565b60405180910390f35b3480156101fc57600080fd5b5061021760048036038101906102129190611552565b610f43565b005b34801561022557600080fd5b50610240600480360381019061023b9190611552565b611219565b005b600115156003600083815260200190815260200160002060040160009054906101000a900460ff161515146102ac576040517f08c379a00000000000000000000000000000000000000000000000000000000081526004016102a390611b09565b60405180910390fd5b60036000828152602001908152602001600020600201543411610304576040517f08c379a00000000000000000000000000000000000000000000000000000000081526004016102fb90611c01565b60405180910390fd5b600015156003600083815260200190815260200160002060040160019054906101000a900460ff1615151461036e576040517f08c379a000000000000000000000000000000000000000000000000000000000815260040161036590611b29565b60405180910390fd5b60006004805490509050336005600083815260200190815260200160002060000160006101000a81548173ffffffffffffffffffffffffffffffffffffffff021916908373ffffffffffffffffffffffffffffffffffffffff16021790555034600560008381526020019081526020016000206001018190555060016005600083815260200190815260200160002060020160006101000a81548160ff02191690831515021790555060046005600083815260200190815260200160002090806001815401808255809150506001900390600052602060002090600302016000909190919091506000820160009054906101000a900473ffffffffffffffffffffffffffffffffffffffff168160000160006101000a81548173ffffffffffffffffffffffffffffffffffffffff021916908373ffffffffffffffffffffffffffffffffffffffff160217905550600182015481600101556002820160009054906101000a900460ff168160020160006101000a81548160ff021916908315150217905550505060016003600084815260200190815260200160002060040160016101000a81548160ff0219169083151502179055507fd99e4fad9ad6313b1feb588fa8e605e3a9873172f2024330c35dd2b4041a43863383604051610555929190611b49565b60405180910390a15050565b60008054906101000a900473ffffffffffffffffffffffffffffffffffffffff1673ffffffffffffffffffffffffffffffffffffffff163373ffffffffffffffffffffffffffffffffffffffff16146105b957600080fd5b80600160006101000a81548173ffffffffffffffffffffffffffffffffffffffff021916908373ffffffffffffffffffffffffffffffffffffffff16021790555050565b6000806000806000806003600088815260200190815260200160002060040160009054906101000a900460ff16610669576040517f08c379a000000000000000000000000000000000000000000000000000000000815260040161066090611c9d565b60405180910390fd5b6003600088815260200190815260200160002060000160009054906101000a900473ffffffffffffffffffffffffffffffffffffffff166003600089815260200190815260200160002060020154600360008a815260200190815260200160002060010154600360008b815260200190815260200160002060030154600360008c815260200190815260200160002060040160009054906101000a900460ff16600360008d815260200190815260200160002060040160019054906101000a900460ff1695509550955095509550955091939550919395565b3373ffffffffffffffffffffffffffffffffffffffff16600160009054906101000a900473ffffffffffffffffffffffffffffffffffffffff1673ffffffffffffffffffffffffffffffffffffffff16636352211e836040518263ffffffff1660e01b81526004016107b49190611cf9565b60206040518083038186803b1580156107cc57600080fd5b505afa1580156107e0573d6000803e3d6000fd5b505050506040513d601f19601f820116820180604052508101906108049190611529565b73ffffffffffffffffffffffffffffffffffffffff161461085a576040517f08c379a000000000000000000000000000000000000000000000000000000000815260040161085190611b85565b60405180910390fd5b600115156003600083815260200190815260200160002060040160009054906101000a900460ff16151514156108c5576040517f08c379a00000000000000000000000000000000000000000000000000000000081526004016108bc90611c7d565b60405180910390fd5b336003600083815260200190815260200160002060000160006101000a81548173ffffffffffffffffffffffffffffffffffffffff021916908373ffffffffffffffffffffffffffffffffffffffff16021790555082600360008381526020019081526020016000206001018190555081600360008381526020019081526020016000206002018190555080600360008381526020019081526020016000206003018190555060006003600083815260200190815260200160002060040160006101000a81548160ff02191690831515021790555060006003600083815260200190815260200160002060040160016101000a81548160ff02191690831515021790555060026003600083815260200190815260200160002090806001815401808255809150506001900390600052602060002090600502016000909190919091506000820160009054906101000a900473ffffffffffffffffffffffffffffffffffffffff168160000160006101000a81548173ffffffffffffffffffffffffffffffffffffffff021916908373ffffffffffffffffffffffffffffffffffffffff1602179055506001820154816001015560028201548160020155600382015481600301556004820160009054906101000a900460ff168160040160006101000a81548160ff0219169083151502179055506004820160019054906101000a900460ff168160040160016101000a81548160ff0219169083151502179055505050600160009054906101000a900473ffffffffffffffffffffffffffffffffffffffff1673ffffffffffffffffffffffffffffffffffffffff166342842e0e33600160009054906101000a900473ffffffffffffffffffffffffffffffffffffffff16846040518463ffffffff1660e01b8152600401610b6993929190611a4f565b600060405180830381600087803b158015610b8357600080fd5b505af1158015610b97573d6000803e3d6000fd5b5050505060016003600083815260200190815260200160002060040160006101000a81548160ff0219169083151502179055508260036000838152602001908152602001600020600101819055508160036000838152602001908152602001600020600201819055507fd99e4fad9ad6313b1feb588fa8e605e3a9873172f2024330c35dd2b4041a43863382604051610c31929190611bc5565b60405180910390a1505050565b60008054906101000a900473ffffffffffffffffffffffffffffffffffffffff1673ffffffffffffffffffffffffffffffffffffffff163373ffffffffffffffffffffffffffffffffffffffff1614610c9657600080fd5b3373ffffffffffffffffffffffffffffffffffffffff166108fc829081150290604051600060405180830381858888f19350505050158015610cdc573d6000803e3d6000fd5b5050565b606060006002805490509050606060005b82811015610f0e5760028181548110610d33577f4e487b7100000000000000000000000000000000000000000000000000000000600052603260045260246000fd5b906000526020600020906005020160040160009054906101000a900460ff168015610dba57506000151560028281548110610d97577f4e487b7100000000000000000000000000000000000000000000000000000000600052603260045260246000fd5b906000526020600020906005020160040160019054906101000a900460ff161515145b15610efb57600082511415610e5c5760028181548110610e03577f4e487b7100000000000000000000000000000000000000000000000000000000600052603260045260246000fd5b90600052602060002090600502016003015482600081518110610e4f577f4e487b7100000000000000000000000000000000000000000000000000000000600052603260045260246000fd5b6020026020010181815250505b60028181548110610e96577f4e487b7100000000000000000000000000000000000000000000000000000000600052603260045260246000fd5b9060005260206000209060050201600301548260018451610eb79190611de9565b81518110610eee577f4e487b7100000000000000000000000000000000000000000000000000000000600052603260045260246000fd5b6020026020010181815250505b8080610f0690611e9b565b915050610cf1565b50809250505090565b600047905090565b60008054906101000a900473ffffffffffffffffffffffffffffffffffffffff1681565b600115156003600083815260200190815260200160002060040160019054906101000a900460ff16151514610fad576040517f08c379a0000000000000000000000000000000000000000000000000000000008152600401610fa490611c5d565b60405180910390fd5b60006003600083815260200190815260200160002060040160016101000a81548160ff02191690831515021790555060006005600083815260200190815260200160002060020160006101000a81548160ff0219169083151502179055506000611038600360008481526020019081526020016000206002015461103360636064611442565b611458565b90506000611067600360008581526020019081526020016000206002015461106260636064611442565b611458565b6003600085815260200190815260200160002060020154600560008681526020019081526020016000206001015461109f9190611de9565b6110a99190611de9565b90506003600084815260200190815260200160002060000160009054906101000a900473ffffffffffffffffffffffffffffffffffffffff1673ffffffffffffffffffffffffffffffffffffffff166108fc839081150290604051600060405180830381858888f19350505050158015611127573d6000803e3d6000fd5b506005600084815260200190815260200160002060000160009054906101000a900473ffffffffffffffffffffffffffffffffffffffff1673ffffffffffffffffffffffffffffffffffffffff166108fc829081150290604051600060405180830381858888f193505050501580156111a4573d6000803e3d6000fd5b507fd99e4fad9ad6313b1feb588fa8e605e3a9873172f2024330c35dd2b4041a43866003600085815260200190815260200160002060000160009054906101000a900473ffffffffffffffffffffffffffffffffffffffff168460405161120c929190611cbd565b60405180910390a1505050565b600015156003600083815260200190815260200160002060040160019054906101000a900460ff16151514611283576040517f08c379a000000000000000000000000000000000000000000000000000000000815260040161127a90611ba5565b60405180910390fd5b600160009054906101000a900473ffffffffffffffffffffffffffffffffffffffff1673ffffffffffffffffffffffffffffffffffffffff166342842e0e600160009054906101000a900473ffffffffffffffffffffffffffffffffffffffff166003600085815260200190815260200160002060000160009054906101000a900473ffffffffffffffffffffffffffffffffffffffff16846040518463ffffffff1660e01b815260040161133a93929190611a18565b600060405180830381600087803b15801561135457600080fd5b505af1158015611368573d6000803e3d6000fd5b505050506000600282815481106113a8577f4e487b7100000000000000000000000000000000000000000000000000000000600052603260045260246000fd5b906000526020600020906005020160040160006101000a81548160ff0219169083151502179055507fd99e4fad9ad6313b1feb588fa8e605e3a9873172f2024330c35dd2b4041a43866003600083815260200190815260200160002060000160009054906101000a900473ffffffffffffffffffffffffffffffffffffffff1682604051611437929190611c21565b60405180910390a150565b600081836114509190611d5e565b905092915050565b60008083141561146b57600090506114bb565b81836114779190611d8f565b90508183826114869190611d5e565b146114ba577f4e487b7100000000000000000000000000000000000000000000000000000000600052600160045260246000fd5b5b92915050565b6000813590506114d081611f42565b92915050565b6000815190506114e581611f42565b92915050565b6000813590506114fa81611f59565b92915050565b60006020828403121561151257600080fd5b6000611520848285016114c1565b91505092915050565b60006020828403121561153b57600080fd5b6000611549848285016114d6565b91505092915050565b60006020828403121561156457600080fd5b6000611572848285016114eb565b91505092915050565b60008060006060848603121561159057600080fd5b600061159e868287016114eb565b93505060206115af868287016114eb565b92505060406115c0868287016114eb565b9150509250925092565b60006115d683836119df565b60208301905092915050565b6115eb81611e65565b82525050565b6115fa81611e1d565b82525050565b600061160b82611d24565b6116158185611d3c565b935061162083611d14565b8060005b8381101561165157815161163888826115ca565b975061164383611d2f565b925050600181019050611624565b5085935050505092915050565b61166781611e2f565b82525050565b600061167a601683611d4d565b91507f4173736574206973206e6f7420617661696c61626c65000000000000000000006000830152602082019050919050565b60006116ba601b83611d4d565b91507f41737365742069732063757272656e746c7920426f72726f77656400000000006000830152602082019050919050565b60006116fa600a83611d4d565b91507f4173736574204c656e74000000000000000000000000000000000000000000006000830152602082019050919050565b600061173a602983611d4d565b91507f4f6e6c7920746865206f6e776e65722063616e206c697374206120417373657460008301527f20666f722053616c6500000000000000000000000000000000000000000000006020830152604082019050919050565b60006117a0601b83611d4d565b91507f41737365742069732063757272656e746c7920626f72726f77656400000000006000830152602082019050919050565b60006117e0601b83611d4d565b91507f417373657420417661696c61626c6520666f72204c656e64696e6700000000006000830152602082019050919050565b6000611820601583611d4d565b91507f4d6573736167652076616c756520746f6f206c6f7700000000000000000000006000830152602082019050919050565b6000611860601a83611d4d565b91507f41737365742052656d6f7665642046726f6d204c656e64696e670000000000006000830152602082019050919050565b60006118a0601f83611d4d565b91507f4173736574206973206e6f742063757272656e746c7920426f72726f776564006000830152602082019050919050565b60006118e0602983611d4d565b91507f417373657420616c72656164792068617320616e206163746976654f6666657260008301527f696e67206f6666657200000000000000000000000000000000000000000000006020830152604082019050919050565b6000611946602183611d4d565b91507f4e6f20616374697665206f66666572696e6720666f722074686174204173736560008301527f74000000000000000000000000000000000000000000000000000000000000006020830152604082019050919050565b60006119ac600e83611d4d565b91507f41737365742052657475726e65640000000000000000000000000000000000006000830152602082019050919050565b6119e881611e5b565b82525050565b6119f781611e5b565b82525050565b6000602082019050611a1260008301846115f1565b92915050565b6000606082019050611a2d60008301866115f1565b611a3a60208301856115e2565b611a4760408301846119ee565b949350505050565b6000606082019050611a6460008301866115f1565b611a7160208301856115f1565b611a7e60408301846119ee565b949350505050565b600060c082019050611a9b60008301896115f1565b611aa860208301886119ee565b611ab560408301876119ee565b611ac260608301866119ee565b611acf608083018561165e565b611adc60a083018461165e565b979650505050505050565b60006020820190508181036000830152611b018184611600565b905092915050565b60006020820190508181036000830152611b228161166d565b9050919050565b60006020820190508181036000830152611b42816116ad565b9050919050565b60006060820190508181036000830152611b62816116ed565b9050611b7160208301856115f1565b611b7e60408301846119ee565b9392505050565b60006020820190508181036000830152611b9e8161172d565b9050919050565b60006020820190508181036000830152611bbe81611793565b9050919050565b60006060820190508181036000830152611bde816117d3565b9050611bed60208301856115f1565b611bfa60408301846119ee565b9392505050565b60006020820190508181036000830152611c1a81611813565b9050919050565b60006060820190508181036000830152611c3a81611853565b9050611c4960208301856115e2565b611c5660408301846119ee565b9392505050565b60006020820190508181036000830152611c7681611893565b9050919050565b60006020820190508181036000830152611c96816118d3565b9050919050565b60006020820190508181036000830152611cb681611939565b9050919050565b60006060820190508181036000830152611cd68161199f565b9050611ce560208301856115e2565b611cf260408301846119ee565b9392505050565b6000602082019050611d0e60008301846119ee565b92915050565b6000819050602082019050919050565b600081519050919050565b6000602082019050919050565b600082825260208201905092915050565b600082825260208201905092915050565b6000611d6982611e5b565b9150611d7483611e5b565b925082611d8457611d83611f13565b5b828204905092915050565b6000611d9a82611e5b565b9150611da583611e5b565b9250817fffffffffffffffffffffffffffffffffffffffffffffffffffffffffffffffff0483118215151615611dde57611ddd611ee4565b5b828202905092915050565b6000611df482611e5b565b9150611dff83611e5b565b925082821015611e1257611e11611ee4565b5b828203905092915050565b6000611e2882611e3b565b9050919050565b60008115159050919050565b600073ffffffffffffffffffffffffffffffffffffffff82169050919050565b6000819050919050565b6000611e7082611e77565b9050919050565b6000611e8282611e89565b9050919050565b6000611e9482611e3b565b9050919050565b6000611ea682611e5b565b91507fffffffffffffffffffffffffffffffffffffffffffffffffffffffffffffffff821415611ed957611ed8611ee4565b5b600182019050919050565b7f4e487b7100000000000000000000000000000000000000000000000000000000600052601160045260246000fd5b7f4e487b7100000000000000000000000000000000000000000000000000000000600052601260045260246000fd5b611f4b81611e1d565b8114611f5657600080fd5b50565b611f6281611e5b565b8114611f6d57600080fd5b5056fea2646970667358221220c658ff463c383c3fff857e1522be719ca8d687259fe38d43a27d783e96955e9464736f6c63430008000033",
  "immutableReferences": {},
  "source": "//SPDX-License-Identifier: UNLICENSED\npragma solidity ^0.8.0;\n\nimport \"./AssetContract.sol\";\nimport \"./IP2PMarketplace.sol\";\nimport \"./Ownable.sol\";\nimport \"./SafeMath.sol\";\n\n\n\ncontract P2PMarketplace is Ownable, IP2PMarketplace{\n    //Allows for function calls from the Asset Contract\n    AssetContract private _AssetContract;\n\n    //Mapping that stores the NFT information for an Asset\n    struct Offer {\n        address payable lender;\n        uint256 durationOfLend;\n        uint256 dollarsPerPeriod;\n        uint256 tokenId;\n        bool activeOffering;\n        bool activelyBorrowed;\n    }\n\n    Offer[] offers;\n\n    mapping(uint256 => Offer) tokenIdToOffer;\n\n    //Mapping that stores a borrowed asset instance\n    struct borrowedAsset{\n        address payable Borrower;\n        uint256 PricePaid;\n        bool Active;\n    }\n\n    borrowedAsset[] BorrowedAssets;\n\n    mapping(uint256 => borrowedAsset) tokensBorrowed;\n\n    /**\n    * Set the current AssetContract address and initialize the instance of AssetContract.\n    * Requirement: Only the contract owner can call.\n     */\n    constructor() public{\n        owner = msg.sender;\n    }\n    \n    function setAssetContract(address _AssetContractAddress) external override onlyOwner{\n        _AssetContract = AssetContract(_AssetContractAddress);\n    }\n\n    /**\n    * Get the details about a offer for _tokenId. Throws an error if there is no activeOffering offer for _tokenId.\n     */\n    function getOffer(uint256 _tokenId) external view override  returns ( \n        address lender, \n        uint256 dollarsPerPeriod, \n        uint256 durationOfLend, \n        uint256 tokenId, \n        bool activeOffering,\n        bool activelyBorrowed){\n        require(tokenIdToOffer[_tokenId].activeOffering, \"No active offering for that Asset\");\n            return (\n                tokenIdToOffer[_tokenId].lender,\n                tokenIdToOffer[_tokenId].dollarsPerPeriod,\n                tokenIdToOffer[_tokenId].durationOfLend,\n                tokenIdToOffer[_tokenId].tokenId,\n                tokenIdToOffer[_tokenId].activeOffering,\n                tokenIdToOffer[_tokenId].activelyBorrowed);\n        }\n\n    /**\n    * Get all tokenId's that are currently available for lend. \n    * Returns an empty array if none exist.\n     */\n    function getAllTokenOnOffer() external view override returns(uint256[] memory listOfOffers) {\n        uint256 _length = offers.length;\n\n        uint256[] memory _offers;\n\n        for(uint i=0; i<_length; i++){\n            if(offers[i].activeOffering && offers[i].activelyBorrowed == false){\n                if(_offers.length == 0){\n                    _offers[0] = offers[i].tokenId;\n                }\n                _offers[(_offers.length-1)] = offers[i].tokenId;\n            }\n        }\n        return _offers;\n    }\n\n    /*\n    * Creates a new offer for _tokenId for the dollarsPerPeriod _dollarsPerPeriod.\n    * Transfers control of Asset to the Smart Contract\n    * Emits the MarketTransaction event with txType \"Asset Available for Lending\"\n    * If offer had been created in the past sets it back to active and updates duration and dollars\n    * Requirement: Only the owner of _tokenId can create an offer.\n    * Requirement: There can only be one activeOffering offer for a token at a time.\n    * Requirement: Transfer token before creating offer to prevent active offer without token transfer\n     */\n    function setOffer(uint256 _durationOfLend, uint256 _dollarsPerPeriod, uint256 _tokenId) external override {\n        require(_AssetContract.ownerOf(_tokenId) == msg.sender, \"Only the onwner can list a Asset for Sale\");\n        require(tokenIdToOffer[_tokenId].activeOffering != true, \"Asset already has an activeOffering offer\");\n       \n        tokenIdToOffer[_tokenId].lender = payable(msg.sender);\n        tokenIdToOffer[_tokenId].durationOfLend = _durationOfLend;\n        tokenIdToOffer[_tokenId].dollarsPerPeriod = _dollarsPerPeriod;\n        tokenIdToOffer[_tokenId].tokenId = _tokenId;\n        tokenIdToOffer[_tokenId].activeOffering = false;\n        tokenIdToOffer[_tokenId].activelyBorrowed = false;\n\n        offers.push(tokenIdToOffer[_tokenId]);\n        \n        _AssetContract.safeTransferFrom(msg.sender, address(_AssetContract), _tokenId);\n        \n        tokenIdToOffer[_tokenId].activeOffering = true;\n        tokenIdToOffer[_tokenId].durationOfLend = _durationOfLend;\n        tokenIdToOffer[_tokenId].dollarsPerPeriod = _dollarsPerPeriod;\n       \n       emit MarketTransaction(\"Asset Available for Lending\", msg.sender, _tokenId);\n    } \n\n\n    /**\n    * Removes an existing offer by returning the asset to the Owner\n    * Emits the MarketTransaction event with txType \"Asset Removed From Lending\"\n    * Requirement: Only the lender of _tokenId can remove an offer.\n     */\n    function removeOffer(uint256 _tokenId) external override {\n        //require(tokenIdToOffer[_tokenId].lender == msg.sender, \"Only the Owner can Remove an Asset\");\n        require(tokenIdToOffer[_tokenId].activelyBorrowed == false, \"Asset is currently borrowed\");\n        \n        \n        _AssetContract.safeTransferFrom(address(_AssetContract), tokenIdToOffer[_tokenId].lender, _tokenId);\n        offers[_tokenId].activeOffering = false;\n        \n        emit MarketTransaction(\"Asset Removed From Lending\", tokenIdToOffer[_tokenId].lender, _tokenId);\n    }\n\n\n    /**\n    * Executes the lending of _tokenId.\n    * Sends the price to the contract.\n    * Emits the MarketTransaction event with txType \"Lent\".\n    * FEE MUST BE BUILT INTO THE FRONT END CODE\n    * Requirement: The msg.value must be greater then dollarsPerPeriod of _tokenId to account for price and fees\n    * Requirement: There must be an activeOffering offer for _tokenId\n     */\n    function lendAsset(uint256 _tokenId) external payable override {\n        require(tokenIdToOffer[_tokenId].activeOffering == true, \"Asset is not available\");\n        require(msg.value > (tokenIdToOffer[_tokenId].dollarsPerPeriod), \"Message value too low\");\n        require(tokenIdToOffer[_tokenId].activelyBorrowed == false, \"Asset is currently Borrowed\");\n\n        uint256 borrowId = BorrowedAssets.length;\n\n        tokensBorrowed[borrowId].Borrower = payable(msg.sender);\n\n        tokensBorrowed[borrowId].PricePaid = msg.value;\n        tokensBorrowed[borrowId].Active = true;\n\n        BorrowedAssets.push(tokensBorrowed[borrowId]);\n\n        tokenIdToOffer[_tokenId].activelyBorrowed = true;\n\n        emit MarketTransaction(\"Asset Lent\", msg.sender, _tokenId);\n    }\n\n    /**\n    * Returns an token to owner\n    * No funds sent as payment was already sent\n    * Require original lender to call this function as they own token\n     */\n    function returnAsset(uint256 _tokenId) external override {\n        //require(tokensBorrowed[_tokenId].Borrower == msg.sender, \"Only the Borrower can return an offer\");\n        require(tokenIdToOffer[_tokenId].activelyBorrowed == true, \"Asset is not currently Borrowed\");\n\n        tokenIdToOffer[_tokenId].activelyBorrowed = false;\n        tokensBorrowed[_tokenId].Active = false;\n        \n        uint256 lenderProfit = SafeMath.mul( (tokenIdToOffer[_tokenId].dollarsPerPeriod), SafeMath.div(99,100) );\n        uint256 borrowerCollateral = \n                (tokensBorrowed[_tokenId].PricePaid - tokenIdToOffer[_tokenId].dollarsPerPeriod) -\n                (SafeMath.mul( (tokenIdToOffer[_tokenId].dollarsPerPeriod) ,  SafeMath.div(99,100) ) );\n\n        tokenIdToOffer[_tokenId].lender.transfer(lenderProfit);\n        tokensBorrowed[_tokenId].Borrower.transfer(borrowerCollateral);\n        \n\n        emit MarketTransaction(\"Asset Returned\", tokenIdToOffer[_tokenId].lender, _tokenId);\n    }\n\n    function Withdraw(uint256 amountToTransfer) external onlyOwner override {\n        payable(msg.sender).transfer(amountToTransfer);\n    }\n    \n    function contractBalance() external view returns (uint256){\n        return address(this).balance;\n    }\n}",
  "sourcePath": "/Users/ray/Desktop/HackFS_2021/contracts/P2PMarketplace.sol",
  "compiler": {
    "name": "solc",
    "version": "0.8.0+commit.c7dfd78e.Emscripten.clang"
  },
  "schemaVersion": "3.4.2",
  "updatedAt": "2021-08-09T21:59:24.502Z",
  "networkType": "ethereum",
  "devdoc": {
    "kind": "dev",
    "methods": {},
    "version": 1
  },
  "userdoc": {
    "kind": "user",
    "methods": {
      "constructor": {
        "notice": "Set the current AssetContract address and initialize the instance of AssetContract. Requirement: Only the contract owner can call."
      },
      "getAllTokenOnOffer()": {
        "notice": "Get all tokenId's that are currently available for lend.  Returns an empty array if none exist."
      },
      "getOffer(uint256)": {
        "notice": "Get the details about a offer for _tokenId. Throws an error if there is no activeOffering offer for _tokenId."
      },
      "lendAsset(uint256)": {
        "notice": "Executes the lending of _tokenId. Sends the price to the contract. Emits the MarketTransaction event with txType \"Lent\". FEE MUST BE BUILT INTO THE FRONT END CODE Requirement: The msg.value must be greater then dollarsPerPeriod of _tokenId to account for price and fees Requirement: There must be an activeOffering offer for _tokenId"
      },
      "removeOffer(uint256)": {
        "notice": "Removes an existing offer by returning the asset to the Owner Emits the MarketTransaction event with txType \"Asset Removed From Lending\" Requirement: Only the lender of _tokenId can remove an offer."
      },
      "returnAsset(uint256)": {
        "notice": "Returns an token to owner No funds sent as payment was already sent Require original lender to call this function as they own token"
      },
      "setAssetContract(address)": {
        "notice": "Set the current P2PContract address and initialize the instance of P2Pcontract. Requirement: Only the contract owner can call."
      },
      "setOffer(uint256,uint256,uint256)": {
        "notice": "Creates a new offer for _tokenId for the price _price. Emits the MarketTransaction event with txType \"Create offer\" Requirement: Only the owner of _tokenId can create an offer. Requirement: There can only be one active offer for a token at a time. Requirement: Marketplace contract (this) needs to be an approved operator when the offer is created."
      }
    },
    "version": 1
  }
}