{
  "contractName": "P2PMarketplace",
  "abi": [
    {
      "inputs": [],
      "stateMutability": "nonpayable",
      "type": "constructor"
    },
    {
      "anonymous": false,
      "inputs": [
        {
          "indexed": false,
          "internalType": "string",
          "name": "TxType",
          "type": "string"
        },
        {
          "indexed": false,
          "internalType": "address",
          "name": "owner",
          "type": "address"
        },
        {
          "indexed": false,
          "internalType": "uint256",
          "name": "tokenId",
          "type": "uint256"
        }
      ],
      "name": "MarketTransaction",
      "type": "event"
    },
    {
      "inputs": [],
      "name": "owner",
      "outputs": [
        {
          "internalType": "address",
          "name": "",
          "type": "address"
        }
      ],
      "stateMutability": "view",
      "type": "function",
      "constant": true
    },
    {
      "inputs": [
        {
          "internalType": "address",
          "name": "_AssetContractAddress",
          "type": "address"
        }
      ],
      "name": "setAssetContract",
      "outputs": [],
      "stateMutability": "nonpayable",
      "type": "function"
    },
    {
      "inputs": [
        {
          "internalType": "uint256",
          "name": "_tokenId",
          "type": "uint256"
        }
      ],
      "name": "getOffer",
      "outputs": [
        {
          "internalType": "address",
          "name": "lender",
          "type": "address"
        },
        {
          "internalType": "uint256",
          "name": "GWEIPerPeriod",
          "type": "uint256"
        },
        {
          "internalType": "uint256",
          "name": "tokenId",
          "type": "uint256"
        },
        {
          "internalType": "bool",
          "name": "activeOffering",
          "type": "bool"
        },
        {
          "internalType": "bool",
          "name": "activelyBorrowed",
          "type": "bool"
        }
      ],
      "stateMutability": "view",
      "type": "function",
      "constant": true
    },
    {
      "inputs": [],
      "name": "getAllTokenOnOffer",
      "outputs": [
        {
          "internalType": "uint256[]",
          "name": "listOfOffers",
          "type": "uint256[]"
        }
      ],
      "stateMutability": "view",
      "type": "function",
      "constant": true
    },
    {
      "inputs": [
        {
          "internalType": "uint256",
          "name": "tokenId",
          "type": "uint256"
        }
      ],
      "name": "getTokenGWEI",
      "outputs": [
        {
          "internalType": "uint256",
          "name": "price",
          "type": "uint256"
        }
      ],
      "stateMutability": "view",
      "type": "function",
      "constant": true
    },
    {
      "inputs": [
        {
          "internalType": "uint256",
          "name": "_GWEIPerPeriod",
          "type": "uint256"
        },
        {
          "internalType": "uint256",
          "name": "_tokenId",
          "type": "uint256"
        }
      ],
      "name": "setOffer",
      "outputs": [],
      "stateMutability": "nonpayable",
      "type": "function"
    },
    {
      "inputs": [
        {
          "internalType": "uint256",
          "name": "_tokenId",
          "type": "uint256"
        }
      ],
      "name": "removeOffer",
      "outputs": [],
      "stateMutability": "nonpayable",
      "type": "function"
    },
    {
      "inputs": [
        {
          "internalType": "uint256",
          "name": "_tokenId",
          "type": "uint256"
        }
      ],
      "name": "lendAsset",
      "outputs": [],
      "stateMutability": "payable",
      "type": "function",
      "payable": true
    },
    {
      "inputs": [
        {
          "internalType": "uint256",
          "name": "_tokenId",
          "type": "uint256"
        }
      ],
      "name": "returnAsset",
      "outputs": [],
      "stateMutability": "nonpayable",
      "type": "function"
    },
    {
      "inputs": [
        {
          "internalType": "uint256",
          "name": "amountToTransfer",
          "type": "uint256"
        }
      ],
      "name": "Withdraw",
      "outputs": [],
      "stateMutability": "nonpayable",
      "type": "function"
    },
    {
      "inputs": [],
      "name": "contractBalance",
      "outputs": [
        {
          "internalType": "uint256",
          "name": "",
          "type": "uint256"
        }
      ],
      "stateMutability": "view",
      "type": "function",
      "constant": true
    }
  ],
  "bytecode": "0x608060405234801561001057600080fd5b50336000806101000a81548173ffffffffffffffffffffffffffffffffffffffff021916908373ffffffffffffffffffffffffffffffffffffffff160217905550336000806101000a81548173ffffffffffffffffffffffffffffffffffffffff021916908373ffffffffffffffffffffffffffffffffffffffff160217905550612112806100a06000396000f3fe60806040526004361061009c5760003560e01c80638b7afe2e116100645780638b7afe2e1461017b5780638da5cb5b146101a65780638ee65250146101d1578063941b055b146101fa57806395a0f9c714610223578063a37f8a5c1461024c5761009c565b80630a71a8c3146100a15780631760705f146100bd5780634579268a146100e65780635b6b431d146101275780635eca592b14610150575b600080fd5b6100bb60048036038101906100b691906116df565b610289565b005b3480156100c957600080fd5b506100e460048036038101906100df919061168d565b6105a8565b005b3480156100f257600080fd5b5061010d600480360381019061010891906116df565b610644565b60405161011e959493929190611c00565b60405180910390f35b34801561013357600080fd5b5061014e600480360381019061014991906116df565b6108b4565b005b34801561015c57600080fd5b50610165610956565b6040516101729190611c53565b60405180910390f35b34801561018757600080fd5b50610190610b94565b60405161019d9190611e65565b60405180910390f35b3480156101b257600080fd5b506101bb610b9c565b6040516101c89190611b77565b60405180910390f35b3480156101dd57600080fd5b506101f860048036038101906101f391906116df565b610bc0565b005b34801561020657600080fd5b50610221600480360381019061021c9190611708565b610e96565b005b34801561022f57600080fd5b5061024a600480360381019061024591906116df565b611351565b005b34801561025857600080fd5b50610273600480360381019061026e91906116df565b61157a565b6040516102809190611e65565b60405180910390f35b600115156003600083815260200190815260200160002060030160009054906101000a900460ff161515146102f3576040517f08c379a00000000000000000000000000000000000000000000000000000000081526004016102ea90611c75565b60405180910390fd5b6003600082815260200190815260200160002060010154341161034b576040517f08c379a000000000000000000000000000000000000000000000000000000000815260040161034290611d6d565b60405180910390fd5b600015156003600083815260200190815260200160002060030160019054906101000a900460ff161515146103b5576040517f08c379a00000000000000000000000000000000000000000000000000000000081526004016103ac90611c95565b60405180910390fd5b60006004805490509050336005600083815260200190815260200160002060000160006101000a81548173ffffffffffffffffffffffffffffffffffffffff021916908373ffffffffffffffffffffffffffffffffffffffff16021790555034600560008381526020019081526020016000206001018190555060016005600083815260200190815260200160002060020160006101000a81548160ff02191690831515021790555060046005600083815260200190815260200160002090806001815401808255809150506001900390600052602060002090600302016000909190919091506000820160009054906101000a900473ffffffffffffffffffffffffffffffffffffffff168160000160006101000a81548173ffffffffffffffffffffffffffffffffffffffff021916908373ffffffffffffffffffffffffffffffffffffffff160217905550600182015481600101556002820160009054906101000a900460ff168160020160006101000a81548160ff021916908315150217905550505060016003600084815260200190815260200160002060030160016101000a81548160ff0219169083151502179055507fd99e4fad9ad6313b1feb588fa8e605e3a9873172f2024330c35dd2b4041a4386338360405161059c929190611cb5565b60405180910390a15050565b60008054906101000a900473ffffffffffffffffffffffffffffffffffffffff1673ffffffffffffffffffffffffffffffffffffffff163373ffffffffffffffffffffffffffffffffffffffff161461060057600080fd5b80600160006101000a81548173ffffffffffffffffffffffffffffffffffffffff021916908373ffffffffffffffffffffffffffffffffffffffff16021790555050565b6000806000806000600115156002878154811061068a577f4e487b7100000000000000000000000000000000000000000000000000000000600052603260045260246000fd5b906000526020600020906004020160030160009054906101000a900460ff161515146106eb576040517f08c379a00000000000000000000000000000000000000000000000000000000081526004016106e290611e09565b60405180910390fd5b60028681548110610725577f4e487b7100000000000000000000000000000000000000000000000000000000600052603260045260246000fd5b906000526020600020906004020160000160009054906101000a900473ffffffffffffffffffffffffffffffffffffffff1660028781548110610791577f4e487b7100000000000000000000000000000000000000000000000000000000600052603260045260246000fd5b906000526020600020906004020160010154600288815481106107dd577f4e487b7100000000000000000000000000000000000000000000000000000000600052603260045260246000fd5b90600052602060002090600402016002015460028981548110610829577f4e487b7100000000000000000000000000000000000000000000000000000000600052603260045260246000fd5b906000526020600020906004020160030160009054906101000a900460ff1660028a81548110610882577f4e487b7100000000000000000000000000000000000000000000000000000000600052603260045260246000fd5b906000526020600020906004020160030160019054906101000a900460ff169450945094509450945091939590929450565b60008054906101000a900473ffffffffffffffffffffffffffffffffffffffff1673ffffffffffffffffffffffffffffffffffffffff163373ffffffffffffffffffffffffffffffffffffffff161461090c57600080fd5b3373ffffffffffffffffffffffffffffffffffffffff166108fc829081150290604051600060405180830381858888f19350505050158015610952573d6000803e3d6000fd5b5050565b606060006002805490509050606060005b82811015610b8b5760011515600282815481106109ad577f4e487b7100000000000000000000000000000000000000000000000000000000600052603260045260246000fd5b906000526020600020906004020160030160009054906101000a900460ff161515148015610a3757506000151560028281548110610a14577f4e487b7100000000000000000000000000000000000000000000000000000000600052603260045260246000fd5b906000526020600020906004020160030160019054906101000a900460ff161515145b15610b7857600082511415610ad95760028181548110610a80577f4e487b7100000000000000000000000000000000000000000000000000000000600052603260045260246000fd5b90600052602060002090600402016002015482600081518110610acc577f4e487b7100000000000000000000000000000000000000000000000000000000600052603260045260246000fd5b6020026020010181815250505b60028181548110610b13577f4e487b7100000000000000000000000000000000000000000000000000000000600052603260045260246000fd5b9060005260206000209060040201600201548260018451610b349190611f55565b81518110610b6b577f4e487b7100000000000000000000000000000000000000000000000000000000600052603260045260246000fd5b6020026020010181815250505b8080610b8390612007565b915050610967565b50809250505090565b600047905090565b60008054906101000a900473ffffffffffffffffffffffffffffffffffffffff1681565b600115156003600083815260200190815260200160002060030160019054906101000a900460ff16151514610c2a576040517f08c379a0000000000000000000000000000000000000000000000000000000008152600401610c2190611dc9565b60405180910390fd5b60006003600083815260200190815260200160002060030160016101000a81548160ff02191690831515021790555060006005600083815260200190815260200160002060020160006101000a81548160ff0219169083151502179055506000610cb56003600084815260200190815260200160002060010154610cb0606360646115cf565b6115e5565b90506000610ce46003600085815260200190815260200160002060010154610cdf606360646115cf565b6115e5565b60036000858152602001908152602001600020600101546005600086815260200190815260200160002060010154610d1c9190611f55565b610d269190611f55565b90506003600084815260200190815260200160002060000160009054906101000a900473ffffffffffffffffffffffffffffffffffffffff1673ffffffffffffffffffffffffffffffffffffffff166108fc839081150290604051600060405180830381858888f19350505050158015610da4573d6000803e3d6000fd5b506005600084815260200190815260200160002060000160009054906101000a900473ffffffffffffffffffffffffffffffffffffffff1673ffffffffffffffffffffffffffffffffffffffff166108fc829081150290604051600060405180830381858888f19350505050158015610e21573d6000803e3d6000fd5b507fd99e4fad9ad6313b1feb588fa8e605e3a9873172f2024330c35dd2b4041a43866003600085815260200190815260200160002060000160009054906101000a900473ffffffffffffffffffffffffffffffffffffffff1684604051610e89929190611e29565b60405180910390a1505050565b3373ffffffffffffffffffffffffffffffffffffffff16600160009054906101000a900473ffffffffffffffffffffffffffffffffffffffff1673ffffffffffffffffffffffffffffffffffffffff16636352211e836040518263ffffffff1660e01b8152600401610f089190611e65565b60206040518083038186803b158015610f2057600080fd5b505afa158015610f34573d6000803e3d6000fd5b505050506040513d601f19601f82011682018060405250810190610f5891906116b6565b73ffffffffffffffffffffffffffffffffffffffff1614610fae576040517f08c379a0000000000000000000000000000000000000000000000000000000008152600401610fa590611cf1565b60405180910390fd5b600115156003600083815260200190815260200160002060030160009054906101000a900460ff1615151415611019576040517f08c379a000000000000000000000000000000000000000000000000000000000815260040161101090611de9565b60405180910390fd5b336003600083815260200190815260200160002060000160006101000a81548173ffffffffffffffffffffffffffffffffffffffff021916908373ffffffffffffffffffffffffffffffffffffffff16021790555081600360008381526020019081526020016000206001018190555080600360008381526020019081526020016000206002018190555060006003600083815260200190815260200160002060030160006101000a81548160ff02191690831515021790555060006003600083815260200190815260200160002060030160016101000a81548160ff02191690831515021790555060026003600083815260200190815260200160002090806001815401808255809150506001900390600052602060002090600402016000909190919091506000820160009054906101000a900473ffffffffffffffffffffffffffffffffffffffff168160000160006101000a81548173ffffffffffffffffffffffffffffffffffffffff021916908373ffffffffffffffffffffffffffffffffffffffff16021790555060018201548160010155600282015481600201556003820160009054906101000a900460ff168160030160006101000a81548160ff0219169083151502179055506003820160019054906101000a900460ff168160030160016101000a81548160ff0219169083151502179055505050600160009054906101000a900473ffffffffffffffffffffffffffffffffffffffff1673ffffffffffffffffffffffffffffffffffffffff166342842e0e33600160009054906101000a900473ffffffffffffffffffffffffffffffffffffffff16846040518463ffffffff1660e01b815260040161129893929190611bc9565b600060405180830381600087803b1580156112b257600080fd5b505af11580156112c6573d6000803e3d6000fd5b5050505060016003600083815260200190815260200160002060030160006101000a81548160ff0219169083151502179055508160036000838152602001908152602001600020600101819055507fd99e4fad9ad6313b1feb588fa8e605e3a9873172f2024330c35dd2b4041a43863382604051611345929190611d31565b60405180910390a15050565b600015156003600083815260200190815260200160002060030160019054906101000a900460ff161515146113bb576040517f08c379a00000000000000000000000000000000000000000000000000000000081526004016113b290611d11565b60405180910390fd5b600160009054906101000a900473ffffffffffffffffffffffffffffffffffffffff1673ffffffffffffffffffffffffffffffffffffffff166342842e0e600160009054906101000a900473ffffffffffffffffffffffffffffffffffffffff166003600085815260200190815260200160002060000160009054906101000a900473ffffffffffffffffffffffffffffffffffffffff16846040518463ffffffff1660e01b815260040161147293929190611b92565b600060405180830381600087803b15801561148c57600080fd5b505af11580156114a0573d6000803e3d6000fd5b505050506000600282815481106114e0577f4e487b7100000000000000000000000000000000000000000000000000000000600052603260045260246000fd5b906000526020600020906004020160030160006101000a81548160ff0219169083151502179055507fd99e4fad9ad6313b1feb588fa8e605e3a9873172f2024330c35dd2b4041a43866003600083815260200190815260200160002060000160009054906101000a900473ffffffffffffffffffffffffffffffffffffffff168260405161156f929190611d8d565b60405180910390a150565b6000600282815481106115b6577f4e487b7100000000000000000000000000000000000000000000000000000000600052603260045260246000fd5b9060005260206000209060040201600101549050919050565b600081836115dd9190611eca565b905092915050565b6000808314156115f85760009050611648565b81836116049190611efb565b90508183826116139190611eca565b14611647577f4e487b7100000000000000000000000000000000000000000000000000000000600052600160045260246000fd5b5b92915050565b60008135905061165d816120ae565b92915050565b600081519050611672816120ae565b92915050565b600081359050611687816120c5565b92915050565b60006020828403121561169f57600080fd5b60006116ad8482850161164e565b91505092915050565b6000602082840312156116c857600080fd5b60006116d684828501611663565b91505092915050565b6000602082840312156116f157600080fd5b60006116ff84828501611678565b91505092915050565b6000806040838503121561171b57600080fd5b600061172985828601611678565b925050602061173a85828601611678565b9150509250929050565b60006117508383611b59565b60208301905092915050565b61176581611fd1565b82525050565b61177481611f89565b82525050565b600061178582611e90565b61178f8185611ea8565b935061179a83611e80565b8060005b838110156117cb5781516117b28882611744565b97506117bd83611e9b565b92505060018101905061179e565b5085935050505092915050565b6117e181611f9b565b82525050565b60006117f4601683611eb9565b91507f4173736574206973206e6f7420617661696c61626c65000000000000000000006000830152602082019050919050565b6000611834601b83611eb9565b91507f41737365742069732063757272656e746c7920426f72726f77656400000000006000830152602082019050919050565b6000611874600a83611eb9565b91507f4173736574204c656e74000000000000000000000000000000000000000000006000830152602082019050919050565b60006118b4602983611eb9565b91507f4f6e6c7920746865206f6e776e65722063616e206c697374206120417373657460008301527f20666f722053616c6500000000000000000000000000000000000000000000006020830152604082019050919050565b600061191a601b83611eb9565b91507f41737365742069732063757272656e746c7920626f72726f77656400000000006000830152602082019050919050565b600061195a601b83611eb9565b91507f417373657420417661696c61626c6520666f72204c656e64696e6700000000006000830152602082019050919050565b600061199a601583611eb9565b91507f4d6573736167652076616c756520746f6f206c6f7700000000000000000000006000830152602082019050919050565b60006119da601a83611eb9565b91507f41737365742052656d6f7665642046726f6d204c656e64696e670000000000006000830152602082019050919050565b6000611a1a601f83611eb9565b91507f4173736574206973206e6f742063757272656e746c7920426f72726f776564006000830152602082019050919050565b6000611a5a602983611eb9565b91507f417373657420616c72656164792068617320616e206163746976654f6666657260008301527f696e67206f6666657200000000000000000000000000000000000000000000006020830152604082019050919050565b6000611ac0602183611eb9565b91507f4e6f20616374697665206f66666572696e6720666f722074686174204173736560008301527f74000000000000000000000000000000000000000000000000000000000000006020830152604082019050919050565b6000611b26600e83611eb9565b91507f41737365742052657475726e65640000000000000000000000000000000000006000830152602082019050919050565b611b6281611fc7565b82525050565b611b7181611fc7565b82525050565b6000602082019050611b8c600083018461176b565b92915050565b6000606082019050611ba7600083018661176b565b611bb4602083018561175c565b611bc16040830184611b68565b949350505050565b6000606082019050611bde600083018661176b565b611beb602083018561176b565b611bf86040830184611b68565b949350505050565b600060a082019050611c15600083018861176b565b611c226020830187611b68565b611c2f6040830186611b68565b611c3c60608301856117d8565b611c4960808301846117d8565b9695505050505050565b60006020820190508181036000830152611c6d818461177a565b905092915050565b60006020820190508181036000830152611c8e816117e7565b9050919050565b60006020820190508181036000830152611cae81611827565b9050919050565b60006060820190508181036000830152611cce81611867565b9050611cdd602083018561176b565b611cea6040830184611b68565b9392505050565b60006020820190508181036000830152611d0a816118a7565b9050919050565b60006020820190508181036000830152611d2a8161190d565b9050919050565b60006060820190508181036000830152611d4a8161194d565b9050611d59602083018561176b565b611d666040830184611b68565b9392505050565b60006020820190508181036000830152611d868161198d565b9050919050565b60006060820190508181036000830152611da6816119cd565b9050611db5602083018561175c565b611dc26040830184611b68565b9392505050565b60006020820190508181036000830152611de281611a0d565b9050919050565b60006020820190508181036000830152611e0281611a4d565b9050919050565b60006020820190508181036000830152611e2281611ab3565b9050919050565b60006060820190508181036000830152611e4281611b19565b9050611e51602083018561175c565b611e5e6040830184611b68565b9392505050565b6000602082019050611e7a6000830184611b68565b92915050565b6000819050602082019050919050565b600081519050919050565b6000602082019050919050565b600082825260208201905092915050565b600082825260208201905092915050565b6000611ed582611fc7565b9150611ee083611fc7565b925082611ef057611eef61207f565b5b828204905092915050565b6000611f0682611fc7565b9150611f1183611fc7565b9250817fffffffffffffffffffffffffffffffffffffffffffffffffffffffffffffffff0483118215151615611f4a57611f49612050565b5b828202905092915050565b6000611f6082611fc7565b9150611f6b83611fc7565b925082821015611f7e57611f7d612050565b5b828203905092915050565b6000611f9482611fa7565b9050919050565b60008115159050919050565b600073ffffffffffffffffffffffffffffffffffffffff82169050919050565b6000819050919050565b6000611fdc82611fe3565b9050919050565b6000611fee82611ff5565b9050919050565b600061200082611fa7565b9050919050565b600061201282611fc7565b91507fffffffffffffffffffffffffffffffffffffffffffffffffffffffffffffffff82141561204557612044612050565b5b600182019050919050565b7f4e487b7100000000000000000000000000000000000000000000000000000000600052601160045260246000fd5b7f4e487b7100000000000000000000000000000000000000000000000000000000600052601260045260246000fd5b6120b781611f89565b81146120c257600080fd5b50565b6120ce81611fc7565b81146120d957600080fd5b5056fea26469706673582212208af4abe381439894baa9d2b098f4786991fa0a23a2ff015c28bb2c4eda7eb98264736f6c63430008000033",
  "immutableReferences": {},
  "source": "//SPDX-License-Identifier: UNLICENSED\npragma solidity ^0.8.0;\n\nimport \"./AssetContract.sol\";\nimport \"./IP2PMarketplace.sol\";\nimport \"./Ownable.sol\";\nimport \"./SafeMath.sol\";\n\ncontract P2PMarketplace is Ownable, IP2PMarketplace{\n    //Allows for function calls from the Asset Contract\n    AssetContract private _AssetContract;\n\n    //Mapping that stores the NFT information for an Asset\n    struct Offer {\n        address payable lender;\n        uint256 GWEIPerPeriod;\n        uint256 tokenId;\n        bool activeOffering;\n        bool activelyBorrowed;\n    }\n\n    Offer[] offers;\n\n    mapping(uint256 => Offer) tokenIdToOffer;\n\n    //Mapping that stores a borrowed asset instance\n    struct borrowedAsset{\n        address payable Borrower;\n        uint256 PricePaid;\n        bool Active;\n    }\n\n    borrowedAsset[] BorrowedAssets;\n\n    mapping(uint256 => borrowedAsset) tokensBorrowed;\n\n    /**\n    * Set the current AssetContract address and initialize the instance of AssetContract.\n    * Requirement: Only the contract owner can call.\n     */\n    constructor() {\n        owner = msg.sender;\n    }\n    \n    function setAssetContract(address _AssetContractAddress) external override onlyOwner{\n        _AssetContract = AssetContract(_AssetContractAddress);\n    }\n\n    /**\n    * Get the details about a offer for _tokenId. Throws an error if there is no activeOffering offer for _tokenId.\n     */\n    function getOffer(uint256 _tokenId) external view override  returns ( \n        address lender, \n        uint256 GWEIPerPeriod, \n        uint256 tokenId, \n        bool activeOffering,\n        bool activelyBorrowed){\n        require(offers[_tokenId].activeOffering == true, \"No active offering for that Asset\");\n            return (\n                offers[_tokenId].lender,\n                offers[_tokenId].GWEIPerPeriod,\n                offers[_tokenId].tokenId,\n                offers[_tokenId].activeOffering,\n                offers[_tokenId].activelyBorrowed);\n        }\n\n    /**\n    * Get all tokenId's that are currently available for lend. \n    * Returns an empty array if none exist.\n     */\n    function getAllTokenOnOffer() external view override returns(uint256[] memory listOfOffers) {\n        uint256 _length = offers.length;\n\n        uint256[] memory _offers;\n\n        for(uint i=0; i<_length; i++){\n            if(offers[i].activeOffering == true && offers[i].activelyBorrowed == false){\n                if(_offers.length == 0){\n                    _offers[0] = offers[i].tokenId;\n                }\n                _offers[(_offers.length-1)] = offers[i].tokenId;\n            }\n        }\n        return _offers;\n    }\n\n    function getTokenGWEI(uint256 tokenId) external view override returns(uint256 price){\n        return offers[tokenId].GWEIPerPeriod;\n    }\n\n    /*\n    * Creates a new offer for _tokenId for the GWEIPerPeriod _GWEIPerPeriod.\n    * Transfers control of Asset to the Smart Contract\n    * Emits the MarketTransaction event with txType \"Asset Available for Lending\"\n    * If offer had been created in the past sets it back to active and updates duration and GWEI\n    * Requirement: Only the owner of _tokenId can create an offer.\n    * Requirement: There can only be one activeOffering offer for a token at a time.\n    * Requirement: Transfer token before creating offer to prevent active offer without token transfer\n     */\n    function setOffer( uint256 _GWEIPerPeriod, uint256 _tokenId) external override {\n        require(_AssetContract.ownerOf(_tokenId) == msg.sender, \"Only the onwner can list a Asset for Sale\");\n        require(tokenIdToOffer[_tokenId].activeOffering != true, \"Asset already has an activeOffering offer\");\n       \n        tokenIdToOffer[_tokenId].lender = payable(msg.sender);\n        tokenIdToOffer[_tokenId].GWEIPerPeriod = _GWEIPerPeriod;\n        tokenIdToOffer[_tokenId].tokenId = _tokenId;\n        tokenIdToOffer[_tokenId].activeOffering = false;\n        tokenIdToOffer[_tokenId].activelyBorrowed = false;\n\n        offers.push(tokenIdToOffer[_tokenId]);\n        \n        _AssetContract.safeTransferFrom(msg.sender, address(_AssetContract), _tokenId);\n        \n        tokenIdToOffer[_tokenId].activeOffering = true;\n        tokenIdToOffer[_tokenId].GWEIPerPeriod = _GWEIPerPeriod;\n       \n       emit MarketTransaction(\"Asset Available for Lending\", msg.sender, _tokenId);\n    } \n\n\n    /**\n    * Removes an existing offer by returning the asset to the Owner\n    * Emits the MarketTransaction event with txType \"Asset Removed From Lending\"\n    * Requirement: Only the lender of _tokenId can remove an offer.\n     */\n    function removeOffer(uint256 _tokenId) external override {\n        //require(tokenIdToOffer[_tokenId].lender == msg.sender, \"Only the Owner can Remove an Asset\");\n        require(tokenIdToOffer[_tokenId].activelyBorrowed == false, \"Asset is currently borrowed\");\n        \n        \n        _AssetContract.safeTransferFrom(address(_AssetContract), tokenIdToOffer[_tokenId].lender, _tokenId);\n        offers[_tokenId].activeOffering = false;\n        \n        emit MarketTransaction(\"Asset Removed From Lending\", tokenIdToOffer[_tokenId].lender, _tokenId);\n    }\n\n\n    /**\n    * Executes the lending of _tokenId.\n    * Sends the price to the contract.\n    * Emits the MarketTransaction event with txType \"Lent\".\n    * FEE MUST BE BUILT INTO THE FRONT END CODE\n    * Requirement: The msg.value must be greater then GWEIPerPeriod of _tokenId to account for price and fees\n    * Requirement: There must be an activeOffering offer for _tokenId\n     */\n    function lendAsset(uint256 _tokenId) external payable override {\n        require(tokenIdToOffer[_tokenId].activeOffering == true, \"Asset is not available\");\n        require(msg.value > (tokenIdToOffer[_tokenId].GWEIPerPeriod), \"Message value too low\");\n        require(tokenIdToOffer[_tokenId].activelyBorrowed == false, \"Asset is currently Borrowed\");\n\n        uint256 borrowId = BorrowedAssets.length;\n\n        tokensBorrowed[borrowId].Borrower = payable(msg.sender);\n\n        tokensBorrowed[borrowId].PricePaid = msg.value;\n        tokensBorrowed[borrowId].Active = true;\n\n        BorrowedAssets.push(tokensBorrowed[borrowId]);\n\n        tokenIdToOffer[_tokenId].activelyBorrowed = true;\n\n        emit MarketTransaction(\"Asset Lent\", msg.sender, _tokenId);\n    }\n\n    /**\n    * Returns an token to owner\n    * No funds sent as payment was already sent\n    * Require original lender to call this function as they own token\n     */\n    function returnAsset(uint256 _tokenId) external override {\n        //require(tokensBorrowed[_tokenId].Borrower == msg.sender, \"Only the Borrower can return an offer\");\n        require(tokenIdToOffer[_tokenId].activelyBorrowed == true, \"Asset is not currently Borrowed\");\n\n        tokenIdToOffer[_tokenId].activelyBorrowed = false;\n        tokensBorrowed[_tokenId].Active = false;\n        \n        uint256 lenderProfit = SafeMath.mul( (tokenIdToOffer[_tokenId].GWEIPerPeriod), SafeMath.div(99,100) );\n        uint256 borrowerCollateral = \n                (tokensBorrowed[_tokenId].PricePaid - tokenIdToOffer[_tokenId].GWEIPerPeriod) -\n                (SafeMath.mul( (tokenIdToOffer[_tokenId].GWEIPerPeriod) ,  SafeMath.div(99,100) ) );\n\n        tokenIdToOffer[_tokenId].lender.transfer(lenderProfit);\n        tokensBorrowed[_tokenId].Borrower.transfer(borrowerCollateral);\n        \n\n        emit MarketTransaction(\"Asset Returned\", tokenIdToOffer[_tokenId].lender, _tokenId);\n    }\n\n    function Withdraw(uint256 amountToTransfer) external onlyOwner override {\n        payable(msg.sender).transfer(amountToTransfer);\n    }\n    \n    function contractBalance() external view returns (uint256){\n        return address(this).balance;\n    }\n}",
  "sourcePath": "/Users/Kaiju/Desktop/Courses/HackFS/HackFS_2021/contracts/P2PMarketplace.sol",
  "compiler": {
    "name": "solc",
    "version": "0.8.0+commit.c7dfd78e.Emscripten.clang"
  },
  "schemaVersion": "3.4.1",
  "updatedAt": "2021-08-13T21:22:40.744Z",
  "networkType": "ethereum",
  "devdoc": {
    "kind": "dev",
    "methods": {},
    "version": 1
  },
  "userdoc": {
    "kind": "user",
    "methods": {
      "constructor": {
        "notice": "Set the current AssetContract address and initialize the instance of AssetContract. Requirement: Only the contract owner can call."
      },
      "getAllTokenOnOffer()": {
        "notice": "Get all tokenId's that are currently available for lend.  Returns an empty array if none exist."
      },
      "getOffer(uint256)": {
        "notice": "Get the details about a offer for _tokenId. Throws an error if there is no activeOffering offer for _tokenId."
      },
      "lendAsset(uint256)": {
        "notice": "Executes the lending of _tokenId. Sends the price to the contract. Emits the MarketTransaction event with txType \"Lent\". FEE MUST BE BUILT INTO THE FRONT END CODE Requirement: The msg.value must be greater then GWEIPerPeriod of _tokenId to account for price and fees Requirement: There must be an activeOffering offer for _tokenId"
      },
      "removeOffer(uint256)": {
        "notice": "Removes an existing offer by returning the asset to the Owner Emits the MarketTransaction event with txType \"Asset Removed From Lending\" Requirement: Only the lender of _tokenId can remove an offer."
      },
      "returnAsset(uint256)": {
        "notice": "Returns an token to owner No funds sent as payment was already sent Require original lender to call this function as they own token"
      },
      "setAssetContract(address)": {
        "notice": "Set the current P2PContract address and initialize the instance of P2Pcontract. Requirement: Only the contract owner can call."
      }
    },
    "version": 1
  }
}