{
  "contractName": "P2PMarketplace",
  "abi": [
    {
      "inputs": [],
      "payable": false,
      "stateMutability": "nonpayable",
      "type": "constructor"
    },
    {
      "anonymous": false,
      "inputs": [
        {
          "indexed": false,
          "internalType": "string",
          "name": "TxType",
          "type": "string"
        },
        {
          "indexed": false,
          "internalType": "address",
          "name": "owner",
          "type": "address"
        },
        {
          "indexed": false,
          "internalType": "uint256",
          "name": "tokenId",
          "type": "uint256"
        }
      ],
      "name": "MarketTransaction",
      "type": "event"
    },
    {
      "constant": true,
      "inputs": [],
      "name": "owner",
      "outputs": [
        {
          "internalType": "address",
          "name": "",
          "type": "address"
        }
      ],
      "payable": false,
      "stateMutability": "view",
      "type": "function"
    },
    {
      "constant": false,
      "inputs": [
        {
          "internalType": "address",
          "name": "_AssetContractAddress",
          "type": "address"
        }
      ],
      "name": "setAssetContract",
      "outputs": [],
      "payable": false,
      "stateMutability": "nonpayable",
      "type": "function"
    },
    {
      "constant": true,
      "inputs": [
        {
          "internalType": "uint256",
          "name": "_tokenId",
          "type": "uint256"
        }
      ],
      "name": "getOffer",
      "outputs": [
        {
          "internalType": "address",
          "name": "lender",
          "type": "address"
        },
        {
          "internalType": "uint256",
          "name": "dollarsPerPeriod",
          "type": "uint256"
        },
        {
          "internalType": "uint256",
          "name": "durationOfLend",
          "type": "uint256"
        },
        {
          "internalType": "uint256",
          "name": "tokenId",
          "type": "uint256"
        },
        {
          "internalType": "bool",
          "name": "activeOffering",
          "type": "bool"
        },
        {
          "internalType": "bool",
          "name": "activelyBorrowed",
          "type": "bool"
        }
      ],
      "payable": false,
      "stateMutability": "view",
      "type": "function"
    },
    {
      "constant": true,
      "inputs": [],
      "name": "getAllTokenOnOffer",
      "outputs": [
        {
          "internalType": "uint256[]",
          "name": "listOfOffers",
          "type": "uint256[]"
        }
      ],
      "payable": false,
      "stateMutability": "view",
      "type": "function"
    },
    {
      "constant": false,
      "inputs": [
        {
          "internalType": "uint256",
          "name": "_durationOfLend",
          "type": "uint256"
        },
        {
          "internalType": "uint256",
          "name": "_dollarsPerPeriod",
          "type": "uint256"
        },
        {
          "internalType": "uint256",
          "name": "_tokenId",
          "type": "uint256"
        }
      ],
      "name": "setOffer",
      "outputs": [],
      "payable": false,
      "stateMutability": "nonpayable",
      "type": "function"
    },
    {
      "constant": false,
      "inputs": [
        {
          "internalType": "uint256",
          "name": "_tokenId",
          "type": "uint256"
        }
      ],
      "name": "removeOffer",
      "outputs": [],
      "payable": false,
      "stateMutability": "nonpayable",
      "type": "function"
    },
    {
      "constant": false,
      "inputs": [
        {
          "internalType": "uint256",
          "name": "_tokenId",
          "type": "uint256"
        }
      ],
      "name": "lendAsset",
      "outputs": [],
      "payable": true,
      "stateMutability": "payable",
      "type": "function"
    },
    {
      "constant": false,
      "inputs": [
        {
          "internalType": "uint256",
          "name": "_tokenId",
          "type": "uint256"
        }
      ],
      "name": "returnAsset",
      "outputs": [],
      "payable": false,
      "stateMutability": "nonpayable",
      "type": "function"
    },
    {
      "constant": false,
      "inputs": [
        {
          "internalType": "uint256",
          "name": "amountToTransfer",
          "type": "uint256"
        }
      ],
      "name": "Withdraw",
      "outputs": [],
      "payable": false,
      "stateMutability": "nonpayable",
      "type": "function"
    },
    {
      "constant": true,
      "inputs": [],
      "name": "contractBalance",
      "outputs": [
        {
          "internalType": "uint256",
          "name": "",
          "type": "uint256"
        }
      ],
      "payable": false,
      "stateMutability": "view",
      "type": "function"
    }
  ],
  "bytecode": "0x608060405234801561001057600080fd5b50336000806101000a81548173ffffffffffffffffffffffffffffffffffffffff021916908373ffffffffffffffffffffffffffffffffffffffff160217905550336000806101000a81548173ffffffffffffffffffffffffffffffffffffffff021916908373ffffffffffffffffffffffffffffffffffffffff16021790555061191b806100a06000396000f3fe6080604052600436106100915760003560e01c80635eca592b116100595780635eca592b146102455780638b7afe2e146102b15780638da5cb5b146102dc5780638ee652501461033357806395a0f9c71461036e57610091565b80630a71a8c3146100965780631760705f146100c45780634579268a146101155780635a525d83146101bb5780635b6b431d1461020a575b600080fd5b6100c2600480360360208110156100ac57600080fd5b81019080803590602001909291905050506103a9565b005b3480156100d057600080fd5b50610113600480360360208110156100e757600080fd5b81019080803573ffffffffffffffffffffffffffffffffffffffff1690602001909291905050506107cf565b005b34801561012157600080fd5b5061014e6004803603602081101561013857600080fd5b810190808035906020019092919050505061086c565b604051808773ffffffffffffffffffffffffffffffffffffffff1673ffffffffffffffffffffffffffffffffffffffff1681526020018681526020018581526020018481526020018315151515815260200182151515158152602001965050505050505060405180910390f35b3480156101c757600080fd5b50610208600480360360608110156101de57600080fd5b810190808035906020019092919080359060200190929190803590602001909291905050506109ca565b005b34801561021657600080fd5b506102436004803603602081101561022d57600080fd5b8101908080359060200190929190505050610fc7565b005b34801561025157600080fd5b5061025a61106a565b6040518080602001828103825283818151815260200191508051906020019060200280838360005b8381101561029d578082015181840152602081019050610282565b505050509050019250505060405180910390f35b3480156102bd57600080fd5b506102c6611187565b6040518082815260200191505060405180910390f35b3480156102e857600080fd5b506102f16111a6565b604051808273ffffffffffffffffffffffffffffffffffffffff1673ffffffffffffffffffffffffffffffffffffffff16815260200191505060405180910390f35b34801561033f57600080fd5b5061036c6004803603602081101561035657600080fd5b81019080803590602001909291905050506111cb565b005b34801561037a57600080fd5b506103a76004803603602081101561039157600080fd5b810190808035906020019092919050505061152d565b005b600115156003600083815260200190815260200160002060040160009054906101000a900460ff16151514610446576040517f08c379a00000000000000000000000000000000000000000000000000000000081526004018080602001828103825260168152602001807f4173736574206973206e6f7420617661696c61626c650000000000000000000081525060200191505060405180910390fd5b600360008281526020019081526020016000206002015434116104d1576040517f08c379a00000000000000000000000000000000000000000000000000000000081526004018080602001828103825260158152602001807f4d6573736167652076616c756520746f6f206c6f77000000000000000000000081525060200191505060405180910390fd5b600015156003600083815260200190815260200160002060040160019054906101000a900460ff1615151461056e576040517f08c379a000000000000000000000000000000000000000000000000000000000815260040180806020018281038252601b8152602001807f41737365742069732063757272656e746c7920426f72726f776564000000000081525060200191505060405180910390fd5b60006004805490509050336005600083815260200190815260200160002060000160006101000a81548173ffffffffffffffffffffffffffffffffffffffff021916908373ffffffffffffffffffffffffffffffffffffffff16021790555034600560008381526020019081526020016000206001018190555060016005600083815260200190815260200160002060020160006101000a81548160ff021916908315150217905550600460056000838152602001908152602001600020908060018154018082558091505090600182039060005260206000209060030201600090919290919091506000820160009054906101000a900473ffffffffffffffffffffffffffffffffffffffff168160000160006101000a81548173ffffffffffffffffffffffffffffffffffffffff021916908373ffffffffffffffffffffffffffffffffffffffff160217905550600182015481600101556002820160009054906101000a900460ff168160020160006101000a81548160ff02191690831515021790555050505060016003600084815260200190815260200160002060040160016101000a81548160ff0219169083151502179055507fd99e4fad9ad6313b1feb588fa8e605e3a9873172f2024330c35dd2b4041a4386338360405180806020018473ffffffffffffffffffffffffffffffffffffffff1673ffffffffffffffffffffffffffffffffffffffff1681526020018381526020018281038252600a8152602001807f4173736574204c656e7400000000000000000000000000000000000000000000815250602001935050505060405180910390a15050565b6000809054906101000a900473ffffffffffffffffffffffffffffffffffffffff1673ffffffffffffffffffffffffffffffffffffffff163373ffffffffffffffffffffffffffffffffffffffff161461082857600080fd5b80600160006101000a81548173ffffffffffffffffffffffffffffffffffffffff021916908373ffffffffffffffffffffffffffffffffffffffff16021790555050565b6000806000806000806003600088815260200190815260200160002060040160009054906101000a900460ff166108ee576040517f08c379a00000000000000000000000000000000000000000000000000000000081526004018080602001828103825260218152602001806118c66021913960400191505060405180910390fd5b6003600088815260200190815260200160002060000160009054906101000a900473ffffffffffffffffffffffffffffffffffffffff166003600089815260200190815260200160002060020154600360008a815260200190815260200160002060010154600360008b815260200190815260200160002060030154600360008c815260200190815260200160002060040160009054906101000a900460ff16600360008d815260200190815260200160002060040160019054906101000a900460ff1685955095509550955095509550955091939550919395565b3373ffffffffffffffffffffffffffffffffffffffff16600160009054906101000a900473ffffffffffffffffffffffffffffffffffffffff1673ffffffffffffffffffffffffffffffffffffffff16636352211e836040518263ffffffff1660e01b81526004018082815260200191505060206040518083038186803b158015610a5457600080fd5b505afa158015610a68573d6000803e3d6000fd5b505050506040513d6020811015610a7e57600080fd5b810190808051906020019092919050505073ffffffffffffffffffffffffffffffffffffffff1614610afb576040517f08c379a00000000000000000000000000000000000000000000000000000000081526004018080602001828103825260298152602001806118746029913960400191505060405180910390fd5b600115156003600083815260200190815260200160002060040160009054906101000a900460ff1615151415610b7c576040517f08c379a000000000000000000000000000000000000000000000000000000000815260040180806020018281038252602981526020018061189d6029913960400191505060405180910390fd5b336003600083815260200190815260200160002060000160006101000a81548173ffffffffffffffffffffffffffffffffffffffff021916908373ffffffffffffffffffffffffffffffffffffffff16021790555082600360008381526020019081526020016000206001018190555081600360008381526020019081526020016000206002018190555080600360008381526020019081526020016000206003018190555060006003600083815260200190815260200160002060040160006101000a81548160ff02191690831515021790555060006003600083815260200190815260200160002060040160016101000a81548160ff021916908315150217905550600260036000838152602001908152602001600020908060018154018082558091505090600182039060005260206000209060050201600090919290919091506000820160009054906101000a900473ffffffffffffffffffffffffffffffffffffffff168160000160006101000a81548173ffffffffffffffffffffffffffffffffffffffff021916908373ffffffffffffffffffffffffffffffffffffffff1602179055506001820154816001015560028201548160020155600382015481600301556004820160009054906101000a900460ff168160040160006101000a81548160ff0219169083151502179055506004820160019054906101000a900460ff168160040160016101000a81548160ff021916908315150217905550505050600160009054906101000a900473ffffffffffffffffffffffffffffffffffffffff1673ffffffffffffffffffffffffffffffffffffffff166342842e0e33600160009054906101000a900473ffffffffffffffffffffffffffffffffffffffff16846040518463ffffffff1660e01b8152600401808473ffffffffffffffffffffffffffffffffffffffff1673ffffffffffffffffffffffffffffffffffffffff1681526020018373ffffffffffffffffffffffffffffffffffffffff1673ffffffffffffffffffffffffffffffffffffffff1681526020018281526020019350505050600060405180830381600087803b158015610ea157600080fd5b505af1158015610eb5573d6000803e3d6000fd5b5050505060016003600083815260200190815260200160002060040160006101000a81548160ff0219169083151502179055508260036000838152602001908152602001600020600101819055508160036000838152602001908152602001600020600201819055507fd99e4fad9ad6313b1feb588fa8e605e3a9873172f2024330c35dd2b4041a4386338260405180806020018473ffffffffffffffffffffffffffffffffffffffff1673ffffffffffffffffffffffffffffffffffffffff1681526020018381526020018281038252601b8152602001807f417373657420417661696c61626c6520666f72204c656e64696e670000000000815250602001935050505060405180910390a1505050565b6000809054906101000a900473ffffffffffffffffffffffffffffffffffffffff1673ffffffffffffffffffffffffffffffffffffffff163373ffffffffffffffffffffffffffffffffffffffff161461102057600080fd5b3373ffffffffffffffffffffffffffffffffffffffff166108fc829081150290604051600060405180830381858888f19350505050158015611066573d6000803e3d6000fd5b5050565b606060006002805490509050606060008090505b8281101561117e576002818154811061109357fe5b906000526020600020906005020160040160009054906101000a900460ff1680156110ed575060001515600282815481106110ca57fe5b906000526020600020906005020160040160019054906101000a900460ff161515145b1561117157600082511415611135576002818154811061110957fe5b9060005260206000209060050201600301548260008151811061112857fe5b6020026020010181815250505b6002818154811061114257fe5b9060005260206000209060050201600301548260018451038151811061116457fe5b6020026020010181815250505b808060010191505061107e565b50809250505090565b60003073ffffffffffffffffffffffffffffffffffffffff1631905090565b6000809054906101000a900473ffffffffffffffffffffffffffffffffffffffff1681565b600115156003600083815260200190815260200160002060040160019054906101000a900460ff16151514611268576040517f08c379a000000000000000000000000000000000000000000000000000000000815260040180806020018281038252601f8152602001807f4173736574206973206e6f742063757272656e746c7920426f72726f7765640081525060200191505060405180910390fd5b60006003600083815260200190815260200160002060040160016101000a81548160ff02191690831515021790555060006005600083815260200190815260200160002060020160006101000a81548160ff02191690831515021790555060006112f360036000848152602001908152602001600020600201546112ee6063606461182b565b61183f565b90506000611322600360008581526020019081526020016000206002015461131d6063606461182b565b61183f565b60036000858152602001908152602001600020600201546005600086815260200190815260200160002060010154030390506003600084815260200190815260200160002060000160009054906101000a900473ffffffffffffffffffffffffffffffffffffffff1673ffffffffffffffffffffffffffffffffffffffff166108fc839081150290604051600060405180830381858888f193505050501580156113d0573d6000803e3d6000fd5b506005600084815260200190815260200160002060000160009054906101000a900473ffffffffffffffffffffffffffffffffffffffff1673ffffffffffffffffffffffffffffffffffffffff166108fc829081150290604051600060405180830381858888f1935050505015801561144d573d6000803e3d6000fd5b507fd99e4fad9ad6313b1feb588fa8e605e3a9873172f2024330c35dd2b4041a43866003600085815260200190815260200160002060000160009054906101000a900473ffffffffffffffffffffffffffffffffffffffff168460405180806020018473ffffffffffffffffffffffffffffffffffffffff1673ffffffffffffffffffffffffffffffffffffffff1681526020018381526020018281038252600e8152602001807f41737365742052657475726e6564000000000000000000000000000000000000815250602001935050505060405180910390a1505050565b600015156003600083815260200190815260200160002060040160019054906101000a900460ff161515146115ca576040517f08c379a000000000000000000000000000000000000000000000000000000000815260040180806020018281038252601b8152602001807f41737365742069732063757272656e746c7920626f72726f776564000000000081525060200191505060405180910390fd5b600160009054906101000a900473ffffffffffffffffffffffffffffffffffffffff1673ffffffffffffffffffffffffffffffffffffffff166342842e0e600160009054906101000a900473ffffffffffffffffffffffffffffffffffffffff166003600085815260200190815260200160002060000160009054906101000a900473ffffffffffffffffffffffffffffffffffffffff16846040518463ffffffff1660e01b8152600401808473ffffffffffffffffffffffffffffffffffffffff1673ffffffffffffffffffffffffffffffffffffffff1681526020018373ffffffffffffffffffffffffffffffffffffffff1673ffffffffffffffffffffffffffffffffffffffff1681526020018281526020019350505050600060405180830381600087803b1580156116ff57600080fd5b505af1158015611713573d6000803e3d6000fd5b5050505060006002828154811061172657fe5b906000526020600020906005020160040160006101000a81548160ff0219169083151502179055507fd99e4fad9ad6313b1feb588fa8e605e3a9873172f2024330c35dd2b4041a43866003600083815260200190815260200160002060000160009054906101000a900473ffffffffffffffffffffffffffffffffffffffff168260405180806020018473ffffffffffffffffffffffffffffffffffffffff1673ffffffffffffffffffffffffffffffffffffffff1681526020018381526020018281038252601a8152602001807f41737365742052656d6f7665642046726f6d204c656e64696e67000000000000815250602001935050505060405180910390a150565b600081838161183657fe5b04905092915050565b600080831415611852576000905061186d565b81830290508183828161186157fe5b041461186957fe5b8090505b9291505056fe4f6e6c7920746865206f6e776e65722063616e206c697374206120417373657420666f722053616c65417373657420616c72656164792068617320616e206163746976654f66666572696e67206f666665724e6f20616374697665206f66666572696e6720666f722074686174204173736574a265627a7a7231582027c2955b6721b223fdc4c4a88614b73aa9928bfee582c33a8b3326a142119c5164736f6c634300050c0032",
  "source": "pragma solidity ^0.5.12;\n\nimport \"./AssetContract.sol\";\nimport \"./IP2PMarketplace.sol\";\nimport \"./Ownable.sol\";\nimport \"./SafeMath.sol\";\n\n\n\ncontract P2PMarketplace is Ownable, IP2PMarketplace{\n    //Allows for function calls from the Asset Contract\n    AssetContract private _AssetContract;\n\n    //Mapping that stores the NFT information for an Asset\n    struct Offer {\n        address payable lender;\n        uint256 durationOfLend;\n        uint256 dollarsPerPeriod;\n        uint256 tokenId;\n        bool activeOffering;\n        bool activelyBorrowed;\n    }\n\n    Offer[] offers;\n\n    mapping(uint256 => Offer) tokenIdToOffer;\n\n    //Mapping that stores a borrowed asset instance\n    struct borrowedAsset{\n        address payable Borrower;\n        uint256 PricePaid;\n        bool Active;\n    }\n\n    borrowedAsset[] BorrowedAssets;\n\n    mapping(uint256 => borrowedAsset) tokensBorrowed;\n\n    /**\n    * Set the current AssetContract address and initialize the instance of AssetContract.\n    * Requirement: Only the contract owner can call.\n     */\n    constructor() public{\n        owner = msg.sender;\n    }\n    \n    function setAssetContract(address _AssetContractAddress) external onlyOwner{\n        _AssetContract = AssetContract(_AssetContractAddress);\n    }\n\n    /**\n    * Get the details about a offer for _tokenId. Throws an error if there is no activeOffering offer for _tokenId.\n     */\n    function getOffer(uint256 _tokenId) external view returns ( \n        address lender, \n        uint256 dollarsPerPeriod, \n        uint256 durationOfLend, \n        uint256 tokenId, \n        bool activeOffering,\n        bool activelyBorrowed){\n        require(tokenIdToOffer[_tokenId].activeOffering, \"No active offering for that Asset\");\n            return (\n                tokenIdToOffer[_tokenId].lender,\n                tokenIdToOffer[_tokenId].dollarsPerPeriod,\n                tokenIdToOffer[_tokenId].durationOfLend,\n                tokenIdToOffer[_tokenId].tokenId,\n                tokenIdToOffer[_tokenId].activeOffering,\n                tokenIdToOffer[_tokenId].activelyBorrowed);\n        }\n\n    /**\n    * Get all tokenId's that are currently available for lend. \n    * Returns an empty array if none exist.\n     */\n    function getAllTokenOnOffer() external view  returns(uint256[] memory listOfOffers){\n        uint256 _length = offers.length;\n\n        uint256[] memory _offers;\n\n        for(uint i=0; i<_length; i++){\n            if(offers[i].activeOffering && offers[i].activelyBorrowed == false){\n                if(_offers.length == 0){\n                    _offers[0] = offers[i].tokenId;\n                }\n                _offers[(_offers.length-1)] = offers[i].tokenId;\n            }\n        }\n        return _offers;\n    }\n\n    /*\n    * Creates a new offer for _tokenId for the dollarsPerPeriod _dollarsPerPeriod.\n    * Transfers control of Asset to the Smart Contract\n    * Emits the MarketTransaction event with txType \"Asset Available for Lending\"\n    * If offer had been created in the past sets it back to active and updates duration and dollars\n    * Requirement: Only the owner of _tokenId can create an offer.\n    * Requirement: There can only be one activeOffering offer for a token at a time.\n    * Requirement: Transfer token before creating offer to prevent active offer without token transfer\n     */\n    function setOffer(uint256 _durationOfLend, uint256 _dollarsPerPeriod, uint256 _tokenId) external{\n        require(_AssetContract.ownerOf(_tokenId) == msg.sender, \"Only the onwner can list a Asset for Sale\");\n        require(tokenIdToOffer[_tokenId].activeOffering != true, \"Asset already has an activeOffering offer\");\n       \n        tokenIdToOffer[_tokenId].lender = msg.sender;\n        tokenIdToOffer[_tokenId].durationOfLend = _durationOfLend;\n        tokenIdToOffer[_tokenId].dollarsPerPeriod = _dollarsPerPeriod;\n        tokenIdToOffer[_tokenId].tokenId = _tokenId;\n        tokenIdToOffer[_tokenId].activeOffering = false;\n        tokenIdToOffer[_tokenId].activelyBorrowed = false;\n\n        offers.push(tokenIdToOffer[_tokenId]);\n        \n        _AssetContract.safeTransferFrom(msg.sender, address(_AssetContract), _tokenId);\n        \n        tokenIdToOffer[_tokenId].activeOffering = true;\n        tokenIdToOffer[_tokenId].durationOfLend = _durationOfLend;\n        tokenIdToOffer[_tokenId].dollarsPerPeriod = _dollarsPerPeriod;\n       \n       emit MarketTransaction(\"Asset Available for Lending\", msg.sender, _tokenId);\n    } \n\n\n    /**\n    * Removes an existing offer by returning the asset to the Owner\n    * Emits the MarketTransaction event with txType \"Asset Removed From Lending\"\n    * Requirement: Only the lender of _tokenId can remove an offer.\n     */\n    function removeOffer(uint256 _tokenId) external{\n        //require(tokenIdToOffer[_tokenId].lender == msg.sender, \"Only the Owner can Remove an Asset\");\n        require(tokenIdToOffer[_tokenId].activelyBorrowed == false, \"Asset is currently borrowed\");\n        \n        \n        _AssetContract.safeTransferFrom(address(_AssetContract), tokenIdToOffer[_tokenId].lender, _tokenId);\n        offers[_tokenId].activeOffering = false;\n        \n        emit MarketTransaction(\"Asset Removed From Lending\", tokenIdToOffer[_tokenId].lender, _tokenId);\n    }\n\n\n    /**\n    * Executes the lending of _tokenId.\n    * Sends the price to the contract.\n    * Emits the MarketTransaction event with txType \"Lent\".\n    * FEE MUST BE BUILT INTO THE FRONT END CODE\n    * Requirement: The msg.value must be greater then dollarsPerPeriod of _tokenId to account for price and fees\n    * Requirement: There must be an activeOffering offer for _tokenId\n     */\n    function lendAsset(uint256 _tokenId) external payable{\n        require(tokenIdToOffer[_tokenId].activeOffering == true, \"Asset is not available\");\n        require(msg.value > (tokenIdToOffer[_tokenId].dollarsPerPeriod), \"Message value too low\");\n        require(tokenIdToOffer[_tokenId].activelyBorrowed == false, \"Asset is currently Borrowed\");\n\n        uint256 borrowId = BorrowedAssets.length;\n\n        tokensBorrowed[borrowId].Borrower = msg.sender;\n\n        tokensBorrowed[borrowId].PricePaid = msg.value;\n        tokensBorrowed[borrowId].Active = true;\n\n        BorrowedAssets.push(tokensBorrowed[borrowId]);\n\n        tokenIdToOffer[_tokenId].activelyBorrowed = true;\n\n        emit MarketTransaction(\"Asset Lent\", msg.sender, _tokenId);\n    }\n\n    /**\n    * Returns an token to owner\n    * No funds sent as payment was already sent\n    * Require original lender to call this function as they own token\n     */\n    function returnAsset(uint256 _tokenId) external {\n        //require(tokensBorrowed[_tokenId].Borrower == msg.sender, \"Only the Borrower can return an offer\");\n        require(tokenIdToOffer[_tokenId].activelyBorrowed == true, \"Asset is not currently Borrowed\");\n\n        tokenIdToOffer[_tokenId].activelyBorrowed = false;\n        tokensBorrowed[_tokenId].Active = false;\n        \n        uint256 lenderProfit = SafeMath.mul( (tokenIdToOffer[_tokenId].dollarsPerPeriod), SafeMath.div(99,100) );\n        uint256 borrowerCollateral = \n                (tokensBorrowed[_tokenId].PricePaid - tokenIdToOffer[_tokenId].dollarsPerPeriod) -\n                (SafeMath.mul( (tokenIdToOffer[_tokenId].dollarsPerPeriod) ,  SafeMath.div(99,100) ) );\n\n        tokenIdToOffer[_tokenId].lender.transfer(lenderProfit);\n        tokensBorrowed[_tokenId].Borrower.transfer(borrowerCollateral);\n        \n\n        emit MarketTransaction(\"Asset Returned\", tokenIdToOffer[_tokenId].lender, _tokenId);\n    }\n\n    function Withdraw(uint256 amountToTransfer) external onlyOwner{\n        msg.sender.transfer(amountToTransfer);\n    }\n    \n    function contractBalance() external view returns (uint256){\n        return address(this).balance;\n    }\n}",
  "sourcePath": "/Users/Kaiju/Desktop/Courses/Hackathons/HackFS/contracts/P2PMarketplace.sol",
  "compiler": {
    "name": "solc",
    "version": "0.5.12+commit.7709ece9.Emscripten.clang"
  },
  "schemaVersion": "3.4.1",
  "updatedAt": "2021-07-27T16:29:45.169Z",
  "devdoc": {
    "methods": {}
  },
  "userdoc": {
    "methods": {
      "constructor": "Set the current AssetContract address and initialize the instance of AssetContract. Requirement: Only the contract owner can call.",
      "getAllTokenOnOffer()": {
        "notice": "Get all tokenId's that are currently available for lend.  Returns an empty array if none exist."
      },
      "getOffer(uint256)": {
        "notice": "Get the details about a offer for _tokenId. Throws an error if there is no activeOffering offer for _tokenId."
      },
      "lendAsset(uint256)": {
        "notice": "Executes the lending of _tokenId. Sends the price to the contract. Emits the MarketTransaction event with txType \"Lent\". FEE MUST BE BUILT INTO THE FRONT END CODE Requirement: The msg.value must be greater then dollarsPerPeriod of _tokenId to account for price and fees Requirement: There must be an activeOffering offer for _tokenId"
      },
      "removeOffer(uint256)": {
        "notice": "Removes an existing offer by returning the asset to the Owner Emits the MarketTransaction event with txType \"Asset Removed From Lending\" Requirement: Only the lender of _tokenId can remove an offer."
      },
      "returnAsset(uint256)": {
        "notice": "Returns an token to owner No funds sent as payment was already sent Require original lender to call this function as they own token"
      }
    }
  }
}