{
  "contractName": "P2PMarketplace",
  "abi": [
    {
      "inputs": [],
      "stateMutability": "nonpayable",
      "type": "constructor"
    },
    {
      "anonymous": false,
      "inputs": [
        {
          "indexed": false,
          "internalType": "string",
          "name": "TxType",
          "type": "string"
        },
        {
          "indexed": false,
          "internalType": "address",
          "name": "owner",
          "type": "address"
        },
        {
          "indexed": false,
          "internalType": "uint256",
          "name": "tokenId",
          "type": "uint256"
        }
      ],
      "name": "MarketTransaction",
      "type": "event"
    },
    {
      "inputs": [],
      "name": "owner",
      "outputs": [
        {
          "internalType": "address",
          "name": "",
          "type": "address"
        }
      ],
      "stateMutability": "view",
      "type": "function",
      "constant": true
    },
    {
      "inputs": [
        {
          "internalType": "address",
          "name": "_AssetContractAddress",
          "type": "address"
        }
      ],
      "name": "setAssetContract",
      "outputs": [],
      "stateMutability": "nonpayable",
      "type": "function"
    },
    {
      "inputs": [
        {
          "internalType": "uint256",
          "name": "_tokenId",
          "type": "uint256"
        }
      ],
      "name": "getOffer",
      "outputs": [
        {
          "internalType": "address",
          "name": "lender",
          "type": "address"
        },
        {
          "internalType": "uint256",
          "name": "GWEIPerPeriod",
          "type": "uint256"
        },
        {
          "internalType": "uint256",
          "name": "tokenId",
          "type": "uint256"
        },
        {
          "internalType": "bool",
          "name": "activeOffering",
          "type": "bool"
        },
        {
          "internalType": "bool",
          "name": "activelyBorrowed",
          "type": "bool"
        }
      ],
      "stateMutability": "view",
      "type": "function",
      "constant": true
    },
    {
      "inputs": [],
      "name": "getAllTokenOnOffer",
      "outputs": [
        {
          "internalType": "uint256[]",
          "name": "listOfOffers",
          "type": "uint256[]"
        }
      ],
      "stateMutability": "view",
      "type": "function",
      "constant": true
    },
    {
      "inputs": [
        {
          "internalType": "uint256",
          "name": "_GWEIPerPeriod",
          "type": "uint256"
        },
        {
          "internalType": "uint256",
          "name": "_tokenId",
          "type": "uint256"
        }
      ],
      "name": "setOffer",
      "outputs": [],
      "stateMutability": "nonpayable",
      "type": "function"
    },
    {
      "inputs": [
        {
          "internalType": "uint256",
          "name": "_tokenId",
          "type": "uint256"
        }
      ],
      "name": "removeOffer",
      "outputs": [],
      "stateMutability": "nonpayable",
      "type": "function"
    },
    {
      "inputs": [
        {
          "internalType": "uint256",
          "name": "_tokenId",
          "type": "uint256"
        }
      ],
      "name": "lendAsset",
      "outputs": [],
      "stateMutability": "payable",
      "type": "function",
      "payable": true
    },
    {
      "inputs": [
        {
          "internalType": "uint256",
          "name": "_tokenId",
          "type": "uint256"
        }
      ],
      "name": "returnAsset",
      "outputs": [],
      "stateMutability": "nonpayable",
      "type": "function"
    },
    {
      "inputs": [
        {
          "internalType": "uint256",
          "name": "amountToTransfer",
          "type": "uint256"
        }
      ],
      "name": "Withdraw",
      "outputs": [],
      "stateMutability": "nonpayable",
      "type": "function"
    },
    {
      "inputs": [],
      "name": "contractBalance",
      "outputs": [
        {
          "internalType": "uint256",
          "name": "",
          "type": "uint256"
        }
      ],
      "stateMutability": "view",
      "type": "function",
      "constant": true
    }
  ],
  "bytecode": "0x608060405234801561001057600080fd5b50336000806101000a81548173ffffffffffffffffffffffffffffffffffffffff021916908373ffffffffffffffffffffffffffffffffffffffff160217905550336000806101000a81548173ffffffffffffffffffffffffffffffffffffffff021916908373ffffffffffffffffffffffffffffffffffffffff160217905550611f29806100a06000396000f3fe6080604052600436106100915760003560e01c80638b7afe2e116100595780638b7afe2e146101705780638da5cb5b1461019b5780638ee65250146101c6578063941b055b146101ef57806395a0f9c71461021857610091565b80630a71a8c3146100965780631760705f146100b25780634579268a146100db5780635b6b431d1461011c5780635eca592b14610145575b600080fd5b6100b060048036038101906100ab91906114f6565b610241565b005b3480156100be57600080fd5b506100d960048036038101906100d491906114a4565b610560565b005b3480156100e757600080fd5b5061010260048036038101906100fd91906114f6565b6105fc565b604051610113959493929190611a17565b60405180910390f35b34801561012857600080fd5b50610143600480360381019061013e91906114f6565b610727565b005b34801561015157600080fd5b5061015a6107c9565b6040516101679190611a6a565b60405180910390f35b34801561017c57600080fd5b50610185610a00565b6040516101929190611c7c565b60405180910390f35b3480156101a757600080fd5b506101b0610a08565b6040516101bd919061198e565b60405180910390f35b3480156101d257600080fd5b506101ed60048036038101906101e891906114f6565b610a2c565b005b3480156101fb57600080fd5b506102166004803603810190610211919061151f565b610d02565b005b34801561022457600080fd5b5061023f600480360381019061023a91906114f6565b6111bd565b005b600115156003600083815260200190815260200160002060030160009054906101000a900460ff161515146102ab576040517f08c379a00000000000000000000000000000000000000000000000000000000081526004016102a290611a8c565b60405180910390fd5b60036000828152602001908152602001600020600101543411610303576040517f08c379a00000000000000000000000000000000000000000000000000000000081526004016102fa90611b84565b60405180910390fd5b600015156003600083815260200190815260200160002060030160019054906101000a900460ff1615151461036d576040517f08c379a000000000000000000000000000000000000000000000000000000000815260040161036490611aac565b60405180910390fd5b60006004805490509050336005600083815260200190815260200160002060000160006101000a81548173ffffffffffffffffffffffffffffffffffffffff021916908373ffffffffffffffffffffffffffffffffffffffff16021790555034600560008381526020019081526020016000206001018190555060016005600083815260200190815260200160002060020160006101000a81548160ff02191690831515021790555060046005600083815260200190815260200160002090806001815401808255809150506001900390600052602060002090600302016000909190919091506000820160009054906101000a900473ffffffffffffffffffffffffffffffffffffffff168160000160006101000a81548173ffffffffffffffffffffffffffffffffffffffff021916908373ffffffffffffffffffffffffffffffffffffffff160217905550600182015481600101556002820160009054906101000a900460ff168160020160006101000a81548160ff021916908315150217905550505060016003600084815260200190815260200160002060030160016101000a81548160ff0219169083151502179055507fd99e4fad9ad6313b1feb588fa8e605e3a9873172f2024330c35dd2b4041a43863383604051610554929190611acc565b60405180910390a15050565b60008054906101000a900473ffffffffffffffffffffffffffffffffffffffff1673ffffffffffffffffffffffffffffffffffffffff163373ffffffffffffffffffffffffffffffffffffffff16146105b857600080fd5b80600160006101000a81548173ffffffffffffffffffffffffffffffffffffffff021916908373ffffffffffffffffffffffffffffffffffffffff16021790555050565b60008060008060006003600087815260200190815260200160002060030160009054906101000a900460ff16610667576040517f08c379a000000000000000000000000000000000000000000000000000000000815260040161065e90611c20565b60405180910390fd5b6003600087815260200190815260200160002060000160009054906101000a900473ffffffffffffffffffffffffffffffffffffffff1660036000888152602001908152602001600020600101546003600089815260200190815260200160002060020154600360008a815260200190815260200160002060030160009054906101000a900460ff16600360008b815260200190815260200160002060030160019054906101000a900460ff169450945094509450945091939590929450565b60008054906101000a900473ffffffffffffffffffffffffffffffffffffffff1673ffffffffffffffffffffffffffffffffffffffff163373ffffffffffffffffffffffffffffffffffffffff161461077f57600080fd5b3373ffffffffffffffffffffffffffffffffffffffff166108fc829081150290604051600060405180830381858888f193505050501580156107c5573d6000803e3d6000fd5b5050565b606060006002805490509050606060005b828110156109f7576002818154811061081c577f4e487b7100000000000000000000000000000000000000000000000000000000600052603260045260246000fd5b906000526020600020906004020160030160009054906101000a900460ff1680156108a357506000151560028281548110610880577f4e487b7100000000000000000000000000000000000000000000000000000000600052603260045260246000fd5b906000526020600020906004020160030160019054906101000a900460ff161515145b156109e45760008251141561094557600281815481106108ec577f4e487b7100000000000000000000000000000000000000000000000000000000600052603260045260246000fd5b90600052602060002090600402016002015482600081518110610938577f4e487b7100000000000000000000000000000000000000000000000000000000600052603260045260246000fd5b6020026020010181815250505b6002818154811061097f577f4e487b7100000000000000000000000000000000000000000000000000000000600052603260045260246000fd5b90600052602060002090600402016002015482600184516109a09190611d6c565b815181106109d7577f4e487b7100000000000000000000000000000000000000000000000000000000600052603260045260246000fd5b6020026020010181815250505b80806109ef90611e1e565b9150506107da565b50809250505090565b600047905090565b60008054906101000a900473ffffffffffffffffffffffffffffffffffffffff1681565b600115156003600083815260200190815260200160002060030160019054906101000a900460ff16151514610a96576040517f08c379a0000000000000000000000000000000000000000000000000000000008152600401610a8d90611be0565b60405180910390fd5b60006003600083815260200190815260200160002060030160016101000a81548160ff02191690831515021790555060006005600083815260200190815260200160002060020160006101000a81548160ff0219169083151502179055506000610b216003600084815260200190815260200160002060010154610b1c606360646113e6565b6113fc565b90506000610b506003600085815260200190815260200160002060010154610b4b606360646113e6565b6113fc565b60036000858152602001908152602001600020600101546005600086815260200190815260200160002060010154610b889190611d6c565b610b929190611d6c565b90506003600084815260200190815260200160002060000160009054906101000a900473ffffffffffffffffffffffffffffffffffffffff1673ffffffffffffffffffffffffffffffffffffffff166108fc839081150290604051600060405180830381858888f19350505050158015610c10573d6000803e3d6000fd5b506005600084815260200190815260200160002060000160009054906101000a900473ffffffffffffffffffffffffffffffffffffffff1673ffffffffffffffffffffffffffffffffffffffff166108fc829081150290604051600060405180830381858888f19350505050158015610c8d573d6000803e3d6000fd5b507fd99e4fad9ad6313b1feb588fa8e605e3a9873172f2024330c35dd2b4041a43866003600085815260200190815260200160002060000160009054906101000a900473ffffffffffffffffffffffffffffffffffffffff1684604051610cf5929190611c40565b60405180910390a1505050565b3373ffffffffffffffffffffffffffffffffffffffff16600160009054906101000a900473ffffffffffffffffffffffffffffffffffffffff1673ffffffffffffffffffffffffffffffffffffffff16636352211e836040518263ffffffff1660e01b8152600401610d749190611c7c565b60206040518083038186803b158015610d8c57600080fd5b505afa158015610da0573d6000803e3d6000fd5b505050506040513d601f19601f82011682018060405250810190610dc491906114cd565b73ffffffffffffffffffffffffffffffffffffffff1614610e1a576040517f08c379a0000000000000000000000000000000000000000000000000000000008152600401610e1190611b08565b60405180910390fd5b600115156003600083815260200190815260200160002060030160009054906101000a900460ff1615151415610e85576040517f08c379a0000000000000000000000000000000000000000000000000000000008152600401610e7c90611c00565b60405180910390fd5b336003600083815260200190815260200160002060000160006101000a81548173ffffffffffffffffffffffffffffffffffffffff021916908373ffffffffffffffffffffffffffffffffffffffff16021790555081600360008381526020019081526020016000206001018190555080600360008381526020019081526020016000206002018190555060006003600083815260200190815260200160002060030160006101000a81548160ff02191690831515021790555060006003600083815260200190815260200160002060030160016101000a81548160ff02191690831515021790555060026003600083815260200190815260200160002090806001815401808255809150506001900390600052602060002090600402016000909190919091506000820160009054906101000a900473ffffffffffffffffffffffffffffffffffffffff168160000160006101000a81548173ffffffffffffffffffffffffffffffffffffffff021916908373ffffffffffffffffffffffffffffffffffffffff16021790555060018201548160010155600282015481600201556003820160009054906101000a900460ff168160030160006101000a81548160ff0219169083151502179055506003820160019054906101000a900460ff168160030160016101000a81548160ff0219169083151502179055505050600160009054906101000a900473ffffffffffffffffffffffffffffffffffffffff1673ffffffffffffffffffffffffffffffffffffffff166342842e0e33600160009054906101000a900473ffffffffffffffffffffffffffffffffffffffff16846040518463ffffffff1660e01b8152600401611104939291906119e0565b600060405180830381600087803b15801561111e57600080fd5b505af1158015611132573d6000803e3d6000fd5b5050505060016003600083815260200190815260200160002060030160006101000a81548160ff0219169083151502179055508160036000838152602001908152602001600020600101819055507fd99e4fad9ad6313b1feb588fa8e605e3a9873172f2024330c35dd2b4041a438633826040516111b1929190611b48565b60405180910390a15050565b600015156003600083815260200190815260200160002060030160019054906101000a900460ff16151514611227576040517f08c379a000000000000000000000000000000000000000000000000000000000815260040161121e90611b28565b60405180910390fd5b600160009054906101000a900473ffffffffffffffffffffffffffffffffffffffff1673ffffffffffffffffffffffffffffffffffffffff166342842e0e600160009054906101000a900473ffffffffffffffffffffffffffffffffffffffff166003600085815260200190815260200160002060000160009054906101000a900473ffffffffffffffffffffffffffffffffffffffff16846040518463ffffffff1660e01b81526004016112de939291906119a9565b600060405180830381600087803b1580156112f857600080fd5b505af115801561130c573d6000803e3d6000fd5b5050505060006002828154811061134c577f4e487b7100000000000000000000000000000000000000000000000000000000600052603260045260246000fd5b906000526020600020906004020160030160006101000a81548160ff0219169083151502179055507fd99e4fad9ad6313b1feb588fa8e605e3a9873172f2024330c35dd2b4041a43866003600083815260200190815260200160002060000160009054906101000a900473ffffffffffffffffffffffffffffffffffffffff16826040516113db929190611ba4565b60405180910390a150565b600081836113f49190611ce1565b905092915050565b60008083141561140f576000905061145f565b818361141b9190611d12565b905081838261142a9190611ce1565b1461145e577f4e487b7100000000000000000000000000000000000000000000000000000000600052600160045260246000fd5b5b92915050565b60008135905061147481611ec5565b92915050565b60008151905061148981611ec5565b92915050565b60008135905061149e81611edc565b92915050565b6000602082840312156114b657600080fd5b60006114c484828501611465565b91505092915050565b6000602082840312156114df57600080fd5b60006114ed8482850161147a565b91505092915050565b60006020828403121561150857600080fd5b60006115168482850161148f565b91505092915050565b6000806040838503121561153257600080fd5b60006115408582860161148f565b92505060206115518582860161148f565b9150509250929050565b60006115678383611970565b60208301905092915050565b61157c81611de8565b82525050565b61158b81611da0565b82525050565b600061159c82611ca7565b6115a68185611cbf565b93506115b183611c97565b8060005b838110156115e25781516115c9888261155b565b97506115d483611cb2565b9250506001810190506115b5565b5085935050505092915050565b6115f881611db2565b82525050565b600061160b601683611cd0565b91507f4173736574206973206e6f7420617661696c61626c65000000000000000000006000830152602082019050919050565b600061164b601b83611cd0565b91507f41737365742069732063757272656e746c7920426f72726f77656400000000006000830152602082019050919050565b600061168b600a83611cd0565b91507f4173736574204c656e74000000000000000000000000000000000000000000006000830152602082019050919050565b60006116cb602983611cd0565b91507f4f6e6c7920746865206f6e776e65722063616e206c697374206120417373657460008301527f20666f722053616c6500000000000000000000000000000000000000000000006020830152604082019050919050565b6000611731601b83611cd0565b91507f41737365742069732063757272656e746c7920626f72726f77656400000000006000830152602082019050919050565b6000611771601b83611cd0565b91507f417373657420417661696c61626c6520666f72204c656e64696e6700000000006000830152602082019050919050565b60006117b1601583611cd0565b91507f4d6573736167652076616c756520746f6f206c6f7700000000000000000000006000830152602082019050919050565b60006117f1601a83611cd0565b91507f41737365742052656d6f7665642046726f6d204c656e64696e670000000000006000830152602082019050919050565b6000611831601f83611cd0565b91507f4173736574206973206e6f742063757272656e746c7920426f72726f776564006000830152602082019050919050565b6000611871602983611cd0565b91507f417373657420616c72656164792068617320616e206163746976654f6666657260008301527f696e67206f6666657200000000000000000000000000000000000000000000006020830152604082019050919050565b60006118d7602183611cd0565b91507f4e6f20616374697665206f66666572696e6720666f722074686174204173736560008301527f74000000000000000000000000000000000000000000000000000000000000006020830152604082019050919050565b600061193d600e83611cd0565b91507f41737365742052657475726e65640000000000000000000000000000000000006000830152602082019050919050565b61197981611dde565b82525050565b61198881611dde565b82525050565b60006020820190506119a36000830184611582565b92915050565b60006060820190506119be6000830186611582565b6119cb6020830185611573565b6119d8604083018461197f565b949350505050565b60006060820190506119f56000830186611582565b611a026020830185611582565b611a0f604083018461197f565b949350505050565b600060a082019050611a2c6000830188611582565b611a39602083018761197f565b611a46604083018661197f565b611a5360608301856115ef565b611a6060808301846115ef565b9695505050505050565b60006020820190508181036000830152611a848184611591565b905092915050565b60006020820190508181036000830152611aa5816115fe565b9050919050565b60006020820190508181036000830152611ac58161163e565b9050919050565b60006060820190508181036000830152611ae58161167e565b9050611af46020830185611582565b611b01604083018461197f565b9392505050565b60006020820190508181036000830152611b21816116be565b9050919050565b60006020820190508181036000830152611b4181611724565b9050919050565b60006060820190508181036000830152611b6181611764565b9050611b706020830185611582565b611b7d604083018461197f565b9392505050565b60006020820190508181036000830152611b9d816117a4565b9050919050565b60006060820190508181036000830152611bbd816117e4565b9050611bcc6020830185611573565b611bd9604083018461197f565b9392505050565b60006020820190508181036000830152611bf981611824565b9050919050565b60006020820190508181036000830152611c1981611864565b9050919050565b60006020820190508181036000830152611c39816118ca565b9050919050565b60006060820190508181036000830152611c5981611930565b9050611c686020830185611573565b611c75604083018461197f565b9392505050565b6000602082019050611c91600083018461197f565b92915050565b6000819050602082019050919050565b600081519050919050565b6000602082019050919050565b600082825260208201905092915050565b600082825260208201905092915050565b6000611cec82611dde565b9150611cf783611dde565b925082611d0757611d06611e96565b5b828204905092915050565b6000611d1d82611dde565b9150611d2883611dde565b9250817fffffffffffffffffffffffffffffffffffffffffffffffffffffffffffffffff0483118215151615611d6157611d60611e67565b5b828202905092915050565b6000611d7782611dde565b9150611d8283611dde565b925082821015611d9557611d94611e67565b5b828203905092915050565b6000611dab82611dbe565b9050919050565b60008115159050919050565b600073ffffffffffffffffffffffffffffffffffffffff82169050919050565b6000819050919050565b6000611df382611dfa565b9050919050565b6000611e0582611e0c565b9050919050565b6000611e1782611dbe565b9050919050565b6000611e2982611dde565b91507fffffffffffffffffffffffffffffffffffffffffffffffffffffffffffffffff821415611e5c57611e5b611e67565b5b600182019050919050565b7f4e487b7100000000000000000000000000000000000000000000000000000000600052601160045260246000fd5b7f4e487b7100000000000000000000000000000000000000000000000000000000600052601260045260246000fd5b611ece81611da0565b8114611ed957600080fd5b50565b611ee581611dde565b8114611ef057600080fd5b5056fea264697066735822122012ffa62b129bd1dda01541efdd1cbe610910c3e65a99631c7a0f0b89070b572664736f6c63430008000033",
  "immutableReferences": {},
  "source": "//SPDX-License-Identifier: UNLICENSED\npragma solidity ^0.8.0;\n\nimport \"./AssetContract.sol\";\nimport \"./IP2PMarketplace.sol\";\nimport \"./Ownable.sol\";\nimport \"./SafeMath.sol\";\n\ncontract P2PMarketplace is Ownable, IP2PMarketplace{\n    //Allows for function calls from the Asset Contract\n    AssetContract private _AssetContract;\n\n    //Mapping that stores the NFT information for an Asset\n    struct Offer {\n        address payable lender;\n        uint256 GWEIPerPeriod;\n        uint256 tokenId;\n        bool activeOffering;\n        bool activelyBorrowed;\n    }\n\n    Offer[] offers;\n\n    mapping(uint256 => Offer) tokenIdToOffer;\n\n    //Mapping that stores a borrowed asset instance\n    struct borrowedAsset{\n        address payable Borrower;\n        uint256 PricePaid;\n        bool Active;\n    }\n\n    borrowedAsset[] BorrowedAssets;\n\n    mapping(uint256 => borrowedAsset) tokensBorrowed;\n\n    /**\n    * Set the current AssetContract address and initialize the instance of AssetContract.\n    * Requirement: Only the contract owner can call.\n     */\n    constructor() {\n        owner = msg.sender;\n    }\n    \n    function setAssetContract(address _AssetContractAddress) external override onlyOwner{\n        _AssetContract = AssetContract(_AssetContractAddress);\n    }\n\n    /**\n    * Get the details about a offer for _tokenId. Throws an error if there is no activeOffering offer for _tokenId.\n     */\n    function getOffer(uint256 _tokenId) external view override  returns ( \n        address lender, \n        uint256 GWEIPerPeriod, \n        uint256 tokenId, \n        bool activeOffering,\n        bool activelyBorrowed){\n        require(tokenIdToOffer[_tokenId].activeOffering, \"No active offering for that Asset\");\n            return (\n                tokenIdToOffer[_tokenId].lender,\n                tokenIdToOffer[_tokenId].GWEIPerPeriod,\n                tokenIdToOffer[_tokenId].tokenId,\n                tokenIdToOffer[_tokenId].activeOffering,\n                tokenIdToOffer[_tokenId].activelyBorrowed);\n        }\n\n    /**\n    * Get all tokenId's that are currently available for lend. \n    * Returns an empty array if none exist.\n     */\n    function getAllTokenOnOffer() external view override returns(uint256[] memory listOfOffers) {\n        uint256 _length = offers.length;\n\n        uint256[] memory _offers;\n\n        for(uint i=0; i<_length; i++){\n            if(offers[i].activeOffering && offers[i].activelyBorrowed == false){\n                if(_offers.length == 0){\n                    _offers[0] = offers[i].tokenId;\n                }\n                _offers[(_offers.length-1)] = offers[i].tokenId;\n            }\n        }\n        return _offers;\n    }\n\n    /*\n    * Creates a new offer for _tokenId for the GWEIPerPeriod _GWEIPerPeriod.\n    * Transfers control of Asset to the Smart Contract\n    * Emits the MarketTransaction event with txType \"Asset Available for Lending\"\n    * If offer had been created in the past sets it back to active and updates duration and GWEI\n    * Requirement: Only the owner of _tokenId can create an offer.\n    * Requirement: There can only be one activeOffering offer for a token at a time.\n    * Requirement: Transfer token before creating offer to prevent active offer without token transfer\n     */\n    function setOffer( uint256 _GWEIPerPeriod, uint256 _tokenId) external override {\n        require(_AssetContract.ownerOf(_tokenId) == msg.sender, \"Only the onwner can list a Asset for Sale\");\n        require(tokenIdToOffer[_tokenId].activeOffering != true, \"Asset already has an activeOffering offer\");\n       \n        tokenIdToOffer[_tokenId].lender = payable(msg.sender);\n        tokenIdToOffer[_tokenId].GWEIPerPeriod = _GWEIPerPeriod;\n        tokenIdToOffer[_tokenId].tokenId = _tokenId;\n        tokenIdToOffer[_tokenId].activeOffering = false;\n        tokenIdToOffer[_tokenId].activelyBorrowed = false;\n\n        offers.push(tokenIdToOffer[_tokenId]);\n        \n        _AssetContract.safeTransferFrom(msg.sender, address(_AssetContract), _tokenId);\n        \n        tokenIdToOffer[_tokenId].activeOffering = true;\n        tokenIdToOffer[_tokenId].GWEIPerPeriod = _GWEIPerPeriod;\n       \n       emit MarketTransaction(\"Asset Available for Lending\", msg.sender, _tokenId);\n    } \n\n\n    /**\n    * Removes an existing offer by returning the asset to the Owner\n    * Emits the MarketTransaction event with txType \"Asset Removed From Lending\"\n    * Requirement: Only the lender of _tokenId can remove an offer.\n     */\n    function removeOffer(uint256 _tokenId) external override {\n        //require(tokenIdToOffer[_tokenId].lender == msg.sender, \"Only the Owner can Remove an Asset\");\n        require(tokenIdToOffer[_tokenId].activelyBorrowed == false, \"Asset is currently borrowed\");\n        \n        \n        _AssetContract.safeTransferFrom(address(_AssetContract), tokenIdToOffer[_tokenId].lender, _tokenId);\n        offers[_tokenId].activeOffering = false;\n        \n        emit MarketTransaction(\"Asset Removed From Lending\", tokenIdToOffer[_tokenId].lender, _tokenId);\n    }\n\n\n    /**\n    * Executes the lending of _tokenId.\n    * Sends the price to the contract.\n    * Emits the MarketTransaction event with txType \"Lent\".\n    * FEE MUST BE BUILT INTO THE FRONT END CODE\n    * Requirement: The msg.value must be greater then GWEIPerPeriod of _tokenId to account for price and fees\n    * Requirement: There must be an activeOffering offer for _tokenId\n     */\n    function lendAsset(uint256 _tokenId) external payable override {\n        require(tokenIdToOffer[_tokenId].activeOffering == true, \"Asset is not available\");\n        require(msg.value > (tokenIdToOffer[_tokenId].GWEIPerPeriod), \"Message value too low\");\n        require(tokenIdToOffer[_tokenId].activelyBorrowed == false, \"Asset is currently Borrowed\");\n\n        uint256 borrowId = BorrowedAssets.length;\n\n        tokensBorrowed[borrowId].Borrower = payable(msg.sender);\n\n        tokensBorrowed[borrowId].PricePaid = msg.value;\n        tokensBorrowed[borrowId].Active = true;\n\n        BorrowedAssets.push(tokensBorrowed[borrowId]);\n\n        tokenIdToOffer[_tokenId].activelyBorrowed = true;\n\n        emit MarketTransaction(\"Asset Lent\", msg.sender, _tokenId);\n    }\n\n    /**\n    * Returns an token to owner\n    * No funds sent as payment was already sent\n    * Require original lender to call this function as they own token\n     */\n    function returnAsset(uint256 _tokenId) external override {\n        //require(tokensBorrowed[_tokenId].Borrower == msg.sender, \"Only the Borrower can return an offer\");\n        require(tokenIdToOffer[_tokenId].activelyBorrowed == true, \"Asset is not currently Borrowed\");\n\n        tokenIdToOffer[_tokenId].activelyBorrowed = false;\n        tokensBorrowed[_tokenId].Active = false;\n        \n        uint256 lenderProfit = SafeMath.mul( (tokenIdToOffer[_tokenId].GWEIPerPeriod), SafeMath.div(99,100) );\n        uint256 borrowerCollateral = \n                (tokensBorrowed[_tokenId].PricePaid - tokenIdToOffer[_tokenId].GWEIPerPeriod) -\n                (SafeMath.mul( (tokenIdToOffer[_tokenId].GWEIPerPeriod) ,  SafeMath.div(99,100) ) );\n\n        tokenIdToOffer[_tokenId].lender.transfer(lenderProfit);\n        tokensBorrowed[_tokenId].Borrower.transfer(borrowerCollateral);\n        \n\n        emit MarketTransaction(\"Asset Returned\", tokenIdToOffer[_tokenId].lender, _tokenId);\n    }\n\n    function Withdraw(uint256 amountToTransfer) external onlyOwner override {\n        payable(msg.sender).transfer(amountToTransfer);\n    }\n    \n    function contractBalance() external view returns (uint256){\n        return address(this).balance;\n    }\n}",
  "sourcePath": "/Users/Kaiju/Desktop/Courses/HackFS/HackFS_2021/contracts/P2PMarketplace.sol",
  "compiler": {
    "name": "solc",
    "version": "0.8.0+commit.c7dfd78e.Emscripten.clang"
  },
  "schemaVersion": "3.4.1",
  "updatedAt": "2021-08-12T14:53:54.075Z",
  "networkType": "ethereum",
  "devdoc": {
    "kind": "dev",
    "methods": {},
    "version": 1
  },
  "userdoc": {
    "kind": "user",
    "methods": {
      "constructor": {
        "notice": "Set the current AssetContract address and initialize the instance of AssetContract. Requirement: Only the contract owner can call."
      },
      "getAllTokenOnOffer()": {
        "notice": "Get all tokenId's that are currently available for lend.  Returns an empty array if none exist."
      },
      "getOffer(uint256)": {
        "notice": "Get the details about a offer for _tokenId. Throws an error if there is no activeOffering offer for _tokenId."
      },
      "lendAsset(uint256)": {
        "notice": "Executes the lending of _tokenId. Sends the price to the contract. Emits the MarketTransaction event with txType \"Lent\". FEE MUST BE BUILT INTO THE FRONT END CODE Requirement: The msg.value must be greater then GWEIPerPeriod of _tokenId to account for price and fees Requirement: There must be an activeOffering offer for _tokenId"
      },
      "removeOffer(uint256)": {
        "notice": "Removes an existing offer by returning the asset to the Owner Emits the MarketTransaction event with txType \"Asset Removed From Lending\" Requirement: Only the lender of _tokenId can remove an offer."
      },
      "returnAsset(uint256)": {
        "notice": "Returns an token to owner No funds sent as payment was already sent Require original lender to call this function as they own token"
      },
      "setAssetContract(address)": {
        "notice": "Set the current P2PContract address and initialize the instance of P2Pcontract. Requirement: Only the contract owner can call."
      }
    },
    "version": 1
  }
}